:020000040800F2
:100000002005002045010008A9150008550D00082D
:10001000A5150008C3090008091A0008000000001F
:1000200000000000000000000000000011170008A0
:100030003D0C000800000000AB15000889180008FE
:100040005F0100085F0100085F0100085F01000810
:100050005F0100085F0100085F0100085F01000800
:100060005F0100085F0100085F0100085F010008F0
:100070005F0100085F0100085F0100085F010008E0
:100080005F0100085F0100085F0100085F010008D0
:100090005F0100085F0100085F0100085F010008C0
:1000A0005F0100085F0100085F0100085F010008B0
:1000B0005F0100085F0100085F0100085F010008A0
:1000C0005F0100085F0100085F0100085F01000890
:1000D0005F0100085F0100085F0100085F01000880
:1000E0005F0100085F0100085F0100085F01000870
:1000F0005F0100085F0100085F0100085F01000860
:100100005F0100085F0100085F0100085F0100084F
:100110005F0100085F0100085F0100085F0100083F
:100120005F0100085F0100085F0100085F0100082F
:10013000DFF80CD000F060FB00480047551C0008B9
:10014000200500200648804706480047FEE7FEE7F6
:10015000FEE7FEE7FEE7FEE7FEE7FEE7FEE7FEE777
:10016000B918000831010008F0B480EA0102D40F88
:100170004200B2EB410F02D20246084611464A0045
:1001800042D0C30DDDB2C1F3C752AD1A202D35DA0E
:10019000C1F3160141F4000204B15242C5F1200638
:1001A00002FA06F12A411044B3EBD05F23D0C4B168
:1001B000012DA0EBC35009DCF0BC4FF0004202EA75
:1001C000C352DBB200F5000000F08ABA400000F133
:1001D000807000EBC350A0F1807040EAD1704900FC
:1001E00009E0490841EAC071A0EBC35000F50000E6
:1001F000400800EBC350F0BC00F069BA6142012234
:1002000002EB4101001BF6E7F0BC704781F00041B2
:10021000AAE780F00040A7E780EA010210B502F0EB
:100220000043400022D04A001FD0010E01EB1261B2
:10023000C0F35600C2F3560240F4000042F400023C
:10024000A0FB022000047F39140400D0401C50EAB7
:10025000124001D44000491EC2B20C0604EBD0107B
:10026000401C4008802A02D003E0002010BD20F08E
:100270000100002900DA0020184310BD30B480EAE4
:10028000010202F0004530F0004221F0004013D09E
:1002900090B1C30DD40DC2F31601C0F31600E41AD9
:1002A00041F4000140F400027D34914201D3641C0A
:1002B00000E04900002C02DA30BC002070474FF407
:1002C00000000023914201D3891A034340084FEAFA
:1002D0004101F7D151B1914202D14FF0004105E007
:1002E00002D24FF0010101E06FF0010103EBC450B5
:1002F000284430BC00F0EBB92DE9FE4F804681EA7E
:100300000300C00F0C46009021F0004123F000458F
:10031000B8EB0200A94105D24046214690461C4652
:100320000B46024623F00040104347D0270DC7F389
:100330000A00C3F30A510290401A019040286BDA78
:10034000C3F3130040F4801B0098924620B10023B1
:10035000D2EB030A63EB0B0B01985946C0F1400244
:10036000504600F093F906460D4650465946019A0C
:1003700000F09BF910EB08006141002487EA11525C
:1003800084EAE7731A4340D0009A62B3019A012AC3
:100390004FEA075215DC001B61EB02014FF00042EF
:1003A00002EA0752CDE90042001C41F580113246B5
:1003B0002B4600F0D2F903B0BDE8F08F404621464D
:1003C000F9E7001B61EB0201001C41F580130018E6
:1003D0005B412018A2F5001747EB030140EAD570F6
:1003E000B6196D4111E06D084FEA360645EAC07551
:1003F0004FEA0752001B61EB0201001C41F580111E
:1004000049084FEA30000019514132462B4603B0EB
:10041000BDE8F04F00F092B900980122400000239F
:10042000D0EB020263EBE073009821464FEAE074E0
:10043000B8EB000061EB0401E9E783F000435BE700
:1004400081F0004158E72DE9FE4F81EA030404F0F2
:10045000004421F0004100944FF0000B23F00043D2
:1004600050EA01045ED052EA03045BD0C3F30A549D
:10047000C1F30A552C44A4F2F3340194A0FB0254B6
:10048000C1F3130141F48011C3F3130343F4801348
:1004900001FB024400FB034E840A970A44EA81549C
:1004A00047EA8357A4FB076802958D0A05FB078579
:1004B0004FEA932C04FB0C542705029D4FEA065883
:1004C00047EA1637B5EB08056EEB070C870E920E60
:1004D00047EA811742EA8312A7FB0201B6EB0B0140
:1004E00064EB00042B0D43EA0C335E1844EB1C5004
:1004F000DA465146E7FB0201C5F313044FEA0B331A
:1005000043EA14534FEA0432019C43EA0603A4F180
:100510000C040294009CCDE900B400F01EF903B075
:10052000BDE8F08F00200146F9E72DE9F04D81EAA2
:10053000030404F0004B21F0004514464FF0000A7C
:1005400023F0004150EA050220D054EA01021DD0F8
:10055000C5F30A570246C5F31303C1F31300C1F3F1
:100560000A5640F4801543F48013A7EB0608101BCD
:10057000D64608F2FD3873EB050002D308F10108F6
:1005800001E092185B41B8F1000F03DA0020014648
:10059000BDE8F08D00204FF48011064684460EE041
:1005A000171B73EB050705D3121B63EB050306430B
:1005B0004CEA010C49084FEA300092185B4150EABE
:1005C0000107EDD152EA030012D082EA040083EA67
:1005D0000501084305D0101BAB4106D201220023C0
:1005E00006E000224FF0004302E06FF001025310DA
:1005F0001AEB06004CEB085110EB0A0041EB0B0123
:10060000BDE8F04D00F09AB8C10F80EAE0700844F0
:10061000CA079623002100F063B800F0004230F0D2
:1006200000400AD0C10D01F56071C0F3160042EA26
:100630000151C2084007114370470020014670472E
:1006400001F0004330B421F0004150EA010206D02D
:100650000A0DA2F56072C1F31301002A02DC30BC5E
:1006600000207047440F44EAC104C100E01830BCC8
:1006700000EBC25000F02BB8002801DBC0F10040B5
:10068000002901DBC1F1004181427047202A04DBCF
:10069000203A00FA02F1002070479140C2F1200395
:1006A00020FA03F3194390407047202A06DBCB174A
:1006B000203A41FA02F043EAE07306E041FA02F31D
:1006C000D040C2F1200291400843194670470029EA
:1006D000A8BF7047401C490008BF20F001007047C8
:1006E00010B4B0FA80FC00FA0CF050EA010404BF28
:1006F00010BC704749B1CCF1200421FA04F411FA7E
:100700000CF118BF012121430843A3EB0C01CB1DC1
:100710004FEA00614FEA102042BF002010BC704732
:1007200000EBC35010440029A4BF10BC7047401C0C
:10073000490008BF20F0010010BC704710B5141E1E
:1007400073F1000408DA401C41F1000192185B418A
:100750001A4301D120F0010010BD2DE9F04D924661
:100760009B4611B1B1FA81F202E0B0FA80F2203278
:100770009046FFF78BFF04460F4640EA0A0041EA25
:100780000B0153465A46084313D0114653EA010061
:1007900019D0C8F14002504600F040F805460E4618
:1007A000504659464246FFF771FF084305D00120E5
:1007B00004E020463946BDE8F08D0020054346EAB6
:1007C000E0762C4337430A986305E40AA0EB08005F
:1007D0000022FD0A44EA47540A3002D500200146AF
:1007E000E9E7010510196941DDE90845001969418A
:1007F000BDE8F04DA2E70000064C074D06E0E068BA
:1008000040F0010394E8070098471034AC42F6D357
:10081000FFF792FC88210008A8210008202A04DBA9
:10082000203A21FA02F00021704721FA02F3D04069
:10083000C2F12002914008431946704721B18268F5
:1008400042F00102826003E0826822F001028260CD
:10085000704721B1826842F48072826003E082684E
:1008600022F4807282607047014600208A6802F09C
:1008700004020AB1012000E0002070470146002078
:100880008A6802F008020AB1012000E000207047E7
:1008900030B502460020002350680F4C20400D79EF
:1008A0000C6844EA05242043506090680B4C2040BB
:1008B000D1E902542C434D7944EA45042043906029
:1008C000D06A20F470000C7C641EE4B2234340EA3A
:1008D0000350D06230BD0000FFFEF0FFFDF7F1FFD6
:1008E000F0B504460D4600200021092D11DDE06819
:1008F000A5F10A0606EB4607072606FA07F1884324
:10090000A5F10A0606EB460603FA06F10843E06085
:100910000CE0206905EB4507072606FA07F1884336
:1009200005EB450603FA06F108432061072A0FDAB2
:10093000606B561E06EB86071F2606FA07F18843F2
:10094000561E06EB860605FA06F10843606322E0B0
:100950000D2A0FDA206BD61F06EB86071F2606FA34
:1009600007F18843D61F06EB860605FA06F1084311
:10097000206310E0E06AA2F10D0606EB86071F2651
:1009800006FA07F18843A2F10D0606EB860605FA82
:1009900006F10843E062F0BD816841F00801816022
:1009A000704721B1826842F4A002826003E082684D
:1009B00022F4A00282607047816841F004018160E6
:1009C000704700BFFEE7000000B585B0684600F044
:1009D00029FE002000F090FE6FF0040000F00EFFF2
:1009E000002000F052FF09490198B0FBF1F00849DE
:1009F00008704FF4FA510198B0FBF1F005490880F6
:100A0000142001F013F805B000BD000000127A00B8
:100A1000980000209A00002021B1026842F00102F3
:100A2000026004E002684FF6FE731A4002607047ED
:100A300001684FF6FE7211400160002101604160C3
:100A40008160C1604B49884208D14A4908394968E8
:100A500041F00F01474A083A51608AE04549143194
:100A6000884208D143490839496841F0F001414AB8
:100A7000083A51607DE03F492831884208D13D491C
:100A80000839496841F470613A4A083A516070E0A7
:100A900038493C31884208D136490839496841F41F
:100AA0007041344A083A516063E03249503188421B
:100AB00008D130490839496841F470212D4A083A73
:100AC000516056E02B496431884208D129490839E0
:100AD000496841F47001274A083A516049E02549C4
:100AE0007831884208D123490839496841F070615A
:100AF000204A083A51603CE01F49884206D1011F54
:100B0000096841F00F01021F116032E01A491431E7
:100B1000884208D11849091F096841F0F001164AB6
:100B2000121F116025E014492831884208D112496A
:100B3000091F096841F470610F4A121F116018E023
:100B40000D493C31884208D10B49091F096841F41D
:100B50007041094A121F11600BE007495031884269
:100B600007D10549091F096841F47021024A121F83
:100B70001160704708000240080402401AB103687F
:100B80000B43036002E003688B430360704710B5BA
:100B90000022026847F6F0739A430C6A8B6823437D
:100BA0000C6923434C6923438C692343CC69234359
:100BB0004C6A23438C6A23431A430260CB68436028
:100BC0000B6883604B68C36010BD000000B58BB03C
:100BD0000121084600F0F6FC1548FFF729FF1548EB
:100BE000009015480190022003900020029004908C
:100BF00080200590C00006900790202008900002F9
:100C0000099000200A9069460948FFF7C0FF0122B9
:100C100002210748FFF7B2FF012106484C38FFF7D1
:100C200018FE01210248FFF7F7FE0BB000BD0000DF
:100C3000080002404C2401401400002070472DE9B8
:100C4000F041024600250026002000230024002752
:100C500091F803C00CF00F0591F803C00CF0100CD4
:100C6000BCF1000F03D091F802C04CEA050591F8E1
:100C700000C0BCF1000F31D0146800202BE04FF011
:100C8000010C0CFA00F3B1F800C00CEA03069E4216
:100C900020D183004FF00F0C0CFA03F7BC4305FA88
:100CA00003FC4CEA040491F803C0BCF1280F06D100
:100CB0004FF0010C0CFA00FCC2F814C00AE091F8E5
:100CC00003C0BCF1480F05D14FF0010C0CFA00FC39
:100CD000C2F810C0401C0828D1D31460B1F800C07D
:100CE000BCF1FF0F34DD546800202EE000F1080C49
:100CF0004FF0010808FA0CF3B1F800C00CEA030643
:100D00009E4221D183004FF00F0C0CFA03F7BC4335
:100D100005FA03FC4CEA040491F803C0BCF1280F67
:100D200005D100F1080C08FA0CF8C2F8148091F80B
:100D300003C0BCF1480F07D100F1080C4FF00108C7
:100D400008FA0CF8C2F81080401C0828CED3546072
:100D5000BDE8F08100BFFEE721B1028842F4806265
:100D6000028004E002884FF6FF331A400280704789
:100D700070B502460024002500230020958A138BBD
:100D80001B0445EA030626F07F4404EA01068E426E
:100D900001D1012000E0002070BD21B1028842F0A5
:100DA0000102028004E002884FF6FE731A400280BE
:100DB0007047000000B585B00121880500F012FCE5
:100DC0000121082000F01EFC4FF44060ADF8100037
:100DD00001208DF812001C208DF8130004A9104882
:100DE000FFF72DFF4FF48060ADF80A000001ADF869
:100DF0000C000C4800904BF6FF70ADF80600002088
:100E0000ADF804000120ADF808006946064800F07E
:100E100043F801210448FFF7C0FF05B000BD000002
:100E2000000C0140A08601000058004021B102885A
:100E300042F48072028004E002884FF6FF631A4099
:100E40000280704721B1028842F40072028004E0FF
:100E500002884FF6FF531A40028070470CB50246D5
:100E6000002000230193009300920B0F019321F0C7
:100E70007F41019B1BB1009B1433009303E0090CDD
:100E8000009B18330093009B1B680B400BB10120A3
:100E900000E000200CBD00002DE9F04385B00446C1
:100EA0000D460026B1460427DFF8CC80A6884FF611
:100EB000C0700640684600F0B5FBDDF808802F489A
:100EC000B8FBF0F01FFA80F946EA0906A6802088F0
:100ED0004FF6FE7108402080002629492868884284
:100EE0000CD828684000B8FBF0F087B2042F00DA75
:100EF00004273E4309F10100208427E0E8884BF6EF
:100F0000FF71884206D1286800EB4000B8FBF0F082
:100F100087B209E0286800EBC00101EB0010B8FBC4
:100F2000F0F087B247F48047C7F30B0008B947F0E9
:100F3000010747F4004006434FF4967009FB00F0A8
:100F40004FF47A7190FBF1F0401C2084A683208836
:100F500040F00100208026884FF6F5300640A88832
:100F60006989084306432680A88929890843208186
:100F700005B0BDE8F083000000127A0040420F0087
:100F8000A08601000146088AC0B2704712B141F044
:100F9000010102E04FF6FE731940018270470182A1
:100FA0007047000008B50121082000F02BFB23202A
:100FB000ADF8000010208DF8030003208DF802002A
:100FC00069460648FFF73BFE202000F009F80120A3
:100FD00000F006F8022000F003F808BD000C014004
:100FE0000149086070470000100C01400149086089
:100FF00070470000140C01400FB5A5B0FE482799BA
:101000000068FFF709F90D90FC4826990068FFF782
:1010100003F90B90FA48006880F000400990259988
:10102000FFF7FAF80A900B99FFF7F0F80C900D997A
:10103000FFF7ECF84FF07C510E90FFF7EDF81F90A2
:10104000ED4826990068FFF7E7F80D90EB482799DF
:101050000068FFF7E1F80B90EA4801682598FFF770
:10106000DBF80A900B99FFF77FF80C900D99FFF7CA
:10107000CDF84FF07C510E90FFF7CEF81E90DE4871
:1010800001682598FFF7C8F80D90DD48279900689A
:10109000FFF7C2F80B90DB4826990068FFF7BCF811
:1010A0000A900B99FFF7B2F80C900D99FFF75CF8D6
:1010B0004FF07C510E90FFF7AFF81D90CF480168BC
:1010C0002598FFF7A9F80D90CD4826990068FFF7FD
:1010D000A3F80B90CB4827990068FFF79DF80A907A
:1010E0000B99FFF741F80C900D99FFF78FF84FF02F
:1010F0007C510E90FFF790F81C9000212898FFF784
:10110000BBFA09D100212A98FFF7B6FA04D10021D1
:101110002B98FFF7B1FA7DD02B990846FFF77CF8A2
:101120000D902A990846FFF777F80B902899084602
:10113000FFF772F80A900B99FFF716F80C900D99CB
:10114000FFF712F80E9000F005FD249024992898DE
:10115000FFF762F8289024992A98FFF75DF82A9003
:1011600024992B98FFF758F82B90A64801684FF068
:101170008040FFF751F81B90A14801684FF0804074
:10118000FFF74AF81A909D4801684FF08040FFF73A
:1011900043F81990984801684FF08040FFF73CF8F9
:1011A0001890984801684FF08140FFF735F8179084
:1011B000934801684FF08140FFF72EF816908F4852
:1011C00001684FF08140FFF727F815908C480168BF
:1011D0004FF08240FFF720F81490884801684FF0E4
:1011E0008240FFF719F81390864801680068FFF7FE
:1011F00013F81290824801680068FFF70DF811900B
:101200007E4801680068FFF707F810907A48016887
:10121000006800E044E1FEF7FFFF0F902A991A985A
:10122000FEF7FAFF0E9011991798FEF7F5FF0C9054
:1012300028991998FEF7F0FF0A9010991798FEF771
:10124000EBFF09900A99FEF78FFF0B900C99FEF7C0
:101250008BFF0D900E99FEF7D9FF23902B991698CE
:10126000FEF7DAFF0E9010991498FEF7D5FF0C9058
:1012700011991498FEF7D0FF0A902A991B98FEF74F
:10128000CBFF07904FF081401299FEF7C5FF039006
:101290005B4801680398FEF7BFFF059028991898EE
:1012A000FEF7BAFF03900F991698FEF7B5FF02906C
:1012B0000399FEF7ABFF04900599FEF755FF0690E2
:1012C0000799FEF7A3FF08901699FEF79FFF099074
:1012D0000A99FEF749FF0B900C99FEF745FF0D9018
:1012E0000E99FEF741FF22902B991598FEF794FF77
:1012F0000E9010991398FEF78FFF0C901199139888
:10130000FEF78AFF0A902A991898FEF785FF079042
:101310000F991598FEF780FF059028991B98FEF706
:101320007BFF03904FF081401299FEF775FF01900B
:10133000324801680198FEF76FFF02900399FEF7AB
:1013400013FF04900599FEF70FFF06900799FEF72B
:101350005DFF08901599FEF759FF09900A99FEF76D
:1013600003FF0B900C99FEF7FFFE0D900E99FEF710
:10137000FBFE21902A991998FEF74EFF0E904FF030
:1013800081401099FEF748FF0A901B4801680A98AF
:10139000FEF742FF0C9028991A98FEF73DFF0A903D
:1013A0004FF081401199FEF737FF0890124801680D
:1013B0000898FEF731FF09900A99FEF727FF0B9076
:1013C0000C99FEF7D1FE0D900E99FEF71FFF2090AD
:1013D00020990846FEF720FF0D9021990846FEF758
:1013E0001BFF0B9022990846FEF716FF09902399E0
:1013F0000846FEF711FF07E0F0000020EC00002097
:10140000E8000020E400002008900999FEF7ACFEF7
:101410000A900B99FEF7A8FE0C900D99FEF7A4FE1A
:101420000E9000F097FB2490DDE92301FEF7F4FE17
:10143000239024992298FEF7EFFE22902499219878
:10144000FEF7EAFE219024992098FEF7E5FE209011
:101450004E4823990068FEF7DFFE0E901F99FEF7B5
:10146000D8FE1F90494822990068FEF7D5FE0E90DD
:101470001E99FEF7CEFE1E90444821990068FEF7A3
:10148000CBFE0E901D99FEF7C4FE1D903F4820999B
:101490000068FEF7C1FE0E901C99FEF7BAFE1C9084
:1014A0003B491F98FEF7B8FE0E903A4801680E9827
:1014B000FEF75AFE3749086035491E98FEF7ACFE24
:1014C0000E90354801680E98FEF74EFE32490860CE
:1014D0002F491D98FEF7A0FE0E90304801680E9827
:1014E000FEF742FE2D49086029491C98FEF794FE3C
:1014F0000E902B4801680E98FEF736FE28490860CA
:10150000084601680068FEF787FE0D9023480168D1
:101510000068FEF781FE0B901F4801680068FEF727
:101520007BFE09901B4801680068FEF775FE089075
:101530000999FEF719FE0A900B99FEF715FE0C901B
:101540000D99FEF711FE0E9000F004FB2490114857
:1015500024990068FEF760FE0E4908600E48249941
:101560000068FEF759FE0C4908600C482499006891
:10157000FEF752FE09490860094824990068FEF701
:101580004BFE0749086029B000BD0000E0000020C4
:101590000AD7A33BE4000020E8000020EC00002074
:1015A000F000002000BFFEE77047704701460020B2
:1015B000034A506820F440400843506070470000E0
:1015C0000010024029B1064A52690243044B5A6195
:1015D00004E0034A52698243014B5A61704700009C
:1015E0000010024029B1064AD2690243044BDA6175
:1015F00004E0034AD2698243014BDA61704700007C
:101600000010024029B1064A92690243044B9A61D4
:1016100004E0034A92698243014B9A6170470000DB
:101620000010024030B500210022002400232D4D7F
:101630006D6805F00C0121B1042905D0082923D1DA
:1016400005E0294D056022E0274D05601FE0254D8E
:101650006D6805F47012234D6D6805F48034022521
:1016600005EB92421CB9214D554305600BE01D4D21
:101670006D6805F400351DB11C4D5543056002E051
:10168000194D5543056002E0174D056000BF00BFCE
:10169000144D6D6805F0F0010909154D6B5C056886
:1016A000DD4045600F4D6D6805F4E061090A104D9D
:1016B0006B5C4568DD4085600A4D6D6805F46051DE
:1016C000C90A0B4D6B5C4568DD40C560054D6D6812
:1016D00005F44041890B074D6B5CC568B5FBF3F51C
:1016E000056130BD0010024000127A0000093D0083
:1016F000000000201000002001460020034A50682E
:1017000020F0F000084350607047000000100240D5
:10171000704710B500F002F810BD00000CB50020B5
:10172000019000903348006840F4803031490860EF
:1017300000BF3048006800F4003000900198401C61
:101740000190009818B90198B0F5A06FF1D129481F
:10175000006800F4003010B10120009001E000208A
:1017600000900098012843D12348006840F0100001
:10177000214908600846006820F003000860084618
:10178000006840F0020008601A4840681949486043
:101790000846406848600846406840F480604860F9
:1017A0000846406820F47C1048600846406840F4D1
:1017B000E81048600846006840F08070086000BF8C
:1017C0000C48006800F000700028F9D00948406813
:1017D00020F00300074948600846406840F00200D6
:1017E000486000BF0348406800F00C000828F9D1A9
:1017F0000CBD00000010024000200240042808D167
:101800004FF0E021096941F004014FF0E02211613D
:1018100007E04FF0E021096921F004014FF0E022D8
:1018200011617047012808D14FF0E021096941F0AA
:1018300001014FF0E02211610EE0811C41B94FF02F
:10184000E021096921F001014FF0E022116103E07C
:1018500000214FF0E0229161704710B5014600224F
:1018600000230020CB10022B03D14FF0E02422698B
:1018700002E04FF0E024E26901248C4014400CB1F6
:10188000012000E0002010BD704740B14FF0E02182
:10189000096941F002014FF0E022116107E04FF0C9
:1018A000E021096921F002014FF0E0221161704747
:1018B0004FF0E0214861704710B51348006840F0D0
:1018C00001001149086008464068104908400E4967
:1018D0004860084600680E4908400B490860084601
:1018E000006820F4802008600846406820F4FE006C
:1018F00048604FF41F008860FFF70BFF4FF0006057
:101900000449086010BD0000001002400000FFF80C
:10191000FFFFF6FE08ED00E021B1828942F400529B
:10192000828104E082894DF6FF731A4082817047FC
:101930002DE9F04786B005460E460024A24600BFBA
:10194000A1460027B08900B100BF2F462C8A4CF673
:10195000FF700440F08804432C82AC894EF6F310EB
:101960000440B08831890843718908430443AC813D
:10197000AC8A4FF6FF400440B0890443AC8201A812
:10198000FFF750FE1F48874202D1DDF810A001E0AA
:10199000DDF80CA0A88900F4004040B10AEBCA00B1
:1019A00000EB0A1031684900B0FBF1F807E00AEBE0
:1019B000CA0000EB0A1031688900B0FBF1F864201E
:1019C000B8FBF0F004012009642101FB1089A8890B
:1019D00000F4004040B1322000EBC900B0FBF1F050
:1019E00000F00700044308E0322000EB09106421F6
:1019F000B0FBF1F000F00F0004432C8106B0BDE80D
:101A0000F08700000038014000BFFEE702E008C890
:101A1000121F08C1002AFAD170477047002001E068
:101A200001C1121F002AFBD17047000070B50446A7
:101A30000F48008800FB04F5B5F1807F01D36FF0FB
:101A40007F452846FFF734FF0020FFF7EBFE01201B
:101A5000FFF7E8FE00BF1020FFF7FFFE0549087002
:101A6000084600780128F6D1C01EFFF7DBFE70BDE6
:101A70009A0000209C00002010B51148B0F9000029
:101A8000FEF7C2FD04460F49FEF7F8FB0E49086059
:101A90000E48B0F90000FEF7B7FD04460C49FEF70A
:101AA000EDFB0C4908600C48B0F90000FEF7ACFDF6
:101AB00004460A49FEF7E2FB0949086010BD000030
:101AC0001E0000200044804644000020200000202A
:101AD00000268046480000202200002000B08146F9
:101AE0004C00002010B51449B1F9001001F1370085
:101AF000FEF78AFD04461149FEF7C0FB1049086055
:101B00001049B1F9001001F11F00FEF77DFD0446F8
:101B10000A49FEF7B3FB0C4908600C49B1F9001003
:101B200001F17B00FEF770FD04460449FEF7A6FBB9
:101B30000749086010BD00001800002000000343A2
:101B4000300000201A000020340000201C0000207B
:101B5000380000202DE9F04704464FF07C51204624
:101B6000FEF75AFB814625462E460C48A0EB66063A
:101B7000354629464846FEF74FFB82462946FEF782
:101B80004BFB80464FF07F51FEF743FB074629464B
:101B9000FEF742FB05462846BDE8F087DF59375F70
:101BA00000B587B001211020FFF72CFD3020ADF8E3
:101BB000180000208DF81B0003208DF81A0006A9DC
:101BC0002248FFF73CF801214802FFF71BFD0020E7
:101BD000019001208DF808008DF809004FF4602075
:101BE00003900020049002208DF8140001A91848E9
:101BF000FEF74EFE4FF40040FFF7D8FC0023012211
:101C00000E211348FEF76CFE002302220F2110481C
:101C1000FEF766FE01210E48FEF710FE0C48FEF7A7
:101C2000BBFE00BF0A48FEF729FE0028FAD108488B
:101C3000FEF7C2FE00BF0648FEF716FE0028FAD1E6
:101C400001210348FEF7ADFE07B000BD00100140C2
:101C5000002401400EB5FFF7A5F9FEF7B5FEFFF72A
:101C6000A9F800F0B5F94FF47A31002000F0F6F948
:101C7000FFF796FFFEF7AAFF54E000F067F8FFF7C2
:101C800031FFFFF7F9FE28480068FEF7C6FC8046E2
:101C9000264A274BFEF7D7FB06460022254BFEF7C8
:101CA00044FC0446FEF7CCFC824623480068FEF75D
:101CB000B4FC06461D4A1E4BFEF7C5FB80460022BB
:101CC0001C4BFEF732FC0446FEF7BAFC83461B4869
:101CD0000068FEF7A2FC0646144A154BFEF7B3FB5C
:101CE00080460022134BFEF720FC0446FEF7A8FCBA
:101CF00002901348006813490968CDE900101248A2
:101D00005246594603680298FFF776F90220FFF71A
:101D10006DF96420FFF78AFE0220FFF761F9642065
:101D2000FFF784FEA9E7000038000020EA2E4454A3
:101D3000FB21094000806640340000203000002074
:101D40004C00002048000020440000202DE9F0470E
:101D50000E222B493B2000F069F829484078284999
:101D6000097840EA012000B2264908802448C0785A
:101D70002349897840EA012000B22349088020489D
:101D800040791F49097940EA012000B21F490880C3
:101D90001B49C9791A4A927941EA022108B2FEF731
:101DA00033FC81461A49FEF769FA0446FEF735FC12
:101DB0000746184A184BFEF79FFA0546FEF740FC07
:101DC000164908600E48407A0D49097A40EA012018
:101DD00000B2134908800A48C07A0949897A40EA62
:101DE000012000B20F4908800548407B0449097B67
:101DF00040EA012000B20C490880BDE8F0870000ED
:101E0000080100201E0000202000002022000020E9
:101E10000000AA43A4703D0AD7434240540000206A
:101E2000180000201A0000201C0000202DE9F041BD
:101E300006460F46144600BF4FF400313648FFF700
:101E40000DF80028F8D101213348FEF7EFFF00BF5D
:101E500032493148FEF78CFF0028F9D00022D0210A
:101E60002D48FFF793F800BF2D492B48FEF780FF60
:101E70000028F9D031462848FFF791F800BF2849DB
:101E8000891C2548FEF774FF0028F8D0012122485C
:101E9000FEF7D8FF00BF23491F48FEF7DFFF0028E9
:101EA000F9D101211C48FEF7C1FF00BF1B491A48A8
:101EB000FEF75EFF0028F9D00122D1211648FFF776
:101EC00065F800BF1549491C1348FEF751FF00286B
:101ED000F8D0002518E0012C07D100210E48FEF7AC
:101EE0003BFF01210C48FEF7ADFF0C493F310A488A
:101EF000FEF73EFF40B10848FFF744F80A4948554D
:101F0000681CC5B2601EC4B2002CE4D10121024895
:101F1000FEF722FFBDE8F0810058004001000300F9
:101F20008200070010000010080100202DE9F04198
:101F300005460E46174601212248FEF777FF00BFEF
:101F400021492048FEF78AFF0028F9D00022D0213D
:101F50001C48FFF71BF800BF1C491A48FEF708FF92
:101F60000028F9D029461748FFF719F800BF17498C
:101F7000891C1448FEF7FCFE0028F8D0002410E06D
:101F8000315D1048FFF70BF800BF1049891C0D4860
:101F9000FEF7EEFE0028F8D00120FFF747FD601C99
:101FA000C4B2BC42ECDB01210648FEF74BFF00BF88
:101FB00005490F310348FEF751FF0028F8D1BDE86D
:101FC000F08100000058004001000010820007006E
:101FD00010B50A20FFF72AFD80201E490870012253
:101FE0006B20FFF7A3FF0A20FFF720FD002019490F
:101FF000087001226B20FFF799FF0A20FFF716FDFA
:1020000000201449087001226A20FFF78FFF0A2080
:10201000FFF70CFD02200F49087001223720FFF75F
:1020200085FF0A20FFF702FD07200A4908700020FB
:1020300048708870C87004221920FFF777FF0A20C3
:10204000FFF7F4FC0448006840F001000249086012
:1020500010BD0000F40000200C0C014030B585B02C
:1020600004460D46294951F82410294A52F82420E3
:10207000114341F001000121FFF7C4FA34B92549A9
:1020800051F824000121FFF7BDFA05E0214951F87C
:1020900024000121FFF7A6FA18208DF813001E482E
:1020A00030F81400ADF8100003208DF812001B4921
:1020B00051F8240004A9FEF7C2FD04208DF8130096
:1020C000174830F81400ADF81000164951F82400F4
:1020D00004A9FEF7B4FD00950020ADF80400ADF8AA
:1020E0000600ADF80800ADF80C000C20ADF80A00B1
:1020F0000D4951F824006946FFF71AFC0A4951F8C6
:1021000024000121FFF708FC05B030BD4021000884
:10211000542100082C21000868210008B400002088
:1021200072210008C8000020A0000020004000002C
:102130000000020000000400000000000000000099
:10214000040000000400000008000000000000007F
:10215000000000000400000004000000080000006F
:102160000000000000000000000204000004000065
:102170000000000408000008000000002500260000
:102180002700000000000000A82100080000002037
:10219000F40000000C1A00089C220008F400002043
:1021A0002C0400001C1A00080000000001020304B7
:1021B00001020304060708090204060800000000E3
:1021C000000000000000000000000000000000000F
:1021D00000000000000000000000000000000000FF
:1021E00000000000000000000000000000000000EF
:1021F00000000000000000000000000000000000DF
:1022000000000000000000000000000000000000CE
:1022100000000000000000000000000000000000BE
:1022200000000000000000000000000000000000AE
:10223000000000000000000000000000000000009E
:102240000000000000000000003801400044004091
:1022500000480040000000000000000000080140AD
:1022600000080140000C01400000000000000000D8
:102270000008014000080140000C0140000000007F
:102280000000000000000000CDCCCC3D0000803FED
:0C22900000000000000000000000000042
:0400000508000131BD
:00000001FF
