:020000040800F2
:10000000B004002045010008E5140008FD0B0008BD
:10001000E114000869070008A517000800000000A7
:10002000000000000000000000000000551600085D
:100030009509000800000000E714000841170008B7
:100040005F0100085F0100085F0100085F01000810
:100050005F0100085F0100085F0100085F01000800
:100060005F0100085F0100085F0100085F010008F0
:100070005F0100085F0100085F0100085F010008E0
:100080005F0100085F0100085F0100085F010008D0
:100090005F0100085F0100085F0100085F010008C0
:1000A0005F0100085F0100085F0100085F010008B0
:1000B0005F0100085F0100085F0100085F010008A0
:1000C0005F0100085F0100085F0100085F01000890
:1000D0005F0100085F0100085F0100085F01000880
:1000E0005F0100085F0100085F0100085F01000870
:1000F0005F0100085F0100085F0100085F01000860
:100100005F0100085F0100085F0100085F0100084F
:100110005F0100085F0100085F0100085F0100083F
:100120005F0100085F0100085F0100085F0100082F
:10013000DFF80CD000F0CAF900480047891A00081F
:10014000B00400200648804706480047FEE7FEE767
:10015000FEE7FEE7FEE7FEE7FEE7FEE7FEE7FEE777
:10016000451700083101000840EA01039B0703D04E
:1001700009E008C9121F08C0042AFAD203E011F8E6
:10018000013B00F8013B521EF9D270472DE9FE4FAA
:10019000804681EA0300C00F0C46009021F0004128
:1001A00023F00045B8EB0200A94105D240462146A4
:1001B00090461C460B46024623F00040104347D0B1
:1001C000270DC7F30A00C3F30A510290401A0190A9
:1001D00040286BDAC3F3130040F4801B009892466A
:1001E00020B10023D2EB030A63EB0B0B01985946B5
:1001F000C0F14002504600F0B3F806460D465046A6
:100200005946019A00F0BBF810EB08006141002448
:1002100087EA115284EAE7731A4340D0009A62B326
:10022000019A012A4FEA075215DC001B61EB02011B
:100230004FF0004202EA0752CDE90042001C41F5AE
:10024000801132462B4600F0F2F803B0BDE8F08F83
:1002500040462146F9E7001B61EB0201001C41F515
:10026000801300185B412018A2F5001747EB03012B
:1002700040EAD570B6196D4111E06D084FEA3606B7
:1002800045EAC0754FEA0752001B61EB0201001CF2
:1002900041F5801149084FEA3000001951413246BA
:1002A0002B4603B0BDE8F04F00F0B2B80098012231
:1002B00040000023D0EB020263EBE073009821467C
:1002C0004FEAE074B8EB000061EB0401E9E783F06A
:1002D00000435BE781F0004158E70EB5C10F80EAAB
:1002E000E0700844CA07002140F233438DE80E0055
:1002F0000A460B4600F09BF803B000BD01F0004336
:1003000030B421F0004150EA010206D00A0DA2F5F6
:100310006072C1F31301002A02DC30BC0020704778
:10032000440F44EAC104C100E01830BC00EBC250E5
:1003300000F037B830B50B460146002020220124DA
:1003400009E021FA02F59D4205D303FA02F5491BA3
:1003500004FA02F52844151EA2F10102F1DC30BDB9
:10036000202A04DB203A00FA02F100207047914075
:10037000C2F1200320FA03F3194390407047202A6A
:1003800006DBCB17203A41FA02F043EAE07306E0BD
:1003900041FA02F3D040C2F12002914008431946CD
:1003A00070470029A8BF7047401C490008BF20F0D3
:1003B0000100704710B4B0FA80FC00FA0CF050EA6B
:1003C000010404BF10BC704749B1CCF1200421FAEC
:1003D00004F411FA0CF118BF012121430843A3EBE7
:1003E0000C01CB1D4FEA00614FEA102042BF0020F4
:1003F00010BC704700EBC35010440029A4BF10BCD0
:100400007047401C490008BF20F0010010BC704735
:1004100010B5141E73F1000408DA401C41F100010C
:1004200092185B411A4301D120F0010010BD2DE963
:10043000F04D92469B4611B1B1FA81F202E0B0FA5A
:1004400080F220329046FFF78BFF04460F4640EAC9
:100450000A0041EA0B0153465A46084313D011469D
:1004600053EA010019D0C8F14002504600F040F8AC
:1004700005460E46504659464246FFF771FF08436F
:1004800005D0012004E020463946BDE8F08D00206B
:10049000054346EAE0762C4337430A986305E40AAD
:1004A000A0EB08000022FD0A44EA47540A3002D5B6
:1004B00000200146E9E7010510196941DDE9084519
:1004C00000196941BDE8F04DA2E70000064C074D58
:1004D00006E0E06840F0010394E807009847103414
:1004E000AC42F6D3FFF728FE14220008342200089D
:1004F000202A04DB203A21FA02F00021704721FA79
:1005000002F3D040C2F120029140084319467047DF
:1005100021B1826842F00102826003E0826822F029
:1005200001028260704721B1826842F48072826069
:1005300003E0826822F480728260704701460020E6
:100540008A6802F004020AB1012000E0002070472E
:10055000014600208A6802F008020AB1012000E08A
:100560000020704730B502460020002350680F4C31
:1005700020400D790C6844EA0524204350609068BF
:100580000B4C2040D1E902542C434D7944EA4504F8
:1005900020439060D06A20F470000C7C641EE4B2AA
:1005A000234340EA0350D06230BD0000FFFEF0FF5D
:1005B000FDF7F1FFF0B504460D4600200021092D9E
:1005C00011DDE068A5F10A0606EB4607072606FAE4
:1005D00007F18843A5F10A0606EB460603FA06F181
:1005E0000843E0600CE0206905EB4507072606FAA2
:1005F00007F1884305EB450603FA06F1084320613D
:10060000072A0FDA606B561E06EB86071F2606FACE
:1006100007F18843561E06EB860605FA06F10843E5
:10062000606322E00D2A0FDA206BD61F06EB8607E7
:100630001F2606FA07F18843D61F06EB860605FA41
:1006400006F10843206310E0E06AA2F10D0606EB14
:1006500086071F2606FA07F18843A2F10D0606EB6E
:10066000860605FA06F10843E062F0BD816841F0B4
:1006700008018160704721B1826842F4A002826063
:1006800003E0826822F4A00282607047816841F032
:1006900004018160704700002DE9F04389B00446F1
:1006A0000E233B226946D02000F0B6FA9DF80000E8
:1006B000000200B29DF801100843ADF810009DF84B
:1006C0000200000200B29DF803100843ADF81200CA
:1006D0009DF80400000200B29DF805100843ADF833
:1006E00014009DF80600000200B29DF807100843B0
:1006F000ADF816009DF80800000200B29DF8091040
:100700000843ADF818009DF80A00000200B29DF8F9
:100710000B100843ADF81A009DF80C00000200B25F
:100720009DF80D100843ADF81C00BDF916004FF4FC
:10073000AA7190FBF1F94846FFF7CFFD0746084A3A
:10074000084BFFF723FD0546FFF7D8FD089014225C
:1007500004A92046FFF708FD09B0BDE8F0830000BA
:10076000A4703D0AD743424000BFFEE721B10268B2
:1007700042F00102026004E002684FF6FE731A4084
:100780000260704701684FF6FE721140016000215F
:10079000016041608160C1604B49884208D14A498B
:1007A0000839496841F00F01474A083A51608AE028
:1007B00045491431884208D143490839496841F014
:1007C000F001414A083A51607DE03F4928318842B2
:1007D00008D13D490839496841F470613A4A083AFC
:1007E000516070E038493C31884208D136490839B7
:1007F000496841F47041344A083A516063E0324933
:100800005031884208D130490839496841F4702193
:100810002D4A083A516056E02B496431884208D18C
:1008200029490839496841F47001274A083A51605A
:1008300049E025497831884208D123490839496877
:1008400041F07061204A083A51603CE01F498842FB
:1008500006D1011F096841F00F01021F116032E04B
:100860001A491431884208D11849091F096841F012
:10087000F001164A121F116025E014492831884200
:1008800008D11249091F096841F470610F4A121F0B
:10089000116018E00D493C31884208D10B49091F0D
:1008A000096841F47041094A121F11600BE00749C1
:1008B0005031884207D10549091F096841F4702168
:1008C000024A121F116070470800024008040240EB
:1008D0001AB103680B43036002E003688B430360B3
:1008E000704710B50022026847F6F0739A430C6A0D
:1008F0008B6823430C6923434C6923438C6923434E
:10090000CC6923434C6A23438C6A23431A43026015
:10091000CB6843600B6883604B68C36010BD000008
:1009200000B58BB00121084600F0EAFD1648FFF73C
:1009300029FF1648009016480190002002900220DE
:1009400003900020049080200590400006908000D5
:100950000790202008900002099000200A90694624
:100960000948FFF7BEFF012202210748FFF7B0FF49
:10097000012106484C38FFF7D6FD01210248FFF758
:10098000F5FE0BB000BD0000080002404C24014001
:1009900014000020704701B502E00098401E00904E
:1009A00000980028F9D108BD07E0022100E000BF4F
:1009B0000A1EA1F10101FAD100BF011EA0F1010040
:1009C000F3D1704751B18200A2F1C042126842F0E7
:1009D00001038200A2F1C042136009E08200A2F18B
:1009E000C0421268034B1A408300A3F1C0431A604F
:1009F00070470000FEFF0F00D0E901121143C268EA
:100A00001143026911434269114382691143C2696A
:100A10001143026A1143426A1143826A1143C26A56
:100A20001143026B114302689200A2F1C0421160AF
:100A3000816808290BD101688900A1F1C0410968CA
:100A400041F0400201688900A1F1C0410A60416B98
:100A50000968426B526841EA0211426B926841EAAE
:100A60000221426B928941EA0241426B128A41EAB9
:100A70000251426B127D41EA0261426B926911435D
:100A80000268521C9200A2F1C0421160C16AB1F525
:100A9000804F1BD1816B0968826B526841EA021159
:100AA000826B926841EA0221826B128A41EA02510A
:100AB000826B127D41EA0261826B92691143026886
:100AC0009200A2F1C042C2F8041107E06FF0704238
:100AD00001688900A1F1C041C1F8042170472DE9E6
:100AE000F0410246002500260020002300240027B4
:100AF00091F803C00CF00F0591F803C00CF0100C36
:100B0000BCF1000F03D091F802C04CEA050591F842
:100B100000C0BCF1000F31D0146800202BE04FF072
:100B2000010C0CFA00F3B1F800C00CEA03069E4277
:100B300020D183004FF00F0C0CFA03F7BC4305FAE9
:100B400003FC4CEA040491F803C0BCF1280F06D161
:100B50004FF0010C0CFA00FCC2F814C00AE091F846
:100B600003C0BCF1480F05D14FF0010C0CFA00FC9A
:100B7000C2F810C0401C0828D1D31460B1F800C0DE
:100B8000BCF1FF0F34DD546800202EE000F1080CAA
:100B90004FF0010808FA0CF3B1F800C00CEA0306A4
:100BA0009E4221D183004FF00F0C0CFA03F7BC4397
:100BB00005FA03FC4CEA040491F803C0BCF1280FC9
:100BC00005D100F1080C08FA0CF8C2F8148091F86D
:100BD00003C0BCF1480F07D100F1080C4FF0010829
:100BE00008FA0CF8C2F81080401C0828CED35460D4
:100BF000BDE8F081416170470161704700BFFEE7C9
:100C000021B1028842F48062028004E002884FF63B
:100C1000FF331A40028070472DE9F04106460D4629
:100C200017461C4600BF4FF40031324800F0DFF891
:100C30000028F8D101212F4800F0C1F800BF2E494B
:100C40002C4800F09BF80028F9D0002231462948B2
:100C500000F064F900BF2949264800F08FF8002809
:100C6000F9D00121234800F09EF83946214800F0D0
:100C70005EF900BF2149891C1E4800F07FF800285A
:100C8000F8D001211B4800F09AF800BF1A49194812
:100C900000F074F80028F9D001223146154800F020
:100CA0003DF900BF1449491C124800F067F80028BC
:100CB000F8D016E0012C07D100210E48FFF7A0FF65
:100CC00001210C4800F087F80B493F31094800F03A
:100CD00055F830B1074800F01DF928706D1C601EF2
:100CE00084B2002CE6D101210248FFF789FFBDE85C
:100CF000F08100000058004001000300820007005E
:100D000070B504460D4616460121194800F057F803
:100D100000BF1849164800F031F80028F9D0002229
:100D20002146134800F0FAF800BF1349104800F0BC
:100D300025F80028F9D031460D4800F0F8F800BF3A
:100D40000D49891C0A4800F019F80028F8D02978C4
:100D5000074800F0ECF800BF0749891C044800F080
:100D60000DF80028F8D00121014800F034F870BDDA
:100D700000580040010003008200070070B50246E1
:100D80000024002500230020958A138B1B0445EACC
:100D9000030626F07F4404EA01068E4201D10120B9
:100DA00000E0002070BD21B1028842F00102028003
:100DB00004E002884FF6FE731A400280704721B1AA
:100DC000028842F48072028004E002884FF6FF63DA
:100DD0001A400280704721B1028842F400720280FA
:100DE00004E002884FF6FF531A40028070470CB5AA
:100DF0000246002000230193009300920B0F019301
:100E000021F07F41019B1BB1009B1433009303E051
:100E1000090C009B18330093009B1B680B400BB11F
:100E2000012000E000200CBD2DE9F04385B0044610
:100E30000D460026B1460427DFF8CC80A6884FF681
:100E4000C0700640684600F09BFBDDF808802F4824
:100E5000B8FBF0F01FFA80F946EA0906A680208860
:100E60004FF6FE71084020800026294928688842F4
:100E70000CD828684000B8FBF0F087B2042F00DAE5
:100E800004273E4309F10100208427E0E8884BF65F
:100E9000FF71884206D1286800EB4000B8FBF0F0F3
:100EA00087B209E0286800EBC00101EB0010B8FB35
:100EB000F0F087B247F48047C7F30B0008B947F05A
:100EC000010747F4004006434FF4967009FB00F019
:100ED0004FF47A7190FBF1F0401C2084A6832088A7
:100EE00040F00100208026884FF6F5300640A888A3
:100EF0006989084306432680A889298908432081F7
:100F000005B0BDE8F083000000127A0040420F00F7
:100F1000A08601000146088AC0B2704712B141F0B4
:100F2000010102E04FF6FE73194001827047018211
:100F300070472DE9F84381460F4615461C46089E2A
:100F400001233A4669464846FFF766FE0120A04065
:100F5000401E291B491C884000F0FF08281B401C2C
:100F600006FA00F0C6B206EA08069DF8000020EA7C
:100F7000080000909DF80000304300903A46694612
:100F80004846FFF7BDFEBDE8F883000010B50446F3
:100F90002CB14FF480510548FFF72CFE04E04FF4CC
:100FA00080510248FFF728FE10BD000000140140E8
:100FB0002DE9F05F81468A4614461D46DDF828B0CB
:100FC0002B4622465146484600F023F904FB05F61D
:100FD0005F464FF000082C2000F078FA00BF04E0D4
:100FE000384600F077FA08F10108B045F8D300BFA1
:100FF000BDE8F09F2DE9F047804689461546A5F1EA
:10100000200000F0FF0A102308224946404600F065
:1010100000F92C2000F05AFA002417E00D4800EBEC
:101020000A10065D00270DE006F0010018B11F2030
:1010300000F050FA03E04FF6FF7000F04BFA761024
:10104000781CC7B2082FEFDB601CC4B2102CE5DBA4
:10105000BDE8F087241C000870B505460E4614460E
:1010600017E028460830F02803DD002506F11000BF
:1010700086B230461030B0F5A07F01DD0025002695
:10108000227831462846FFF7B5FF641C05F10800B9
:1010900085B220780028E4D170BD00B597B0012159
:1010A000080200F02DFA0220019000200290052095
:1010B000039000200490059006904FF08050079018
:1010C00000200890099008200A9010200B90002022
:1010D0000C900E900F9010904FF4805011900020C3
:1010E00012901390149001A81590169008A8FFF77D
:1010F00083FC01210020FFF765FC17B000BD000054
:1011000008B50121084600F02BFA0121602000F00B
:1011100027FA03208DF8020018208DF803004CF206
:101120000370ADF8000069462C48FFF7D8FC4FF675
:101130008070ADF8000069462948FFF7D0FC032015
:101140008DF8020018208DF803001020ADF8000083
:1011500069462248FFF7C3FC2020ADF8000069462D
:101160001E48FFF7BCFC0121202000F0F9F9802087
:10117000ADF8000069461948FFF7B1FC01212020B5
:1011800000F0EEF94FF40060ADF800006946134836
:10119000FFF7A5FC10208DF8030003208DF8020056
:1011A0000121402000F0DCF90220ADF80000694682
:1011B0000B48FFF794FC10208DF8030003208DF8F6
:1011C00002000121202000F0CBF94FF48050ADF84F
:1011D000000069460148FFF782FC08BD0014014089
:1011E0000018014008B5FFF78BFFFFF756FF0120FD
:1011F000FFF7CCFE00F056F900F03CF84FF6FF7018
:101200004FF4A073F022002100900846FFF7D0FEB3
:1012100008BD2DE9F04104460D4616461F462A201A
:1012200000F054F9201200F055F9E0B200F052F944
:10123000A119491EC1F30F2000F04CF9A119491E54
:10124000C8B200F047F92B2000F040F9281200F056
:1012500041F9E8B200F03EF9E919491EC1F30F2047
:1012600000F038F9E919491EC8B200F033F9BDE8B9
:10127000F081000010B5CF2000F028F9002000F028
:1012800029F9812000F026F9302000F023F9ED2023
:1012900000F01CF9642000F01DF9032000F01AF999
:1012A000122000F017F9812000F014F9E82000F076
:1012B0000DF9852000F00EF9102000F00BF97820D0
:1012C00000F008F9CB2000F001F9392000F002F914
:1012D0002C2000F0FFF8002000F0FCF8342000F093
:1012E000F9F8022000F0F6F8F72000F0EFF82020DF
:1012F00000F0F0F8EA2000F0E9F8002000F0EAF849
:10130000002000F0E7F8B12000F0E0F8002000F045
:10131000E1F81B2000F0DEF8B62000F0D7F80A2034
:1013200000F0D8F8A22000F0D5F8C02000F0CEF8E8
:10133000352000F0CFF8C12000F0C8F8112000F0EF
:10134000C9F8C52000F0C2F8452000F0C3F84520D8
:1013500000F0C0F8C72000F0B9F8A22000F0BAF8F9
:10136000F22000F0B3F8002000F0B4F8262000F0DE
:10137000ADF8012000F0AEF8E02000F0A7F80F2053
:1013800000F0A8F8262000F0A5F8242000F0A2F82C
:101390000B2000F09FF80E2000F09CF8092000F0D0
:1013A00099F8542000F096F8A82000F093F8462011
:1013B00000F090F80C2000F08DF8172000F08AF86B
:1013C000092000F087F80F2000F084F8072000F0D3
:1013D00081F8002000F07EF8E12000F077F800208E
:1013E00000F078F8192000F075F81B2000F072F872
:1013F000042000F06FF8102000F06CF8072000F0D7
:1014000069F82A2000F066F8472000F063F83920D8
:1014100000F060F8032000F05DF8062000F05AF8B4
:10142000062000F057F8302000F054F8382000F083
:1014300051F80F2000F04EF8362000F047F8C82091
:1014400000F048F82A2000F041F8002000F042F8AF
:10145000002000F03FF8002000F03CF8EF2000F002
:1014600039F82B2000F032F8002000F033F800208B
:1014700000F030F8012000F02DF83F2000F02AF8AD
:101480003A2000F023F8552000F024F8112000F055
:101490001DF80348FFF77FFA292000F017F810BD68
:1014A000FCBF020010B502210648FFF7A3FB064867
:1014B000FFF771FA02210348FFF79EFB0248FFF78E
:1014C0006AFA10BD00180140FCBF02004FF0C04195
:1014D00008807047014908807047000000000260E2
:1014E00000BFFEE77047704701460020034A50687E
:1014F00020F4404008435060704700000010024054
:1015000029B1064A52690243044B5A6104E0034A76
:1015100052698243014B5A6170470000001002403B
:1015200029B1064AD2690243044BDA6104E0034A56
:10153000D2698243014BDA6170470000001002401B
:1015400029B1064A12690243044B1A6104E0034AB6
:1015500012698243014B1A6170470000001002407B
:1015600029B1064A92690243044B9A6104E0034A96
:1015700092698243014B9A6170470000001002405B
:1015800030B500210022002400232D4D6D6805F0A8
:101590000C0121B1042905D0082923D105E0294DEA
:1015A000056022E0274D05601FE0254D6D6805F4BC
:1015B0007012234D6D6805F48034022505EB9242CC
:1015C0001CB9214D554305600BE01D4D6D6805F4B8
:1015D00000351DB11C4D5543056002E0194D5543C2
:1015E000056002E0174D056000BF00BF144D6D6837
:1015F00005F0F0010909154D6B5C0568DD4045609B
:101600000F4D6D6805F4E061090A104D6B5C45688B
:10161000DD4085600A4D6D6805F46051C90A0B4DC7
:101620006B5C4568DD40C560054D6D6805F4404163
:10163000890B074D6B5CC568B5FBF3F5056130BDE3
:101640000010024000127A0000093D000000002056
:1016500010000020704710B500F002F810BD000027
:101660000CB50020019000903348006840F48030B1
:101670003149086000BF3048006800F40030009035
:101680000198401C0190009818B90198B0F5A06F1E
:10169000F1D12948006800F4003010B10120009019
:1016A00001E0002000900098012843D12348006801
:1016B00040F01000214908600846006820F003004F
:1016C00008600846006840F0020008601A48406858
:1016D000194948600846406848600846406840F438
:1016E000806048600846406820F47C1048600846E6
:1016F000406840F4E81048600846006840F0807098
:10170000086000BF0C48006800F000700028F9D0A5
:101710000948406820F003000749486008464068CF
:1017200040F00200486000BF0348406800F00C0031
:101730000828F9D10CBD0000001002400020024032
:101740007047000010B51348006840F001001149CF
:10175000086008464068104908400E49486008463D
:1017600000680E4908400B4908600846006820F4EC
:10177000802008600846406820F4FE0048604FF46E
:101780001F008860FFF767FF4FF0006004490860A2
:1017900010BD0000001002400000FFF8FFFFF6FE41
:1017A00008ED00E000BFFEE70FB4084B10B504A938
:1017B00002AA039800F01CF8044602A9002000F0D9
:1017C000C1F8204610BC5DF814FB00004519000864
:1017D00002E008C8121F08C1002AFAD170477047FA
:1017E000002001E001C1121F002AFBD17047000058
:1017F0002DE9FF4F89B09B460446002506E02528C9
:101800000BD05A460B999047641C6D1C2078002819
:10181000F5D10DB02846BDE8F08F0027B84601226B
:10182000474900E0074314F8013F203B02FA03F068
:101830000842F7D120782E2819D114F8010F47F06B
:1018400004072A280ED06FF02F022078A0F1300173
:1018500009290CD808EB880102EB410100EB0108D3
:10186000641CF2E70A98641C50F8048B0A902078F4
:101870000028CED0642808D0692806D075281ED04C
:101880005A460B9990476D1C58E00A994FF00A0987
:1018900001C90A91002802DA40422D2102E03905EF
:1018A00004D52B218DF82010012103E0F90704D085
:1018B0002021F7E78A4608AE0DE00021FAE70A99F1
:1018C0004FF00A0901C90A91F7E74946FEF732FDD0
:1018D000303106F8011D0028F7D1ADEB060000F10C
:1018E0002009780701D44FF00108C84502DDA8EBB4
:1018F000090000E000208046002706E008A85A46BC
:10190000C05D0B9990476D1C7F1C5745F6DB04E0CA
:1019100030205A460B9990476D1CB8F10001A8F190
:101920000108F5DC05E016F8010B5A460B999047C3
:101930006D1CB9F10001A9F10109F4DC641C65E733
:10194000092801000A68531C0B60107070470000E2
:1019500000B585B001218805FFF7F2FD00214FF4A5
:101960008000FFF7EDFD01218805FFF7D9FD01217A
:101970000820FFF7F5FD4FF44060ADF800000320AC
:101980008DF802001C208DF803000020ADF808003F
:101990004BF6FF70ADF80A000120ADF80C00800294
:1019A000ADF80E000001ADF810000848019069463E
:1019B0000748FFF794F801A90648FFF735FA012117
:1019C0000448FFF7F0F905B000BD0000A086010053
:1019D000000C01400058004000B587B001211020E4
:1019E000FFF7BEFD1420ADF8180000208DF81B0095
:1019F00006A92348FFF773F801214802FFF7B0FD5D
:101A00000020019001208DF808008DF809004FF4A6
:101A1000602003900020049002208DF8140001A99A
:101A20001848FEF79FFD052301220E211548FEF7F9
:101A3000C1FD052302220C211248FEF7BBFD4FF425
:101A40000040FFF751FD01210E48FEF761FD0D48F2
:101A5000FEF70CFE00BF0B48FEF77AFD0028FAD116
:101A60000848FEF713FE00BF0648FEF767FD002892
:101A7000FAD101210348FEF7FEFD07B000BD0000CA
:101A8000001001400024014086B000BFFFF7A4FF12
:101A9000FEF746FFFFF75CFF00F0A2F8FFF7A2FB9E
:101AA00038A20A210520FFF7D7FA6AE038480488EF
:101AB000458801A8FEF7F0FD142201A93548FEF77C
:101AC00053FB3448B0F9002033A13548FFF76CFED2
:101AD000334A3C210520FFF7BFFA2E48B0F9022017
:101AE00030A12F48FFF760FE2D4A4B210520FFF75C
:101AF000B3FA2848B0F904202CA12948FFF754FE76
:101B0000274A5A210520FFF7A7FA2248B0F90820F2
:101B100028A12348FFF748FE214A69210520FFF745
:101B20009BFA1C48B0F90A2024A11D48FFF73CFE8F
:101B30001B4A78210520FFF78FFA1648B0F90C20D0
:101B400020A11748FFF730FE154A87210520FFF72F
:101B500083FA22461DA11248FFF726FE2A461DA140
:101B60001E48FFF721FE0E4A1E210520FFF774FADA
:101B70001A4A2D210520FFF76FFA41F28830FEF74F
:101B800013FF93E7656C656333333030000000006A
:101B90001400002098000020615F583A202564005E
:101BA00018000020615F593A20256400615F5A3AAD
:101BB00020256400675F583A20256400675F593A22
:101BC00020256400675F5A3A20256400783A202572
:101BD00075000000793A20257500000058000020AB
:101BE00008B50120032302226B210090D020FFF7CB
:101BF000A0F90020022304221B210090D020FFF72F
:101C000098F90020022304221C210090D020FFF725
:101C100090F90020012306226B210090D020FFF7CD
:101C200088F908BD0000000000000000000000006E
:101C300000000000000000183C3C3C181800181878
:101C40000000000000000066666600000000000062
:101C5000000000000000006C6CFE6C6C6CFE6C6C94
:101C6000000000000018183C66060C183060663C46
:101C70001818000000000E1B5B6E30180C76DAD8C6
:101C8000700000000000001C36361C06F66666DC9C
:101C900000000000000000181818000000000000FC
:101CA000000000000000003018180C0C0C0C0C1880
:101CB000183000000000000C181830303030301898
:101CC000180C000000000000006C38FE386C0000AA
:101CD00000000000000000000018187E1818000026
:101CE0000000000000000000000000000000383884
:101CF00030180000000000000000007E000000001E
:101D00000000000000000000000000000000383863
:101D1000000000000000006060303018180C0C0655
:101D20000600000000000078CCECECCCDCDCCC78C9
:101D30000000000000000030383E303030303030DD
:101D4000000000000000003C66666030180C067E53
:101D5000000000000000003C666660386066663C7B
:101D6000000000000000000C0C6C6C6C66FE6060F3
:101D7000000000000000007E0606063E6060301E87
:101D80000000000000000038180C3E666666663CE5
:101D9000000000000000007E60303018180C0C0CB1
:101DA000000000000000003C66666E3C7666663C03
:101DB000000000000000003C666666667C30181C6F
:101DC0000000000000000000003838000000383833
:101DD0000000000000000000003838000000383823
:101DE000301800000000006030180C060C1830603D
:101DF000000000000000000000007E007E000000E7
:101E000000000000000000060C18306030180C06BE
:101E1000000000000000003C66663018180018182A
:101E2000000000000000007EC3C3F3DBDBF303FE11
:101E300000000000000000183C6666667E6666666C
:101E4000000000000000003E6666663E6666663E74
:101E5000000000000000003C666606060666663C60
:101E6000000000000000001E366666666666361ECC
:101E7000000000000000007E0606063E0606067E04
:101E8000000000000000007E0606063E060606066C
:101E9000000000000000003C666606067666667C70
:101EA00000000000000000666666667E6666666684
:101EB000000000000000003C181818181818183C02
:101EC0000000000000000060606060606066663CCA
:101ED00000000000000000666636361E3636666674
:101EE0000000000000000006060606060606067E44
:101EF00000000000000000C6C6EED6D6D6C6C6C694
:101F000000000000000000C6C6CEDEF6E6C6C6C66B
:101F1000000000000000003C666666666666663C7F
:101F2000000000000000003E6666663E06060606EB
:101F3000000000000000003C666666666666663C5F
:101F4000306000000000003E6666663E36666666EB
:101F5000000000000000003C66060C183060663C83
:101F6000000000000000007E181818181818181833
:101F70000000000000000066666666666666663CF5
:101F800000000000000000666666666666663C1833
:101F900000000000000000C6C6C6D6D6D66C6C6C29
:101FA0000000000000000066662C181834666666A3
:101FB00000000000000000666666663C18181818ED
:101FC000000000000000007E606030180C06067EF5
:101FD000000000000000003C0C0C0C0C0C0C0C0C65
:101FE0000C0C3C0000000006060C0C181830306089
:101FF000600000000000003C3030303030303030C5
:1020000030303C0000183C6600000000000000007A
:1020100000000000000000000000000000000000C0
:102020000000FF00001C183000000000000000004D
:102030000000000000000000003C60607C66667CE0
:102040000000000000000006063E66666666663E0A
:102050000000000000000000003C66060606663C2A
:102060000000000000000060607C66666666667CBA
:102070000000000000000000003C66667E06063C92
:1020800000000000000000780C0C0C7E0C0C0C0C06
:102090000000000000000000007C66666666667C4A
:1020A00060603E0000000006063E66666666666684
:1020B0000000000000001818001E18181818187EDC
:1020C0000000000000003030003C30303030303054
:1020D00030301E0000000006066666361E36666654
:1020E000000000000000001E181818181818187EAC
:1020F0000000000000000000007ED6D6D6D6D6C66E
:102100000000000000000000003E6666666666662D
:102110000000000000000000003C66666666663C49
:102120000000000000000000003E66666666663E35
:102130000606060000000000007C66666666667C97
:1021400060606000000000000066760E060606066D
:102150000000000000000000007C06063C60603EBD
:10216000000000000000000C0C7E0C0C0C0C0C7825
:102170000000000000000000006666666666667C7F
:1021800000000000000000000066666666663C18FD
:10219000000000000000000000C6D6D6D6D66C6C49
:1021A00000000000000000000066663C183C666607
:1021B0000000000000000000006666666666663C7F
:1021C00030180F0000000000007E6030180C067E02
:1021D00000000000000000301818180C060C181839
:1021E00018300000000000181818181818181818CF
:1021F000181818000000000C181818306030181853
:10220000180C00000000008EDB71000000000000D0
:102210000000000034220008000000201800000028
:10222000D01700084C220008180000209804000075
:10223000E01700080000000001020304010203048B
:0C22400006070809020406080000000060
:0400000508000131BD
:00000001FF
