:020000040800F2
:100000004005002045010008B5160008630E0008F1
:10001000B1160008BF0A0008011E00080000000019
:100020000000000000000000000000001D18000893
:10003000390D000800000000B716000895190008E7
:100040005F0100085F0100085F0100085F01000810
:100050005F0100085F0100085F0100085F01000800
:100060005F0100085F0100085F0100085F010008F0
:100070005F0100085F0100085F0100085F010008E0
:100080005F0100085F0100085F0100085F010008D0
:100090005F0100085F0100085F0100085F010008C0
:1000A0005F0100085F0100085F0100085F010008B0
:1000B0005F0100085F0100085F0100085F010008A0
:1000C0005F0100085F0100085F0100085F01000890
:1000D0005F0100085F0100085F0100085F01000880
:1000E0005F0100085F0100085F0100085F01000870
:1000F0005F0100085F0100085F0100085F01000860
:100100005F0100085F0100085F0100085F0100084F
:100110005F0100085F0100085F0100085F0100083F
:100120005F0100085F0100085F0100085F0100082F
:10013000DFF80CD000F0DEFB0048004799290008EA
:10014000400500200648804706480047FEE7FEE7D6
:10015000FEE7FEE7FEE7FEE7FEE7FEE7FEE7FEE777
:10016000C519000831010008F0B480EA0102D40F7B
:100170004200B2EB410F02D20246084611464A0045
:1001800042D0C30DDDB2C1F3C752AD1A202D35DA0E
:10019000C1F3160141F4000204B15242C5F1200638
:1001A00002FA06F12A411044B3EBD05F23D0C4B168
:1001B000012DA0EBC35009DCF0BC4FF0004202EA75
:1001C000C352DBB200F5000000F0A0BA400000F11D
:1001D000807000EBC350A0F1807040EAD1704900FC
:1001E00009E0490841EAC071A0EBC35000F50000E6
:1001F000400800EBC350F0BC00F07FBA614201221E
:1002000002EB4101001BF6E7F0BC704781F00041B2
:10021000AAE780F00040A7E780EA010210B502F0EB
:100220000043400022D04A001FD0010E01EB1261B2
:10023000C0F35600C2F3560240F4000042F400023C
:10024000A0FB022000047F39140400D0401C50EAB7
:10025000124001D44000491EC2B20C0604EBD0107B
:10026000401C4008802A02D003E0002010BD20F08E
:100270000100002900DA0020184310BD30B480EAE4
:10028000010202F0004530F0004221F0004013D09E
:1002900090B1C30DD40DC2F31601C0F31600E41AD9
:1002A00041F4000140F400027D34914201D3641C0A
:1002B00000E04900002C02DA30BC002070474FF407
:1002C00000000023914201D3891A034340084FEAFA
:1002D0004101F7D151B1914202D14FF0004105E007
:1002E00002D24FF0010101E06FF0010103EBC450B5
:1002F000284430BC00F001BA2DE9FE4F804681EA67
:100300000300C00F0C46009021F0004123F000458F
:10031000B8EB0200A94105D24046214690461C4652
:100320000B46024623F00040104347D0270DC7F389
:100330000A00C3F30A510290401A019040286BDA78
:10034000C3F3130040F4801B0098924620B10023B1
:10035000D2EB030A63EB0B0B01985946C0F1400244
:10036000504600F0A9F906460D4650465946019AF6
:1003700000F0B1F910EB08006141002487EA115246
:1003800084EAE7731A4340D0009A62B3019A012AC3
:100390004FEA075215DC001B61EB02014FF00042EF
:1003A00002EA0752CDE90042001C41F580113246B5
:1003B0002B4600F0E8F903B0BDE8F08F4046214637
:1003C000F9E7001B61EB0201001C41F580130018E6
:1003D0005B412018A2F5001747EB030140EAD570F6
:1003E000B6196D4111E06D084FEA360645EAC07551
:1003F0004FEA0752001B61EB0201001C41F580111E
:1004000049084FEA30000019514132462B4603B0EB
:10041000BDE8F04F00F0A8B9009801224000002389
:10042000D0EB020263EBE073009821464FEAE074E0
:10043000B8EB000061EB0401E9E783F000435BE700
:1004400081F0004158E72DE9FE4F81EA030404F0F2
:10045000004421F0004100944FF0000B23F00043D2
:1004600050EA01045ED052EA03045BD0C3F30A549D
:10047000C1F30A552C44A4F2F3340194A0FB0254B6
:10048000C1F3130141F48011C3F3130343F4801348
:1004900001FB024400FB034E840A970A44EA81549C
:1004A00047EA8357A4FB076802958D0A05FB078579
:1004B0004FEA932C04FB0C542705029D4FEA065883
:1004C00047EA1637B5EB08056EEB070C870E920E60
:1004D00047EA811742EA8312A7FB0201B6EB0B0140
:1004E00064EB00042B0D43EA0C335E1844EB1C5004
:1004F000DA465146E7FB0201C5F313044FEA0B331A
:1005000043EA14534FEA0432019C43EA0603A4F180
:100510000C040294009CCDE900B400F034F903B05F
:10052000BDE8F08F00200146F9E72DE9F04D81EAA2
:10053000030404F0004B21F0004514464FF0000A7C
:1005400023F0004150EA050220D054EA01021DD0F8
:10055000C5F30A570246C5F31303C1F31300C1F3F1
:100560000A5640F4801543F48013A7EB0608101BCD
:10057000D64608F2FD3873EB050002D308F10108F6
:1005800001E092185B41B8F1000F03DA0020014648
:10059000BDE8F08D00204FF48011064684460EE041
:1005A000171B73EB050705D3121B63EB050306430B
:1005B0004CEA010C49084FEA300092185B4150EABE
:1005C0000107EDD152EA030012D082EA040083EA67
:1005D0000501084305D0101BAB4106D201220023C0
:1005E00006E000224FF0004302E06FF001025310DA
:1005F0001AEB06004CEB085110EB0A0041EB0B0123
:10060000BDE8F04D00F0B0B8C10F80EAE0700844DA
:10061000CA079623002100F079B800F0004230F0BC
:1006200000400AD0C10D01F56071C0F3160042EA26
:100630000151C2084007114370470020014670472E
:1006400001F0004330B421F0004150EA010206D02D
:100650000A0DA2F56072C1F31301002A02DC30BC5E
:1006600000207047440F44EAC104C100E01830BCC8
:1006700000EBC25000F041B8002801DBC0F100409F
:10068000002901DBC1F100418142704730B50B46C2
:10069000014600202022012409E021FA02F59D42B2
:1006A00005D303FA02F5491B04FA02F52844151E86
:1006B000A2F10102F1DC30BD202A04DB203A00FA6D
:1006C00002F1002070479140C2F1200320FA03F3A9
:1006D000194390407047202A06DBCB17203A41FA95
:1006E00002F043EAE07306E041FA02F3D040C2F1BF
:1006F000200291400843194670470029A8BF70475F
:10070000401C490008BF20F00100704710B4B0FA47
:1007100080FC00FA0CF050EA010404BF10BC7047E2
:1007200049B1CCF1200421FA04F411FA0CF118BFFC
:10073000012121430843A3EB0C01CB1D4FEA0061CB
:100740004FEA102042BF002010BC704700EBC3509E
:1007500010440029A4BF10BC7047401C490008BFCA
:1007600020F0010010BC704710B5141E73F1000496
:1007700008DA401C41F1000192185B411A4301D193
:1007800020F0010010BD2DE9F04D92469B4611B1BD
:10079000B1FA81F202E0B0FA80F220329046FFF71F
:1007A0008BFF04460F4640EA0A0041EA0B0153461C
:1007B0005A46084313D0114653EA010019D0C8F134
:1007C0004002504600F0A8F805460E4650465946ED
:1007D0004246FFF771FF084305D0012004E02046A0
:1007E0003946BDE8F08D0020054346EAE0762C430B
:1007F00037430A986305E40AA0EB08000022FD0ACB
:1008000044EA47540A3002D500200146E9E70105D1
:1008100010196941DDE9084500196941BDE8F04D4D
:10082000A2E770B521F0004303430CD0C1F30A5591
:100830000024D5EB040564EB0403D617AD1AB341CD
:1008400002DB0020014670BD201841EB025170BD53
:100850002DE9F04D00231A461B1A8A4103DB0020C4
:100860000146BDE8F08DC1F30A52C1F3130141F412
:1008700080154FF0000BD10702D100186D41521EB8
:100880000027044640F2FF11384601EB620A3E465B
:100890008046024600204FF4801100F03DF8C21956
:1008A0007141BB1846EB0100B4EB030C75EB000C77
:1008B00004D3E41A65EB000517460E46241908F127
:1008C00001006D4180463428E3DDF91946EB06004E
:1008D000091BA84103D24FF0FF32134601E000226A
:1008E00013461BEB070046EB0A51BDE8F04DFFF73E
:1008F0003BBF0000064C074D06E0E06840F00103F6
:1009000094E8070098471034AC42F6D3FFF714FC84
:100910000831000828310008202A04DB203A21FA97
:1009200002F00021704721FA02F3D040C2F1200208
:10093000914008431946704721B1826842F0010294
:10094000826003E0826822F001028260704721B178
:10095000826842F48072826003E0826822F48072CE
:1009600082607047014600208A6802F004020AB1E2
:10097000012000E000207047014600208A6802F054
:1009800008020AB1012000E00020704730B502469D
:100990000020002350680F4C20400D790C6844EA79
:1009A00005242043506090680B4C2040D1E902544C
:1009B0002C434D7944EA450420439060D06A20F4EA
:1009C00070000C7C641EE4B2234340EA0350D06202
:1009D00030BD0000FFFEF0FFFDF7F1FFF0B504466B
:1009E0000D4600200021092D11DDE068A5F10A0661
:1009F00006EB4607072606FA07F18843A5F10A0623
:100A000006EB460603FA06F10843E0600CE02069B5
:100A100005EB4507072606FA07F1884305EB45066F
:100A200003FA06F108432061072A0FDA606B561EAD
:100A300006EB86071F2606FA07F18843561E06EBCB
:100A4000860605FA06F10843606322E00D2A0FDAF4
:100A5000206BD61F06EB86071F2606FA07F1884390
:100A6000D61F06EB860605FA06F10843206310E060
:100A7000E06AA2F10D0606EB86071F2606FA07F1CB
:100A80008843A2F10D0606EB860605FA06F1084337
:100A9000E062F0BD816841F008018160704721B1DA
:100AA000826842F4A002826003E0826822F4A0021D
:100AB00082607047816841F004018160704700BF27
:100AC000FEE7000000B585B0684600F031FE00206A
:100AD00000F098FE6FF0040000F016FF002000F018
:100AE0005AFF09490198B0FBF1F0084908704FF42A
:100AF000FA510198B0FBF1F005490880142001F08B
:100B0000BBFC05B000BD000000127A009C00002074
:100B10009E00002021B1026842F00102026004E060
:100B200002684FF6FE731A400260704701684FF684
:100B3000FE72114001600021016041608160C1606E
:100B40004B49884208D14A490839496841F00F01A8
:100B5000474A083A51608AE045491431884208D131
:100B600043490839496841F0F001414A083A516067
:100B70007DE03F492831884208D13D49083949681C
:100B800041F470613A4A083A516070E038493C31AA
:100B9000884208D136490839496841F47041344ADD
:100BA000083A516063E032495031884208D13049F7
:100BB0000839496841F470212D4A083A516056E0DD
:100BC0002B496431884208D129490839496841F4E0
:100BD0007001274A083A516049E025497831884236
:100BE00008D123490839496841F07061204A083A20
:100BF00051603CE01F49884206D1011F096841F05D
:100C00000F01021F116032E01A491431884208D1E5
:100C10001849091F096841F0F001164A121F1160B6
:100C200025E014492831884208D11249091F096872
:100C300041F470610F4A121F116018E00D493C31F8
:100C4000884208D10B49091F096841F47041094ADB
:100C5000121F11600BE007495031884207D1054946
:100C6000091F096841F47021024A121F1160704780
:100C700008000240080402401AB103680B430360F5
:100C800002E003688B430360704710B500220268DE
:100C900047F6F0739A430C6A8B6823430C6923432D
:100CA0004C6923438C692343CC6923434C6A234317
:100CB0008C6A23431A430260CB6843600B688360ED
:100CC0004B68C36010BD000000B58BB00121084621
:100CD00000F0FEFC1548FFF729FF15480090154865
:100CE0000190022003900020029004908020059043
:100CF000C000069007902020089000020990002074
:100D00000A9069460948FFF7C0FF012202210748FF
:100D1000FFF7B2FF012106484C38FFF718FE01210A
:100D20000248FFF7F7FE0BB000BD000008000240CC
:100D30004C2401401400002070472DE9F041024688
:100D400000250026002000230024002791F803C07E
:100D50000CF00F0591F803C00CF0100CBCF1000F63
:100D600003D091F802C04CEA050591F800C0BCF12F
:100D7000000F31D0146800202BE04FF0010C0CFA6A
:100D800000F3B1F800C00CEA03069E4220D18300B4
:100D90004FF00F0C0CFA03F7BC4305FA03FC4CEAC6
:100DA000040491F803C0BCF1280F06D14FF0010CE8
:100DB0000CFA00FCC2F814C00AE091F803C0BCF1C0
:100DC000480F05D14FF0010C0CFA00FCC2F810C01E
:100DD000401C0828D1D31460B1F800C0BCF1FF0F4B
:100DE00034DD546800202EE000F1080C4FF00108BB
:100DF00008FA0CF3B1F800C00CEA03069E4221D1B8
:100E000083004FF00F0C0CFA03F7BC4305FA03FC08
:100E10004CEA040491F803C0BCF1280F05D100F19D
:100E2000080C08FA0CF8C2F8148091F803C0BCF161
:100E3000480F07D100F1080C4FF0010808FA0CF830
:100E4000C2F81080401C0828CED35460BDE8F08161
:100E50000246002093680B400BB1012000E0002007
:100E6000704700BFFEE721B1028842F48062028031
:100E700004E002884FF6FF331A400280704770B5D5
:100E800002460024002500230020958A138B1B04B2
:100E900045EA030626F07F4404EA01068E4201D1AA
:100EA000012000E0002070BD21B1028842F0010263
:100EB000028004E002884FF6FE731A4002807047F9
:100EC00000B585B00121880500F012FC0121082041
:100ED00000F01EFC4FF44060ADF8100001208DF8CA
:100EE00012001C208DF8130004A91048FFF725FFFD
:100EF0004FF48060ADF80A000001ADF80C000C481A
:100F000000904BF6FF70ADF806000020ADF804002D
:100F10000120ADF808006946064800F043F80121B9
:100F20000448FFF7C1FF05B000BD0000000C014000
:100F3000A08601000058004021B1028842F480726E
:100F4000028004E002884FF6FF631A400280704777
:100F500021B1028842F40072028004E002884FF658
:100F6000FF531A40028070470CB502460020002350
:100F70000193009300920B0F019321F07F41019B9D
:100F80001BB1009B1433009303E0090C009B183342
:100F90000093009B1B680B400BB1012000E0002078
:100FA0000CBD00002DE9F04385B004460D46002637
:100FB000B1460427DFF8CC80A6884FF6C070064003
:100FC000684600F0B5FBDDF808802F48B8FBF0F06C
:100FD0001FFA80F946EA0906A68020884FF6FE71BE
:100FE0000840208000262949286888420CD82868B3
:100FF0004000B8FBF0F087B2042F00DA04273E432C
:1010000009F10100208427E0E8884BF6FF7188424F
:1010100006D1286800EB4000B8FBF0F087B209E089
:10102000286800EBC00101EB0010B8FBF0F087B2BC
:1010300047F48047C7F30B0008B947F0010747F4AE
:10104000004006434FF4967009FB00F04FF47A71AC
:1010500090FBF1F0401C2084A683208840F0010022
:10106000208026884FF6F5300640A8886989084315
:1010700006432680A88929890843208105B0BDE858
:10108000F083000000127A0040420F00A0860100A9
:101090000146088AC0B2704712B141F0010102E076
:1010A0004FF6FE73194001827047018270470000BD
:1010B00008B50121082000F02BFB2320ADF800002B
:1010C00010208DF8030003208DF8020069460648C1
:1010D000FFF733FE202000F009F8012000F006F8A9
:1010E000022000F003F808BD000C0140014908602F
:1010F00070470000100C0140014908607047000073
:10110000140C01400FB5A5B0FE4827990068FFF701
:1011100083F80D90FC4826990068FFF77DF80B9046
:10112000FA48006880F0004009902599FFF774F8AC
:101130000A900B99FFF76AF80C900D99FFF766F883
:101140004FF07C510E90FFF767F81F90ED482699FD
:101150000068FFF761F80D90EB4827990068FFF7EA
:101160005BF80B90EA4801682598FFF755F80A905C
:101170000B99FEF7F9FF0C900D99FFF747F84FF028
:101180007C510E90FFF748F81E90DE4801682598C4
:10119000FFF742F80D90DD4827990068FFF73CF80B
:1011A0000B90DB4826990068FFF736F80A900B99F8
:1011B000FFF72CF80C900D99FEF7D6FF4FF07C51FD
:1011C0000E90FFF729F81D90CF4801682598FFF78A
:1011D00023F80D90CD4826990068FFF71DF80B9075
:1011E000CB4827990068FFF717F80A900B99FEF78C
:1011F000BBFF0C900D99FFF709F84FF07C510E9052
:10120000FFF70AF81C9000212898FFF735FA09D15A
:1012100000212A98FFF730FA04D100212B98FFF71C
:101220002BFA7DD02B990846FEF7F6FF0D902A99F0
:101230000846FEF7F1FF0B9028990846FEF7ECFFF1
:101240000A900B99FEF790FF0C900D99FEF78CFF1A
:101250000E9001F021FB249024992898FEF7DCFFE2
:10126000289024992A98FEF7D7FF2A9024992B9842
:10127000FEF7D2FF2B90A64801684FF08040FEF7A2
:10128000CBFF1B90A14801684FF08040FEF7C4FFE0
:101290001A909D4801684FF08040FEF7BDFF1990FD
:1012A000984801684FF08040FEF7B6FF18909848C4
:1012B00001684FF08140FEF7AFFF17909348016837
:1012C0004FF08140FEF7A8FF16908F4801684FF05D
:1012D0008140FEF7A1FF15908C4801684FF08240D5
:1012E000FEF79AFF1490884801684FF08240FEF79D
:1012F00093FF1390864801680068FEF78DFF1290F7
:10130000824801680068FEF787FF11907E480168F7
:101310000068FEF781FF10907A480168006800E0DD
:1013200044E1FEF779FF0F902A991A98FEF774FFAF
:101330000E9011991798FEF76FFF0C902899199845
:10134000FEF76AFF0A9010991798FEF765FF09905B
:101350000A99FEF709FF0B900C99FEF705FF0D9017
:101360000E99FEF753FF23902B991698FEF754FF22
:101370000E9010991498FEF74FFF0C901199149845
:10138000FEF74AFF0A902A991B98FEF745FF07903F
:101390004FF081401299FEF73FFF03905B480168D0
:1013A0000398FEF739FF059028991898FEF734FF47
:1013B00003900F991698FEF72FFF02900399FEF7FE
:1013C00025FF04900599FEF7CFFE06900799FEF7DA
:1013D0001DFF08901699FEF719FF09900A99FEF76C
:1013E000C3FE0B900C99FEF7BFFE0D900E99FEF711
:1013F000BBFE22902B991598FEF70EFF0E901099C8
:101400001398FEF709FF0C9011991398FEF704FF4B
:101410000A902A991898FEF7FFFE07900F991598E1
:10142000FEF7FAFE059028991B98FEF7F5FE03904B
:101430004FF081401299FEF7EFFE019032480168AB
:101440000198FEF7E9FE02900399FEF78DFE0490E5
:101450000599FEF789FE06900799FEF7D7FE0890DA
:101460001599FEF7D3FE09900A99FEF77DFE0B90C1
:101470000C99FEF779FE0D900E99FEF775FE2190FE
:101480002A991998FEF7C8FE0E904FF081401099E6
:10149000FEF7C2FE0A901B4801680A98FEF7BCFEE0
:1014A0000C9028991A98FEF7B7FE0A904FF08140E9
:1014B0001199FEF7B1FE0890124801680898FEF7EE
:1014C000ABFE09900A99FEF7A1FE0B900C99FEF76E
:1014D0004BFE0D900E99FEF799FE2090209908463C
:1014E000FEF79AFE0D9021990846FEF795FE0B90A7
:1014F00022990846FEF790FE099023990846FEF7C8
:101500008BFE07E0F4000020F0000020EC0000203B
:10151000E800002008900999FEF726FE0A900B9932
:10152000FEF722FE0C900D99FEF71EFE0E9001F0C4
:10153000B3F92490DDE92301FEF76EFE2390249990
:101540002298FEF769FE229024992198FEF764FE06
:10155000219024992098FEF75FFE20904E48239911
:101560000068FEF759FE0E901F99FEF752FE1F907D
:10157000494822990068FEF74FFE0E901E99FEF72B
:1015800048FE1E90444821990068FEF745FE0E90E3
:101590001D99FEF73EFE1D903F4820990068FEF71A
:1015A0003BFE0E901C99FEF734FE1C903B491F98A1
:1015B000FEF732FE0E903A4801680E98FEF7D4FD11
:1015C0003749086035491E98FEF726FE0E903548CB
:1015D00001680E98FEF7C8FD324908602F491D9832
:1015E000FEF71AFE0E90304801680E98FEF7BCFD1B
:1015F0002D49086029491C98FEF70EFE0E902B48D5
:1016000001680E98FEF7B0FD284908600846016899
:101610000068FEF701FE0D90234801680068FEF7A0
:10162000FBFD0B901F4801680068FEF7F5FD09906F
:101630001B4801680068FEF7EFFD08900999FEF766
:1016400093FD0A900B99FEF78FFD0C900D99FEF714
:101650008BFD0E9001F020F9249011482499006828
:10166000FEF7DAFD0E4908600E4824990068FEF77F
:10167000D3FD0C4908600C4824990068FEF7CCFDA6
:1016800009490860094824990068FEF7C5FD074923
:10169000086029B000BD0000E40000200AD7A33B89
:1016A000E8000020EC000020F0000020F400002002
:1016B00000BFFEE77047704701460020034A5068AC
:1016C00020F4404008435060704700000010024082
:1016D00029B1064A52690243044B5A6104E0034AA5
:1016E00052698243014B5A6170470000001002406A
:1016F00029B1064AD2690243044BDA6104E0034A85
:10170000D2698243014BDA61704700000010024049
:1017100029B1064A92690243044B9A6104E0034AE4
:1017200092698243014B9A617047000000100240A9
:1017300030B500210022002400232D4D6D6805F0F6
:101740000C0121B1042905D0082923D105E0294D38
:10175000056022E0274D05601FE0254D6D6805F40A
:101760007012234D6D6805F48034022505EB92421A
:101770001CB9214D554305600BE01D4D6D6805F406
:1017800000351DB11C4D5543056002E0194D554310
:10179000056002E0174D056000BF00BF144D6D6885
:1017A00005F0F0010909154D6B5C0568DD404560E9
:1017B0000F4D6D6805F4E061090A104D6B5C4568DA
:1017C000DD4085600A4D6D6805F46051C90A0B4D16
:1017D0006B5C4568DD40C560054D6D6805F44041B2
:1017E000890B074D6B5CC568B5FBF3F5056130BD32
:1017F0000010024000127A0000093D0000000020A5
:101800001000002001460020034A506820F0F0003C
:10181000084350607047000000100240704710B548
:1018200000F002F810BD00000CB5002001900090FF
:101830003348006840F480303149086000BF3048C8
:10184000006800F4003000900198401C019000985E
:1018500018B90198B0F5A06FF1D12948006800F4DB
:10186000003010B10120009001E0002000900098AD
:10187000012843D12348006840F010002149086046
:101880000846006820F0030008600846006840F041
:10189000020008601A4840681949486008464068D4
:1018A00048600846406840F48060486008464068E8
:1018B00020F47C1048600846406840F4E810486016
:1018C0000846006840F08070086000BF0C4800685F
:1018D00000F000700028F9D00948406820F00300AB
:1018E000074948600846406840F00200486000BF71
:1018F0000348406800F00C000828F9D10CBD000036
:101900000010024000200240042808D14FF0E021DE
:10191000096941F004014FF0E022116107E04FF046
:10192000E021096921F004014FF0E02211617047C4
:10193000012808D14FF0E021096941F001014FF081
:10194000E02211610EE0811C41B94FF0E0210969EC
:1019500021F001014FF0E022116103E000214FF07E
:10196000E0229161704710B501460022002300205B
:10197000CB10022B03D14FF0E024226902E04FF09C
:10198000E024E26901248C4014400CB1012000E005
:10199000002010BD704740B14FF0E021096941F0CF
:1019A00002014FF0E022116107E04FF0E0210969E8
:1019B00021F002014FF0E022116170474FF0E02169
:1019C0004861704710B51348006840F001001149A4
:1019D000086008464068104908400E4948600846BB
:1019E00000680E4908400B4908600846006820F46A
:1019F000802008600846406820F4FE0048604FF4EC
:101A00001F008860FFF70BFF4FF00060044908607B
:101A100010BD0000001002400000FFF8FFFFF6FEBE
:101A200008ED00E021B1028842F00102028004E0EA
:101A300002884FF6FE731A400280704770B500248A
:101A400000220023058C4FF6EF7635400584028C8A
:101A50008388048B48F6FF752C404FF6FF452C40D9
:101A60000D884FF6FF7606EA05252C434FF6DF7505
:101A70002A400D8906EA05152A434D8806EA051510
:101A80002A43154DA84202D0144DA8421DD14FF64D
:101A90007F752A404D894FF6FF7606EA05152A43E1
:101AA0004FF6BF752A408D8806EA05152A434FF682
:101AB000FF352B404FF2FF752B408D8906EA8505D7
:101AC0002B43CD8906EA85052B4383800483CD888B
:101AD0000587028470BD0000002C014000340140E5
:101AE0000A460021018B4FF2FF7319404FF6FF7336
:101AF00003EA0223194301837047000070B50024F4
:101B000000220023058C4FF6FF6635400584028CC9
:101B10008388848B4FF68F752C404FF6FC752C40D4
:101B20000D882C434FF6FF552A400D894FF6FF765E
:101B300006EA05252A434D8806EA05252A43154D60
:101B4000A84202D0144DA8421DD14FF2FF752A4081
:101B50004D894FF6FF7606EA05252A434FF6FF35F5
:101B60002A408D8806EA05252A434EF6FF752B404C
:101B70004DF6FF752B408D8906EA05152B43CD895F
:101B800006EA05152B4383808483CD8885870284EC
:101B900070BD0000002C0140003401400A460021C5
:101BA000818B4FF6F7731940114381837047000012
:101BB00070B5002200230024058C4EF6FF763540D8
:101BC0000584038C8488828B48F6FF752A404FF683
:101BD000FF452A400D884FF6FF7606EA05252A4381
:101BE0004DF6FF752B400D8906EA05352B434D88D0
:101BF00006EA05352B430B4DA84202D00A4DA842F8
:101C000008D14BF6FF752C408D894FF6FF7606EA1A
:101C100085152C4384808283CD88A0F840500384AE
:101C200070BD0000002C0140003401400A46002134
:101C3000818B4FF2FF7319404FF6FF7303EA0223C3
:101C40001943818370470000002202881D4B98428F
:101C50000ED01D4B98420BD0B0F1804F08D01B4BDB
:101C6000984205D01A4B984202D01A4B984204D1A0
:101C70004FF68F731A404B881A43174B984207D080
:101C8000164B984204D04FF6FF431A40CB881A43B4
:101C900002808B8883850B8803850A4B98420BD082
:101CA000094B984208D00E4B984205D00D4B9842F4
:101CB00002D00D4B984201D10B7A03860123838217
:101CC00070470000002C0140003401400004004037
:101CD00000080040000C00400010004000140040CC
:101CE00000400140004401400048014021B1828988
:101CF00042F40052828104E082894DF6FF731A405B
:101D00008281704702460020B1F5007F00D100BFFC
:101D100013880B400BB1012000E000207047000049
:101D20002DE9F04786B005460E460024A24600BFC6
:101D3000A1460027B08900B100BF2F462C8A4CF67F
:101D4000FF700440F08804432C82AC894EF6F310F7
:101D50000440B08831890843718908430443AC8149
:101D6000AC8A4FF6FF400440B0890443AC8201A81E
:101D7000FFF7DEFC1F48874202D1DDF810A001E02A
:101D8000DDF80CA0A88900F4004040B10AEBCA00BD
:101D900000EB0A1031684900B0FBF1F807E00AEBEC
:101DA000CA0000EB0A1031688900B0FBF1F864202A
:101DB000B8FBF0F004012009642101FB1089A88917
:101DC00000F4004040B1322000EBC900B0FBF1F05C
:101DD00000F00700044308E0322000EB0910642102
:101DE000B0FBF1F000F00F0004432C8106B0BDE819
:101DF000F087000000380140C1F30802828070477C
:101E000000BFFEE70FB4054B10B503A9044A0298C2
:101E100000F094F810BC5DF814FB0000C524000825
:101E2000F8000020490050EAC12018BF04204A0DE4
:101E300018BF40F0010040F2FF72B2EB515F08BFE3
:101E400040F00200012808BF052070472DE9F0414D
:101E50004F1E00EBC7010446D1E9000115461E469E
:101E600037F006020DD02A463346FEF7ECFA7F1E05
:101E700004EBC703D3E90023FEF73EFA37F006026E
:101E8000F1D1022F25D0042F13D0062F18BFBDE8A3
:101E9000F0812A463346FEF7D6FAD4E90A23FEF744
:101EA0002BFA2A463346FEF7CEFAD4E90823FEF78A
:101EB00023FA2A463346FEF7C6FAD4E90623FEF78C
:101EC0001BFA2A463346FEF7BEFAD4E90423FEF78E
:101ED00013FA2A463346FEF7B6FAD4E90223FEF790
:101EE0000BFA2A463346FEF7AEFAD4E90023BDE8E2
:101EF000F041FEF701BA0122FEF793BCFEF7FCB9F0
:101F0000024A00201107FEF78CBC000001FDFFFF14
:101F100002E008C8121F08C1002AFAD170477047B2
:101F2000002001E001C1121F002AFBD17047000010
:101F30000149086070470000FC0000202DE9FF4FB8
:101F400089B09B460446002506E025280BD05A465A
:101F50000B999047641C6D1C20780028F5D10DB0BA
:101F60002846BDE8F08F0027B8460122474900E027
:101F7000074314F8013F203B02FA03F00842F7D16F
:101F800020782E2819D114F8010F47F004072A28C9
:101F90000ED06FF02F022078A0F1300109290CD863
:101FA00008EB880102EB410100EB0108641CF2E739
:101FB0000A98641C50F8048B0A9020780028CED030
:101FC000642808D0692806D075281ED05A460B9977
:101FD00090476D1C58E00A994FF00A0901C90A910F
:101FE000002802DA40422D2102E0390504D52B21D8
:101FF0008DF82010012103E0F90704D02021F7E734
:102000008A4608AE0DE00021FAE70A994FF00A0966
:1020100001C90A91F7E74946FEF738FB303106F867
:10202000011D0028F7D1ADEB060000F1200978076B
:1020300001D44FF00108C84502DDA8EB090000E01B
:1020400000208046002706E008A85A46C05D0B998C
:1020500090476D1C7F1C5745F6DB04E030205A4644
:102060000B9990476D1CB8F10001A8F10108F5DC4F
:1020700005E016F8010B5A460B9990476D1CB9F113
:102080000001A9F10109F4DC641C65E709280100DD
:102090002DE9F84F04460D4621F0004000917349A8
:1020A000814211DC7249884201DC06D12CB1204604
:1020B0002946BDE8F84FFFF71EBF6E48002DCCBF84
:1020C0006D496E49BDE8F88F6D49814211DD6D495A
:1020D0008142D8BF4FF0FF366DDD20462946FFF71D
:1020E000A1FE042808BFFFF70BFF20462946BDE8E4
:1020F000F88F6549654F25F00045814233DD64491D
:10210000814219DD002632464FF0804320462946A1
:10211000FEF7F2F880468A46012220462946FEF75D
:1021200080FB00223B46FEF788F942465346FEF705
:10213000FCF904460D463EE001260022BA463B4625
:1021400020462946FEF7D8F880460F46002253461F
:1021500020462946FEF771F942463B46FEF7E5F96F
:1021600004460D4627E04B4981421BDDDFF828A1DC
:1021700002260022534620462946FEF764F9002233
:102180003B46FEF7B9F880460F46002253462046EC
:102190002946FEF752F942463B46FEF7C6F9044689
:1021A0000D4608E0032622462B4600203B49FEF759
:1021B000BCF904460D4622462B4610461946FEF74A
:1021C00042F98B46824602460B46FEF73CF907462B
:1021D0000246334888460B4606217844FFF736FE10
:1021E00052465B46FEF72FF982462E488B463A460A
:1021F000434605217844FFF729FE3A464346FEF759
:1022000022F902460B46002E504659460CDAFEF7DC
:1022100073F822462B46FEF716F901B022462B46EC
:10222000BDE8F04FFEF70CB9FEF766F822462B46E4
:10223000FEF709F91C4A7A4402EBC603D3E90023EE
:10224000FEF7FBF822462B46FEF7F7F8174A7A44CA
:1022500002EBC603D3E90023FEF7F2F8009A002A46
:10226000B8BF81F00041BDE8F88F000000001044C5
:102270000000F07F182D4454FB21F93FFB21F9BFEA
:102280000000DC3F0000203E0000F33F0000F03F74
:102290000000E63F008003400000F83F0000F0BF70
:1022A000F20E0000B00E00004E0E0000160E0000F0
:1022B0002DE9F04D9446CCF1000423F000464CEAA1
:1022C0000404524F46EAD4749A46884621F00042EC
:1022D000BC4206D8454240EA050442EAD474BC42F6
:1022E00004D9BDE8F04D6246FFF708BEAAF140559B
:1022F000A5F17F6555EA0C040BD0022404EAAA7408
:10230000434DDFF810E144EAD87452EA000B04D0E0
:102310000CE0BDE8F04DFFF7BBBE002C14BF012C54
:10232000BDE8F08D022C30D0032C32D056EA0C0BD5
:102330000AD0BE4220D1BA4209D126F0804622F00E
:1023400080423346114617E000291ADB25E0DFF80A
:10235000C8B0FB44002C04BFDBE90001BDE8F08DF0
:10236000012C02BFDBE9000181F00041BDE8F08DE6
:10237000022C0AD0032C0CD0BA4212D1B8F1000FB3
:102380000BDA23482549BDE8F08D28462449BDE8ED
:10239000F08D28467146BDE8F08D1D482149BDE805
:1023A000F08D921B12153C2AC4BF19481D490EDC42
:1023B000BAF1000FBEBF12F13C0F0020014606DB50
:1023C0006246FEF7B2F821F00041FFF761FE002CF3
:1023D00008BFBDE8F08D012C04BF81F00041BDE8CD
:1023E000F08D114A114B022C07D0FEF726F82A4631
:1023F000BDE8F04D0A4BFEF720B8FEF71EF82A465E
:10240000BDE8F04D064BFEF71BB800000000F07F62
:10241000182D4454FB2109C0AA0D0000FB21F9BF6F
:10242000FB210940FB21F93F075C143326A6A13CA0
:1024300008B501210420FFF76BF90120ADF8000079
:1024400004208DF8030069460948FEF776FC012157
:102450001020FFF75DF94FF40050ADF800000420A4
:102460008DF8030069460348FEF767FC08BD0000CD
:10247000000801400010014070B504460F48008874
:1024800000FB04F5B5F1807F01D36FF07F4528464E
:10249000FFF794FA0020FFF74BFA0120FFF748FA04
:1024A00000BF1020FFF75FFA054908700846007862
:1024B0000128F6D1C01EFFF73BFA70BD9E00002038
:1024C000A000002070B504460D460F4890F90000AA
:1024D000401C08B9204670BD00BF0C490A4A92F959
:1024E000002051F822004021FFF70CFC0028F4D016
:1024F000E1B2064A044B93F9003052F82300FFF78B
:102500007BFC2046E7E70000E0000020A40000205C
:10251000002000BF07E0054931F81010044A22F8F6
:102520001010411CC8B20228F5DB704714000020CF
:10253000180000202DE9F04F8FB0944801689448AE
:102540000068FDF769FE06469248016892480068F7
:10255000FDF762FE07463146FDF758FE05464FF08F
:102560008041FDF759FE04468A48016887480068A3
:10257000FDF752FE06468848016885480068FDF769
:102580004BFE07463146FDF7EFFD05464FF0804113
:10259000FDF742FE81467F4801680068FDF73CFE7A
:1025A00007467A4801680068FDF736FE80467A489B
:1025B00001680068FDF730FE8346754801680068D1
:1025C000FDF72AFE59460D90FDF720FE06464146CE
:1025D000FDF71CFE05463946FDF7C6FD824651460D
:1025E0005046FDF719FE214601902046FDF714FEE6
:1025F00000900199FDF7B8FD8346FEF70EF8CDE98E
:10260000020100F075FCCDE906014846FEF705F829
:10261000CDE90401DDE90623FDF787FFCDE90801D7
:10262000FFF736FD054600225C4BFDF70CFF5C4AC8
:102630005C4BCDE90A01FDF778FF5B4A5B4BCDE9C6
:102640000C01FDF7FAFE0746FDF7FAFF584908604E
:1026500051465046FDF7E0FD494601904846FDF7DA
:10266000DBFD00900199FDF77FFD8346FDF7D5FF67
:10267000074600F03DFC05460E462046FDF7CDFF1F
:102680002A463346CDE90201FDF74FFFCDE90401AB
:10269000FFF7FEFC81F000410022404BCDE906012E
:1026A000FDF7D1FE3E4A3F4BCDE90801FDF73DFF66
:1026B000404A414BCDE90A01FDF7BFFECDE90C01CF
:1026C000FDF7BEFF3A494860334801684FF080404B
:1026D000FDF7A2FD0490304801680498FDF79CFDC9
:1026E00005902B4801684FF08040FDF795FD049060
:1026F000274801680498FDF78FFD83460599FDF78B
:1027000033FD80464FF07E51FDF780FD0746FDF713
:1027100084FFCDE908011E4801684FF08040FDF7B5
:102720007BFD05901B4801680598FDF775FD804607
:10273000194801684FF08040FDF76EFD0590134881
:1027400001680598FDF768FD83464146FDF75EFD8B
:102750000746FDF762FFCDE90601DDE90823FFF733
:10276000A7FD00220D4BCDE90A01FDF76CFE0546E1
:102770000B4A0C4BFDF7D9FECDE90C01FDF760FFCC
:102780000B4988600FB0BDE8F08F0000F00000201A
:10279000E8000020F4000020EC00002000806640EB
:1027A000EA2E4454FB2109404772F90FE93701C072
:1027B00028010020E9482EFF217D07C010B51148EF
:1027C000B0F90000FDF720FF04460F49FDF756FD64
:1027D0000E4908600E48B0F90000FDF715FF0446E9
:1027E0000C49FDF74BFD0C4908600C48B0F900009E
:1027F000FDF70AFF04460A49FDF740FD0949086054
:1028000010BD000022000020004480464800002047
:1028100024000020002680464C00002026000020D6
:1028200000B081465000002010B51449B1F90010E5
:10283000A1F13700FDF7E8FE04461149FDF71EFD42
:10284000104908601049B1F90010A1F10800FDF726
:10285000DBFE04460A49FDF711FD0C4908600C49EE
:10286000B1F9001001F10D00FDF7CEFE0446044958
:10287000FDF704FD0749086010BD00001C000020A2
:1028800000000343340000201E0000203800002018
:10289000200000203C0000202DE9F04704464FF0C6
:1028A0007C512046FDF7B8FC814625462E460C4853
:1028B000A0EB6606354629464846FDF7ADFC824644
:1028C0002946FDF7A9FC80464FF07F51FDF7A1FC9A
:1028D00007462946FDF7A0FC05462846BDE8F087D7
:1028E000DF59375F00B587B001211020FEF710FFD8
:1028F0003020ADF8180000208DF81B0003208DF863
:102900001A0006A92248FEF718FA01214802FEF72C
:10291000FFFE0020019001208DF808008DF80900CD
:102920004FF4602003900020049002208DF81400E2
:1029300001A91848FEF72AF84FF40040FEF7BCFE44
:10294000062301220E211348FEF748F8062302222F
:102950000F211048FEF742F801210E48FDF7ECFF69
:102960000C48FEF797F800BF0A48FEF705F8002864
:10297000FAD10848FEF79EF800BF0648FDF7F2FFBF
:102980000028FAD101210348FEF789F807B000BDFD
:1029900000100140002401400EB5FEF789FBFEF750
:1029A00091F8FEF78DFA00F005FA4FF4E1310020BE
:1029B00000F0C4FAFFF796FFFEF786F900F040FA40
:1029C000FFF736FD0220FEF797FB95E000F0B0F828
:1029D000FFF72AFFFFF7F2FEFFF79AFD474800686E
:1029E000FDF71BFE8046464A464BFDF72CFD06468A
:1029F0000022454BFDF799FD0446FDF721FE824676
:102A000042480068FDF709FE06463D4A3D4BFDF78A
:102A10001AFD804600223C4BFDF787FD0446FDF77A
:102A20000FFE83463A480068FDF7F7FD0646344A34
:102A3000344BFDF708FD80460022334BFDF775FD52
:102A40000446FDF7FDFD02903248006832490968EE
:102A5000CDE9001031485246594603680298FEF706
:102A600051FBFFF767FD0A20FFF706FD01212C4807
:102A7000FEF7EEF9C8B100BF01212948FEF7E8F9D9
:102A80000028F9D14FF08040008F401D4FF0804169
:102A900008870520FFF7F0FC2020FEF72DFB012022
:102AA000FEF724FB0220FEF721FB4FF400511D48E6
:102AB000FEF7CEF9D0B100BF4FF400511948FEF730
:102AC000C7F90028F8D14FF08040008F401F4FF029
:102AD000804108870520FFF7CFFC0120FEF70CFBA3
:102AE0002020FEF703FB0220FEF700FB4FF08040A2
:102AF000018F0DA0FFF786F968E700003C00002079
:102B0000EA2E4454FB210940008066403800002032
:102B100034000020500000204C000020480000201D
:102B2000000801400010014025640D0A000000006B
:102B30002DE9F0470E222B493B2000F069F8294887
:102B400040782849097840EA012000B226490880E7
:102B50002448C0782349897840EA012000B22349FB
:102B60000880204840791F49097940EA012000B2D5
:102B70001F4908801B49C9791A4A927941EA022102
:102B800008B2FDF741FD81461A49FDF777FB04467F
:102B9000FDF743FD0746184A184BFDF7ADFB054608
:102BA000FDF74EFD164908600E48407A0D49097A36
:102BB00040EA012000B2134908800A48C07A094956
:102BC000897A40EA012000B20F4908800548407B1D
:102BD0000449097B40EA012000B20C490880BDE8A5
:102BE000F0870000140100202200002024000020B3
:102BF000260000200000AA43A4703D0AD7434240AB
:102C0000580000201C0000201E0000202000002092
:102C10002DE9F04106460F46144600BF4FF400313F
:102C20003648FEF7A1F90028F8D101213348FEF714
:102C300083F900BF32493148FEF721F90028F9D065
:102C40000022D0212D48FEF727FA00BF2D492B483E
:102C5000FEF715F90028F9D031462848FEF725FA85
:102C600000BF2849891C2548FEF709F90028F8D03B
:102C700001212248FEF76CF900BF23491F48FEF7E7
:102C800073F90028F9D101211C48FEF755F900BF5E
:102C90001B491A48FEF7F3F80028F9D00122D12188
:102CA0001648FEF7F9F900BF1549491C1348FEF70D
:102CB000E6F80028F8D0002518E0012C07D1002103
:102CC0000E48FEF7D0F801210C48FEF741F90C49F7
:102CD0003F310A48FEF7D3F840B10848FEF7D8F96B
:102CE0000A494855681CC5B2601EC4B2002CE4D124
:102CF00001210248FEF7B7F8BDE8F0810058004016
:102D000001000300820007001000001014010020E1
:102D10002DE9F04105460E46174601212248FEF7EF
:102D20000BF900BF21492048FEF71EF90028F9D011
:102D30000022D0211C48FEF7AFF900BF1C491A48F9
:102D4000FEF79DF80028F9D029461748FEF7ADF99F
:102D500000BF1749891C1448FEF791F80028F8D0E5
:102D6000002410E0315D1048FEF79FF900BF1049C4
:102D7000891C0D48FEF783F80028F8D00120FFF7E2
:102D80007BFB601CC4B2BC42ECDB01210648FEF7B1
:102D9000DFF800BF05490F310348FEF7E5F80028CA
:102DA000F8D1BDE8F081000000580040010000109B
:102DB0008200070010B50A20FFF75EFB80201E4945
:102DC000087001226B20FFF7A3FF0A20FFF754FBD6
:102DD00000201949087001226B20FFF799FF0A2093
:102DE000FFF74AFB00201449087001226A20FFF710
:102DF0008FFF0A20FFF740FB02200F4908700122D5
:102E00003720FFF785FF0A20FFF736FB07200A4926
:102E10000870002048708870C87004221920FFF7DD
:102E200077FF0A20FFF728FB0448006840F0010004
:102E30000249086010BD0000000100200C0C014098
:102E400000B589B001210420FEF762FC012108468B
:102E5000FEF74EFC0E20ADF8040018208DF8070098
:102E600003208DF8060001A92048FDF766FF43F610
:102E70000300ADF81C006420ADF818000020ADF888
:102E80001E00ADF81A0006A94FF08040FEF7DCFEE8
:102E90006020ADF808000120ADF80A006C20ADF804
:102EA0000E000020ADF8100002A94FF08040FEF7A0
:102EB000C5FD02A94FF08040FEF720FE02A94FF0A9
:102EC0008040FEF775FE01218807FEF709FE01210B
:102ED0008807FEF763FE01218807FEF7A7FE0121A0
:102EE0008807FEF79FFD09B000BD00000008014003
:102EF0002DE9F04106460F46FDF7AAFC041E0D46DB
:102F000018BF0120284320F00040C0F17F6000F18D
:102F1000E040C00F0ED0301C18BF0120384320F015
:102F20000040C0F17F6000F1E040C00F04BF01200D
:102F3000FEF7FEFF20462946BDE8F08130B585B09A
:102F400004460D46294951F82410294A52F82420F4
:102F5000114341F001000121FEF7DAFB34B92549A4
:102F600051F824000121FEF7D3FB05E0214951F877
:102F700024000121FEF7BCFB18208DF813001E4829
:102F800030F81400ADF8100003208DF812001B4932
:102F900051F8240004A9FDF7D0FE04208DF8130099
:102FA000174830F81400ADF81000164951F8240005
:102FB00004A9FDF7C2FE00950020ADF80400ADF8AD
:102FC0000600ADF80800ADF80C000C20ADF80A00C2
:102FD0000D4951F824006946FEF7A2FE0A4951F84E
:102FE00024000121FEF782FE05B030BD203000082C
:102FF000343000080C30000848300008B8000020C9
:1030000052300008CC000020A40000200040000046
:1030100000000200000004000000000000000000AA
:103020000400000004000000080000000000000090
:103030000000000004000000040000000800000080
:103040000000000000000000000204000004000076
:103050000000000408000008000000002500260011
:1030600027000000000000004FBB610567ACDD3F9A
:10307000182D4454FB21E93F9BF681D20B73EF3F9F
:10308000182D4454FB21F93FE2652F227F2B7A3C17
:10309000075C143326A6813CBDCBF07A8807703CD0
:1030A000075C143326A6913CC4EB98999999C9BF43
:1030B000711623FEC671BCBF6D9A74AFF2B0B3BF78
:1030C0009AFDDE522DDEADBF2F6C6A2C44B4A2BF38
:1030D0000D5555555555D53FFF8300922449C23FA4
:1030E0006E204CC5CD45B73F513DD0A0660DB13FD8
:1030F000EB0D76244B7BA93F11DA22E33AAD903FEA
:10310000000000000000000028310008000000203E
:1031100000010000101F00082832000800010020F4
:1031200040040000201F000800000000010203040A
:103130000102030406070809020406080000000053
:10314000000000000000000000000000000000007F
:10315000000000000000000000000000000000006F
:10316000000000000000000000000000000000005F
:10317000000000000000000000000000000000004F
:10318000000000000000000000000000000000003F
:10319000000000000000000000000000000000002F
:1031A000000000000000000000000000000000001F
:1031B000000000000000000000000000000000000F
:1031C0000000000000000000000000000038014086
:1031D00000440040004800400000000000000000E3
:1031E0000008014000080140000C01400000000000
:1031F000000000000008014000080140000C0140F0
:10320000000000000000000000000000CDCCCC3D1C
:103210000000803F000000000000000000000000EF
:083220000000000000000000A6
:0400000508000131BD
:00000001FF
