:020000040800F2
:10000000600500204501000805180008B30F00082E
:10001000011800080F0C00084D2000080000000027
:10002000000000000000000000000000E1190008CE
:10003000890E00080000000079180008591B00080C
:100040005F0100085F0100085F0100085F01000810
:100050005F0100085F0100085F0100085F01000800
:100060005F0100085F0100085F0100085F010008F0
:100070005F0100085F0100085F0100085F010008E0
:100080005F0100085F0100085F0100085F010008D0
:100090005F0100085F0100085F0100085F010008C0
:1000A0005F0100085F0100085F0100085F010008B0
:1000B000E91B00085F0100085F0100085F010008FC
:1000C0005F0100085F0100085F0100085F01000890
:1000D0005F0100085F0100085F0100085F01000880
:1000E0005F0100085F0100085F0100085F01000870
:1000F0005F0100085F0100085F0100085F01000860
:100100005F0100085F0100085F0100085F0100084F
:100110005F0100085F0100085F0100085F0100083F
:100120005F0100085F0100085F0100085F0100082F
:10013000DFF80CD000F086FC0048004701340008CE
:10014000600500200648804706480047FEE7FEE7B6
:10015000FEE7FEE7FEE7FEE7FEE7FEE7FEE7FEE777
:10016000891B000831010008F0B480EA0102D40FB5
:100170004200B2EB410F02D20246084611464A0045
:1001800042D0C30DDDB2C1F3C752AD1A202D35DA0E
:10019000C1F3160141F4000204B15242C5F1200638
:1001A00002FA06F12A411044B3EBD05F23D0C4B168
:1001B000012DA0EBC35009DCF0BC4FF0004202EA75
:1001C000C352DBB200F5000000F031BB400000F18B
:1001D000807000EBC350A0F1807040EAD1704900FC
:1001E00009E0490841EAC071A0EBC35000F50000E6
:1001F000400800EBC350F0BC00F010BB614201228C
:1002000002EB4101001BF6E7F0BC704781F00041B2
:10021000AAE780F00040A7E780EA010210B502F0EB
:100220000043400022D04A001FD0010E01EB1261B2
:10023000C0F35600C2F3560240F4000042F400023C
:10024000A0FB022000047F39140400D0401C50EAB7
:10025000124001D44000491EC2B20C0604EBD0107B
:10026000401C4008802A02D003E0002010BD20F08E
:100270000100002900DA0020184310BD30B480EAE4
:10028000010202F0004530F0004221F0004013D09E
:1002900090B1C30DD40DC2F31601C0F31600E41AD9
:1002A00041F4000140F400027D34914201D3641C0A
:1002B00000E04900002C02DA30BC002070474FF407
:1002C00000000023914201D3891A034340084FEAFA
:1002D0004101F7D151B1914202D14FF0004105E007
:1002E00002D24FF0010101E06FF0010103EBC450B5
:1002F000284430BC00F092BA2DE9FE4F804681EAD6
:100300000300C00F0C46009021F0004123F000458F
:10031000B8EB0200A94105D24046214690461C4652
:100320000B46024623F00040104347D0270DC7F389
:100330000A00C3F30A510290401A019040286BDA78
:10034000C3F3130040F4801B0098924620B10023B1
:10035000D2EB030A63EB0B0B01985946C0F1400244
:10036000504600F03AFA06460D4650465946019A64
:1003700000F042FA10EB08006141002487EA1152B4
:1003800084EAE7731A4340D0009A62B3019A012AC3
:100390004FEA075215DC001B61EB02014FF00042EF
:1003A00002EA0752CDE90042001C41F580113246B5
:1003B0002B4600F079FA03B0BDE8F08F40462146A5
:1003C000F9E7001B61EB0201001C41F580130018E6
:1003D0005B412018A2F5001747EB030140EAD570F6
:1003E000B6196D4111E06D084FEA360645EAC07551
:1003F0004FEA0752001B61EB0201001C41F580111E
:1004000049084FEA30000019514132462B4603B0EB
:10041000BDE8F04F00F039BA0098012240000023F7
:10042000D0EB020263EBE073009821464FEAE074E0
:10043000B8EB000061EB0401E9E783F000435BE700
:1004400081F0004158E72DE9FE4F81EA030404F0F2
:10045000004421F0004100944FF0000B23F00043D2
:1004600050EA01045ED052EA03045BD0C3F30A549D
:10047000C1F30A552C44A4F2F3340194A0FB0254B6
:10048000C1F3130141F48011C3F3130343F4801348
:1004900001FB024400FB034E840A970A44EA81549C
:1004A00047EA8357A4FB076802958D0A05FB078579
:1004B0004FEA932C04FB0C542705029D4FEA065883
:1004C00047EA1637B5EB08056EEB070C870E920E60
:1004D00047EA811742EA8312A7FB0201B6EB0B0140
:1004E00064EB00042B0D43EA0C335E1844EB1C5004
:1004F000DA465146E7FB0201C5F313044FEA0B331A
:1005000043EA14534FEA0432019C43EA0603A4F180
:100510000C040294009CCDE900B400F0C5F903B0CE
:10052000BDE8F08F00200146F9E72DE9F04D81EAA2
:10053000030404F0004B21F0004514464FF0000A7C
:1005400023F0004150EA050220D054EA01021DD0F8
:10055000C5F30A570246C5F31303C1F31300C1F3F1
:100560000A5640F4801543F48013A7EB0608101BCD
:10057000D64608F2FD3873EB050002D308F10108F6
:1005800001E092185B41B8F1000F03DA0020014648
:10059000BDE8F08D00204FF48011064684460EE041
:1005A000171B73EB050705D3121B63EB050306430B
:1005B0004CEA010C49084FEA300092185B4150EABE
:1005C0000107EDD152EA030012D082EA040083EA67
:1005D0000501084305D0101BAB4106D201220023C0
:1005E00006E000224FF0004302E06FF001025310DA
:1005F0001AEB06004CEB085110EB0A0041EB0B0123
:10060000BDE8F04D00F041B9C10F80EAE070084448
:10061000CA079623002100F00AB99623002211464A
:1006200000F005B90EB540F2334102910021CDE949
:1006300000110A460B4600F037F903B000BD20F068
:100640000040C10DC0F3160040F400007F2901DA1C
:1006500000207047962903DCC1F19601C84070471D
:1006600096398840704700F0004230F000400AD0D0
:10067000C10D01F56071C0F3160042EA0151C208D4
:1006800040071143704700200146704730B5041EF3
:1006900071F1000404DB4FF00044404264EB0101BF
:1006A000141E73F1000405DB1C464FF00043524258
:1006B00063EB04038B4208BF824230BD30B5041E99
:1006C00071F1000404DB4FF00044404264EB01018F
:1006D000141E73F1000405DB1C464FF00043524228
:1006E00063EB0403994208BF904230BD01F0004320
:1006F00030B421F0004150EA010206D00A0DA2F503
:100700006072C1F31301002A02DC30BC0020704784
:10071000440F44EAC104C100E01830BC00EBC250F1
:1007200000F07CB8002801DBC0F10040002901DBAB
:10073000C1F1004181427047002801DBC0F1004057
:10074000002901DBC1F100418842704730B50B46FA
:10075000014600202022012409E021FA02F59D42F1
:1007600005D303FA02F5491B04FA02F52844151EC5
:10077000A2F10102F1DC30BD2DE9F05F0546002059
:1007800092469B4688460646814640241BE0284602
:1007900041464746224600F067F953465A46C01A7A
:1007A000914110D311461846224600F016F82D1A32
:1007B00067EB01084F4622460120002100F00DF8AA
:1007C00017EB00094E41201EA4F10104DFDC48466E
:1007D00031462A464346BDE8F09F202A04DB203AF2
:1007E00000FA02F1002070479140C2F1200320FA84
:1007F00003F3194390407047202A06DBCB17203AB9
:1008000041FA02F043EAE07306E041FA02F3D04015
:10081000C2F1200291400843194670470029A8BF41
:100820007047401C490008BF20F00100704710B419
:10083000B0FA80FC00FA0CF050EA010404BF10BCCE
:10084000704749B1CCF1200421FA04F411FA0CF1FB
:1008500018BF012121430843A3EB0C01CB1D4FEA34
:1008600000614FEA102042BF002010BC704700EB2F
:10087000C35010440029A4BF10BC7047401C49005D
:1008800008BF20F0010010BC704710B5141E73F1B2
:10089000000408DA401C41F1000192185B411A4340
:1008A00001D120F0010010BD2DE9F04D92469B468C
:1008B00011B1B1FA81F202E0B0FA80F22032904632
:1008C000FFF78BFF04460F4640EA0A0041EA0B019E
:1008D00053465A46084313D0114653EA010019D033
:1008E000C8F14002504600F0BFF805460E4650469B
:1008F00059464246FFF771FF084305D0012004E046
:1009000020463946BDE8F08D0020054346EAE076F2
:100910002C4337430A986305E40AA0EB0800002241
:10092000FD0A44EA47540A3002D500200146E9E7AF
:10093000010510196941DDE9084500196941BDE863
:10094000F04DA2E770B521F0004303430CD0C1F392
:100950000A550024D5EB040564EB0403D617AD1A41
:10096000B34102DB0020014670BD201841EB02516B
:1009700070BD2DE9F04D00231A461B1A8A4103DB96
:1009800000200146BDE8F08DC1F30A52C1F3130106
:1009900041F480154FF0000BD10702D100186D41D2
:1009A000521E0027044640F2FF11384601EB620A4E
:1009B0003E468046024600204FF4801100F054F875
:1009C000C2197141BB1846EB0100B4EB030C75EB87
:1009D000000C04D3E41A65EB000517460E462419F3
:1009E00008F101006D4180463428E3DDF91946EB3A
:1009F0000600091BA84103D24FF0FF32134601E065
:100A0000002213461BEB070046EB0A51BDE8F04DF0
:100A1000FFF73BBFC1F30A52C1F3130140F2FF33AA
:100A200041F480119A4202DA00200146704740F2F8
:100A300033439A42A2F2334202DC524200F014B82D
:100A4000FFF7CBBE064C074D06E0E06840F001031F
:100A500094E8070098471034AC42F6D3FFF76CFBDC
:100A6000983F0008B83F0008202A04DB203A21FA0A
:100A700002F00021704721FA02F3D040C2F12002B7
:100A8000914008431946704721B1826842F0010243
:100A9000826003E0826822F001028260704721B127
:100AA000826842F48072826003E0826822F480727D
:100AB00082607047014600208A6802F004020AB191
:100AC000012000E000207047014600208A6802F003
:100AD00008020AB1012000E00020704730B502464C
:100AE0000020002350680F4C20400D790C6844EA28
:100AF00005242043506090680B4C2040D1E90254FB
:100B00002C434D7944EA450420439060D06A20F498
:100B100070000C7C641EE4B2234340EA0350D062B0
:100B200030BD0000FFFEF0FFFDF7F1FFF0B5044619
:100B30000D4600200021092D11DDE068A5F10A060F
:100B400006EB4607072606FA07F18843A5F10A06D1
:100B500006EB460603FA06F10843E0600CE0206964
:100B600005EB4507072606FA07F1884305EB45061E
:100B700003FA06F108432061072A0FDA606B561E5C
:100B800006EB86071F2606FA07F18843561E06EB7A
:100B9000860605FA06F10843606322E00D2A0FDAA3
:100BA000206BD61F06EB86071F2606FA07F188433F
:100BB000D61F06EB860605FA06F10843206310E00F
:100BC000E06AA2F10D0606EB86071F2606FA07F17A
:100BD0008843A2F10D0606EB860605FA06F10843E6
:100BE000E062F0BD816841F008018160704721B189
:100BF000826842F4A002826003E0826822F4A002CC
:100C000082607047816841F004018160704700BFD5
:100C1000FEE7000000B585B0684600F06BFE0020DE
:100C200000F0D2FE6FF0040000F050FF002000F052
:100C300094FF09490198B0FBF1F0084908704FF49E
:100C4000FA510198B0FBF1F005490880142002F038
:100C5000E9F805B000BD000000127A00B8000020DD
:100C6000BA00002021B1026842F00102026004E0F3
:100C700002684FF6FE731A400260704701684FF633
:100C8000FE72114001600021016041608160C1601D
:100C90004B49884208D14A490839496841F00F0157
:100CA000474A083A51608AE045491431884208D1E0
:100CB00043490839496841F0F001414A083A516016
:100CC0007DE03F492831884208D13D4908394968CB
:100CD00041F470613A4A083A516070E038493C3159
:100CE000884208D136490839496841F47041344A8C
:100CF000083A516063E032495031884208D13049A6
:100D00000839496841F470212D4A083A516056E08B
:100D10002B496431884208D129490839496841F48E
:100D20007001274A083A516049E0254978318842E4
:100D300008D123490839496841F07061204A083ACE
:100D400051603CE01F49884206D1011F096841F00B
:100D50000F01021F116032E01A491431884208D194
:100D60001849091F096841F0F001164A121F116065
:100D700025E014492831884208D11249091F096821
:100D800041F470610F4A121F116018E00D493C31A7
:100D9000884208D10B49091F096841F47041094A8A
:100DA000121F11600BE007495031884207D10549F5
:100DB000091F096841F47021024A121F116070472F
:100DC00008000240080402401AB103680B430360A4
:100DD00002E003688B430360704710B5002202688D
:100DE00047F6F0739A430C6A8B6823430C692343DC
:100DF0004C6923438C692343CC6923434C6A2343C6
:100E00008C6A23431A430260CB6843600B6883609B
:100E10004B68C36010BD000000B58BB001210846CF
:100E200000F038FD1548FFF729FF154800901548D8
:100E300001900220039000200290049080200590F1
:100E4000C000069007902020089000020990002022
:100E50000A9069460948FFF7C0FF012202210748AE
:100E6000FFF7B2FF012106484C38FFF718FE0121B9
:100E70000248FFF7F7FE0BB000BD0000080002407B
:100E80004C2401402C00002070472DE9F04102461F
:100E900000250026002000230024002791F803C02D
:100EA0000CF00F0591F803C00CF0100CBCF1000F12
:100EB00003D091F802C04CEA050591F800C0BCF1DE
:100EC000000F31D0146800202BE04FF0010C0CFA19
:100ED00000F3B1F800C00CEA03069E4220D1830063
:100EE0004FF00F0C0CFA03F7BC4305FA03FC4CEA75
:100EF000040491F803C0BCF1280F06D14FF0010C97
:100F00000CFA00FCC2F814C00AE091F803C0BCF16E
:100F1000480F05D14FF0010C0CFA00FCC2F810C0CC
:100F2000401C0828D1D31460B1F800C0BCF1FF0FF9
:100F300034DD546800202EE000F1080C4FF0010869
:100F400008FA0CF3B1F800C00CEA03069E4221D166
:100F500083004FF00F0C0CFA03F7BC4305FA03FCB7
:100F60004CEA040491F803C0BCF1280F05D100F14C
:100F7000080C08FA0CF8C2F8148091F803C0BCF110
:100F8000480F07D100F1080C4FF0010808FA0CF8DF
:100F9000C2F81080401C0828CED35460BDE8F08110
:100FA0000246002093680B400BB1012000E00020B6
:100FB000704700BFFEE721B1028842F480620280E0
:100FC00004E002884FF6FF331A400280704770B584
:100FD00002460024002500230020958A138B1B0461
:100FE00045EA030626F07F4404EA01068E4201D159
:100FF000012000E0002070BD21B1028842F0010212
:10100000028004E002884FF6FE731A4002807047A7
:1010100000B585B00121880500F04CFC01210820B5
:1010200000F058FC4FF44060ADF8100001208DF83E
:1010300012001C208DF8130004A91048FFF725FFAB
:101040004FF48060ADF80A000001ADF80C000C48C8
:1010500000904BF6FF70ADF806000020ADF80400DC
:101060000120ADF808006946064800F043F8012168
:101070000448FFF7C1FF05B000BD0000000C0140AF
:10108000A08601000058004021B1028842F480721D
:10109000028004E002884FF6FF631A400280704726
:1010A00021B1028842F40072028004E002884FF607
:1010B000FF531A40028070470CB5024600200023FF
:1010C0000193009300920B0F019321F07F41019B4C
:1010D0001BB1009B1433009303E0090C009B1833F1
:1010E0000093009B1B680B400BB1012000E0002027
:1010F0000CBD00002DE9F04385B004460D460026E6
:10110000B1460427DFF8CC80A6884FF6C0700640B1
:10111000684600F0EFFBDDF808802F48B8FBF0F0E0
:101120001FFA80F946EA0906A68020884FF6FE716C
:101130000840208000262949286888420CD8286861
:101140004000B8FBF0F087B2042F00DA04273E43DA
:1011500009F10100208427E0E8884BF6FF718842FE
:1011600006D1286800EB4000B8FBF0F087B209E038
:10117000286800EBC00101EB0010B8FBF0F087B26B
:1011800047F48047C7F30B0008B947F0010747F45D
:10119000004006434FF4967009FB00F04FF47A715B
:1011A00090FBF1F0401C2084A683208840F00100D1
:1011B000208026884FF6F5300640A88869890843C4
:1011C00006432680A88929890843208105B0BDE807
:1011D000F083000000127A0040420F00A086010058
:1011E0000146088AC0B2704712B141F0010102E025
:1011F0004FF6FE731940018270470182704700006C
:1012000008B50121082000F065FB2320ADF800009F
:1012100010208DF8030003208DF80200694606486F
:10122000FFF733FE202000F009F8012000F006F857
:10123000022000F003F808BD000C014001490860DD
:1012400070470000100C0140014908607047000021
:10125000140C01400FB5A5B0FE4827990068FEF7B1
:10126000DBFF0D90FC4826990068FEF7D5FF0B9038
:10127000FA48006880F0004009902599FEF7CCFFFD
:101280000A900B99FEF7C2FF0C900D99FEF7BEFF76
:101290004FF07C510E90FEF7BFFF1F90ED4826994E
:1012A0000068FEF7B9FF0D90EB4827990068FEF73C
:1012B000B3FF0B90EA4801682598FEF7ADFF0A904E
:1012C0000B99FEF751FF0C900D99FEF79FFF4FF021
:1012D0007C510E90FEF7A0FF1E90DE480168259815
:1012E000FEF79AFF0D90DD4827990068FEF794FFFE
:1012F0000B90DB4826990068FEF78EFF0A900B9949
:10130000FEF784FF0C900D99FEF72EFF4FF07C51F5
:101310000E90FEF781FF1D90CF4801682598FEF7DB
:101320007BFF0D90CD4826990068FEF775FF0B9066
:10133000CB4827990068FEF76FFF0A900B99FEF7DC
:1013400013FF0C900D99FEF761FF4FF07C510E904A
:10135000FEF762FF1C9000212898FFF7E3F909D1FE
:1013600000212A98FFF7DEF904D100212B98FFF71E
:10137000D9F97DD02B990846FEF74EFF0D902A999A
:101380000846FEF749FF0B9028990846FEF744FFF0
:101390000A900B99FEF7E8FE0C900D99FEF7E4FE1B
:1013A0000E9001F099FF249024992898FEF734FFBD
:1013B000289024992A98FEF72FFF2A9024992B9899
:1013C000FEF72AFF2B90A64801684FF08040FEF7F9
:1013D00023FF1B90A14801684FF08040FEF71CFFDF
:1013E0001A909D4801684FF08040FEF715FF199054
:1013F000984801684FF08040FEF70EFF189098481B
:1014000001684FF08140FEF707FF1790934801688D
:101410004FF08140FEF700FF16908F4801684FF0B3
:101420008140FEF7F9FE15908C4801684FF082402C
:10143000FEF7F2FE1490884801684FF08240FEF7F4
:10144000EBFE1390864801680068FEF7E5FE1290F7
:10145000824801680068FEF7DFFE11907E4801684F
:101460000068FEF7D9FE10907A480168006800E035
:1014700044E1FEF7D1FE0F902A991A98FEF7CCFEB0
:101480000E9011991798FEF7C7FE0C90289919989D
:10149000FEF7C2FE0A9010991798FEF7BDFE09905C
:1014A0000A99FEF761FE0B900C99FEF75DFE0D9018
:1014B0000E99FEF7ABFE23902B991698FEF7ACFE23
:1014C0000E9010991498FEF7A7FE0C90119914989D
:1014D000FEF7A2FE0A902A991B98FEF79DFE079040
:1014E0004FF081401299FEF797FE03905B48016828
:1014F0000398FEF791FE059028991898FEF78CFE48
:1015000003900F991698FEF787FE02900399FEF755
:101510007DFE04900599FEF727FE06900799FEF7D9
:1015200075FE08901699FEF771FE09900A99FEF76C
:101530001BFE0B900C99FEF717FE0D900E99FEF70F
:1015400013FE22902B991598FEF766FE0E901099C7
:101550001398FEF761FE0C9011991398FEF75CFE4C
:101560000A902A991898FEF757FE07900F99159838
:10157000FEF752FE059028991B98FEF74DFE03904A
:101580004FF081401299FEF747FE01903248016802
:101590000198FEF741FE02900399FEF7E5FD0490E5
:1015A0000599FEF7E1FD06900799FEF72FFE0890DA
:1015B0001599FEF72BFE09900A99FEF7D5FD0B90C1
:1015C0000C99FEF7D1FD0D900E99FEF7CDFD2190FF
:1015D0002A991998FEF720FE0E904FF0814010993D
:1015E000FEF71AFE0A901B4801680A98FEF714FEDF
:1015F0000C9028991A98FEF70FFE0A904FF0814040
:101600001199FEF709FE0890124801680898FEF744
:1016100003FE09900A99FEF7F9FD0B900C99FEF76D
:10162000A3FD0D900E99FEF7F1FD2090209908463C
:10163000FEF7F2FD0D9021990846FEF7EDFD0B90A7
:1016400022990846FEF7E8FD099023990846FEF71F
:10165000E3FD07E014010020100100200C01002030
:101660000801002008900999FEF77EFD0A900B9969
:10167000FEF77AFD0C900D99FEF776FD0E9001F0C5
:101680002BFE2490DDE92301FEF7C6FD239024996B
:101690002298FEF7C1FD229024992198FEF7BCFD07
:1016A000219024992098FEF7B7FD20904E48239969
:1016B0000068FEF7B1FD0E901F99FEF7AAFD1F907E
:1016C000494822990068FEF7A7FD0E901E99FEF783
:1016D000A0FD1E90444821990068FEF79DFD0E90E4
:1016E0001D99FEF796FD1D903F4820990068FEF772
:1016F00093FD0E901C99FEF78CFD1C903B491F98A2
:10170000FEF78AFD0E903A4801680E98FEF72CFD10
:101710003749086035491E98FEF77EFD0E90354822
:1017200001680E98FEF720FD324908602F491D9888
:10173000FEF772FD0E90304801680E98FEF714FD1A
:101740002D49086029491C98FEF766FD0E902B482C
:1017500001680E98FEF708FD2849086008460168F0
:101760000068FEF759FD0D90234801680068FEF7F8
:1017700053FD0B901F4801680068FEF74DFD09906E
:101780001B4801680068FEF747FD08900999FEF7BD
:10179000EBFC0A900B99FEF7E7FC0C900D99FEF715
:1017A000E3FC0E9001F098FD249011482499006804
:1017B000FEF732FD0E4908600E4824990068FEF7D6
:1017C0002BFD0C4908600C4824990068FEF724FDA5
:1017D00009490860094824990068FEF71DFD07497A
:1017E000086029B000BD0000040100200AD7233C96
:1017F000080100200C01002010010020140100202D
:1018000000BFFEE77047000070B5002100230F22E3
:10181000C47804B3154C246804F4E064C4F5E064AF
:10182000210AC1F10403CA40447804FA03F1847820
:101830001440214309010E4C0678A155047804F0A8
:101840001F050124AC4005786D11AD0005F1E025C0
:10185000C5F8004109E0047804F01F050124AC40FC
:10186000044D0678761145F8264070BD0CED00E079
:1018700000E400E080E100E0704700000146002045
:10188000034A506820F4404008435060704700000D
:101890000010024029B1064A52690243044B5A61C2
:1018A00004E0034A52698243014B5A6170470000C9
:1018B0000010024029B1064AD2690243044BDA61A2
:1018C00004E0034AD2698243014BDA6170470000A9
:1018D0000010024029B1064A92690243044B9A6102
:1018E00004E0034A92698243014B9A617047000009
:1018F0000010024030B500210022002400232D4DAD
:101900006D6805F00C0121B1042905D0082923D107
:1019100005E0294D056022E0274D05601FE0254DBB
:101920006D6805F47012234D6D6805F4803402254E
:1019300005EB92421CB9214D554305600BE01D4D4E
:101940006D6805F400351DB11C4D5543056002E07E
:10195000194D5543056002E0174D056000BF00BFFB
:10196000144D6D6805F0F0010909154D6B5C0568B3
:10197000DD4045600F4D6D6805F4E061090A104DCA
:101980006B5C4568DD4085600A4D6D6805F460510B
:10199000C90A0B4D6B5C4568DD40C560054D6D683F
:1019A00005F44041890B074D6B5CC568B5FBF3F549
:1019B000056130BD0010024000127A0000093D00B0
:1019C000140000202400002001460020034A506833
:1019D00020F0F00008435060704700000010024003
:1019E000704710B500F002F810BD00000CB50020E3
:1019F000019000903348006840F48030314908601D
:101A000000BF3048006800F4003000900198401C8E
:101A10000190009818B90198B0F5A06FF1D129484C
:101A2000006800F4003010B10120009001E00020B7
:101A300000900098012843D12348006840F010002E
:101A4000214908600846006820F003000860084645
:101A5000006840F0020008601A4840681949486070
:101A60000846406848600846406840F48060486026
:101A70000846406820F47C1048600846406840F4FE
:101A8000E81048600846006840F08070086000BFB9
:101A90000C48006800F000700028F9D00948406840
:101AA00020F00300074948600846406840F0020003
:101AB000486000BF0348406800F00C000828F9D1D6
:101AC0000CBD00000010024000200240042808D194
:101AD0004FF0E021096941F004014FF0E02211616B
:101AE00007E04FF0E021096921F004014FF0E02206
:101AF00011617047012808D14FF0E021096941F0D8
:101B000001014FF0E02211610EE0811C41B94FF05C
:101B1000E021096921F001014FF0E022116103E0A9
:101B200000214FF0E0229161704710B5014600227C
:101B300000230020CB10022B03D14FF0E0242269B8
:101B400002E04FF0E024E26901248C4014400CB123
:101B5000012000E0002010BD704740B14FF0E021AF
:101B6000096941F002014FF0E022116107E04FF0F6
:101B7000E021096921F002014FF0E0221161704774
:101B80004FF0E0214861704710B51348006840F0FD
:101B900001001149086008464068104908400E4994
:101BA0004860084600680E4908400B49086008462E
:101BB000006820F4802008600846406820F4FE0099
:101BC00048604FF41F008860FFF70BFF4FF0006084
:101BD0000449086010BD0000001002400000FFF83A
:101BE000FFFFF6FE08ED00E010B50121880700F0C8
:101BF00031F8B8B10121880700F01AF80A480088C6
:101C000040F2E731884208DB002007490880074896
:101C10000088401C0549088004E003480088401CF7
:101C20000149088010BD0000BE000020C000002057
:101C3000CA4302827047CA430282704721B10288B8
:101C400042F00102028004E002884FF6FE731A405F
:101C50000280704730B50246002000230024158A18
:101C600005EA0103958905EA010413B10CB10120CD
:101C700000E0002030BD1AB183890B43838102E06C
:101C800083898B438381704770B500240022002331
:101C9000058C4FF6EF7635400584028C8388048BE3
:101CA00048F6FF752C404FF6FF452C400D884FF647
:101CB000FF7606EA05252C434FF6DF752A400D898D
:101CC00006EA05152A434D8806EA05152A43154DEF
:101CD000A84202D0144DA8421DD14FF67F752A406C
:101CE0004D894FF6FF7606EA05152A434FF6BF7574
:101CF0002A408D8806EA05152A434FF6FF352B400A
:101D00004FF2FF752B408D8906EA85052B43CD895F
:101D100006EA85052B4383800483CD8805870284EA
:101D200070BD0000002C0140003401400A46002133
:101D3000018B4FF2FF7319404FF6FF7303EA022342
:101D4000194301837047000070B50024002200236E
:101D5000058C4FF6FF6635400584028C8388848BA2
:101D60004FF68F752C404FF6FC752C400D882C4398
:101D70004FF6FF552A400D894FF6FF7606EA0525F6
:101D80002A434D8806EA05252A43154DA84202D06C
:101D9000144DA8421DD14FF2FF752A404D894FF6D0
:101DA000FF7606EA05252A434FF6FF352A408D883F
:101DB00006EA05252A434EF6FF752B404DF6FF75C2
:101DC0002B408D8906EA05152B43CD8906EA0515BA
:101DD0002B4383808483CD888587028470BD000077
:101DE000002C0140003401400A460021818B4FF64F
:101DF000F7731940114381837047000070B50022CA
:101E000000230024058C4EF6FF7635400584038CB4
:101E10008488828B48F6FF752A404FF6FF452A409A
:101E20000D884FF6FF7606EA05252A434DF6FF7525
:101E30002B400D8906EA05352B434D8806EA05350A
:101E40002B430B4DA84202D00A4DA84208D14BF6B5
:101E5000FF752C408D894FF6FF7606EA85152C43D9
:101E600084808283CD88A0F84050038470BD000038
:101E7000002C0140003401400A460021818B4FF2C2
:101E8000FF7319404FF6FF7303EA0223194381835E
:101E900070470000002202881D4B98420ED01D4B57
:101EA00098420BD0B0F1804F08D01B4B984205D020
:101EB0001A4B984202D01A4B984204D14FF68F73B6
:101EC0001A404B881A43174B984207D0164B98423A
:101ED00004D04FF6FF431A40CB881A4302808B8808
:101EE00083850B8803850A4B98420BD0094B984297
:101EF00008D00E4B984205D00D4B984202D00D4BA6
:101F0000984201D10B7A0386012383827047000037
:101F1000002C014000340140000400400008004053
:101F2000000C004000100040001400400040014040
:101F3000004401400048014021B1828942F400522E
:101F4000828104E082894DF6FF731A4082817047D6
:101F500002460020B1F5007F00D100BF13880B407E
:101F60000BB1012000E00020704700002DE9F04790
:101F700086B005460E460024A24600BFA1460027B3
:101F8000B08900B100BF2F462C8A4CF6FF70044088
:101F9000F08804432C82AC894EF6F3100440B088DC
:101FA00031890843718908430443AC81AC8A4FF6F8
:101FB000FF400440B0890443AC8201A8FFF79AFCBB
:101FC0001F48874202D1DDF810A001E0DDF80CA027
:101FD000A88900F4004040B10AEBCA0000EB0A10E7
:101FE00031684900B0FBF1F807E00AEBCA0000EBEA
:101FF0000A1031688900B0FBF1F86420B8FBF0F0FA
:1020000004012009642101FB1089A88900F4004023
:1020100040B1322000EBC900B0FBF1F000F0070046
:10202000044308E0322000EB09106421B0FBF1F01A
:1020300000F00F0004432C8106B0BDE8F0870000DB
:1020400000380140C1F308028280704700BFFEE7FC
:102050000FB4054B10B503A9044A029800F056F9D5
:1020600010BC5DF814FB0000712E00081801002060
:10207000490050EAC12018BF04204A0D18BF40F0A3
:10208000010040F2FF72B2EB515F08BF40F0020066
:10209000012808BF052070472DE9F0414F1E00EBD5
:1020A000C7010446D1E9000115461E4637F0060275
:1020B0000DD02A463346FEF7C6F97F1E04EBC70350
:1020C000D3E90023FEF718F937F00602F1D1022F09
:1020D00025D0042F13D0062F18BFBDE8F0812A4663
:1020E0003346FEF7B0F9D4E90A23FEF705F92A468C
:1020F0003346FEF7A8F9D4E90823FEF7FDF82A468F
:102100003346FEF7A0F9D4E90623FEF7F5F82A4690
:102110003346FEF798F9D4E90423FEF7EDF82A4692
:102120003346FEF790F9D4E90223FEF7E5F82A4694
:102130003346FEF788F9D4E90023BDE8F041FEF705
:10214000DBB80122FEF7FEBBFEF7D6B8024A00203C
:102150001107FEF7F7BB000001FDFFFF02E008C812
:10216000121F08C1002AFAD170477047002001E011
:1021700001C1121F002AFBD170470000014908600D
:10218000704700001C0100202DE9FF5F82B0002194
:10219000DDE90430020DDDF840B0034318D044F609
:1021A0001050A2F2FF3242431514119801281FD09B
:1021B000A5EB0B00401C5FEA000A4FF000064E4FF3
:1021C000DFF83891B046504615D5CAF1000413E047
:1021D000119801244AA3012801D16FEA0B0102984A
:1021E000119AC0E90031C0E9024206B0BDE8F09F93
:1021F000CBF10000DFE704460021404A491842EBDA
:102200000450CDE9001012E0E00707D032463B460B
:1022100040464946FEF717F98046894632463B4616
:1022200010461946FEF70FF906460F466410002CBB
:10223000EAD1DDE90401DDE90023BAF1000F06DA95
:10224000FEF701F942464B46FEF7FDF805E0FEF7C2
:102250006CF942464B46FEF768F904460E460022EA
:10226000284BFEF72BFA03D84FF0FF30014607E06A
:102270000022254B20463146FEF73EF8FEF7CAFB0A
:10228000102409E0002C0ADB0A220023FEF774FA6E
:10229000039B30321A55641E50EA0102F2D1641CCD
:1022A000039AC4F111031444119A012A03D00122A4
:1022B00008430DD10AE0084304D000204FF0110B71
:1022C000119072E7A3EB0B056D1E0DE05B4504DD7D
:1022D0004FF0000205F1010504E003DA4FF00002BF
:1022E000A5F10105002AECD002981199C0E902314C
:1022F000C0E9004579E70000000014400000F03F0D
:10230000300000000000F0430000E03F2DE9FF4FE7
:1023100095B09B468946064600250FE2252877D1D1
:1023200000242746F84A0121059400E0044316F8EA
:10233000013F203B01FA03F01042F7D130782A2800
:1023400011D06FF02F033078A0F13002092A16D88F
:10235000059A44F0020402EB820203EB42021044AD
:10236000761C0590EFE759F8042B0592002A03DA52
:10237000504244F40054059044F00204761C307836
:102380002E2816D116F8010F44F004042A280DD087
:102390006FF02F023078A0F13003092B09D807EB3A
:1023A000870302EB4303C718761CF3E759F8047B55
:1023B000761C30786C280FD006DC4C2817D06828A3
:1023C0000DD06A2814D104E0742810D07A280FD1D7
:1023D0000DE044F400140AE044F4801401E044F4F5
:1023E00040147278824202D104F58014761C761C67
:1023F000307866280BD013DC582877D009DC002809
:1024000075D04528F6D04628F4D047281AD19DE14A
:1024100018E0632835D0642879D0652812D195E179
:10242000702873D008DC6728F1D069286FD06E2837
:102430000DD06F2806D1B5E073282CD0752875D043
:10244000782874D05A46179990476D1C75E1C4F3EB
:102450000250022809D003280DD0D9F80010042812
:102460000DD00D6009F1040967E1D9F80010EA17F1
:10247000C1E90052F6E7D9F800100D80F2E70D70BF
:10248000F0E719F8041B8DF8001000208DF801000A
:10249000EA46012003E059F804AB4FF0FF30610732
:1024A0004FF0000102D40DE008F101018846B94265
:1024B0000FDA8045F8DB1AF808100029F4D108E09B
:1024C00008F1010188468142FADB1AF80810002958
:1024D000F6D105985B46A0EB080721463846179AC7
:1024E00000F094FA284400EB080507E04DE029E1EC
:1024F0000DE01AF8010B5A4617999047B8F10108F8
:10250000F7D25B4621463846179A13E142E00A2289
:102510000092C4F302524FF0000A022A08D059F880
:1025200004CB032A4FEAEC710AD00DE029E02AE03F
:1025300009F1070121F00702F2E802C1914609E022
:102540000FFA8CFC4FEAEC71042A03D14FFA8CFC91
:102550004FEAEC71002907DA0A460021DCF1000C91
:1025600061EB02012D2202E0220504D52B228DF819
:102570000420012203E0E20701D02022F7E7904681
:1025800059E00A2102E010220DE010214FF0000A6C
:1025900000910BE010224FF0000A44F004040827D9
:1025A000009203E008224FF0000A0092C4F30252A6
:1025B000022A05D059F804CB0021032A08D009E0EB
:1025C00009F1070121F00702F2E802C1914605E096
:1025D0001FFA8CFC042A01D10CF0FF0C4FF000080C
:1025E000220728D5702806D0009B83F0100353EAF9
:1025F0000A0305D00EE040228DF80420012208E0F5
:102600005CEA010206D030228DF804208DF8050026
:1026100002229046009B83F0080353EA0A030AD182
:102620005CEA010201D1620705D530228DF8042051
:102630004FF001087F1E582804D034A003900EA844
:1026400002900DE036A0F9E753466046009AFEF787
:1026500093F884460398825C0298401E02900270B0
:102660005CEA0100F0D1029806A9081A00F1200ADC
:10267000600702D524F4803400E00127574502DDCD
:10268000A7EB0A0000E0002000EB0A01009005988B
:102690004144401A0590E00306D45B462146179A50
:1026A000059800F0B3F90544002706E001A85A4652
:1026B000C05D179990476D1C7F1C4745F6DBE00312
:1026C0000CD55B462146179A059800F09FF9054402
:1026D00004E030205A46179990476D1C0099481E17
:1026E00000900029F5DC08E0029802995A4600782B
:1026F000491C0291179990476D1CBAF10001AAF18B
:10270000010AF1DC65E100000928010030313233B3
:10271000343536373839616263646566000000001D
:102720003031323334353637383941424344454607
:102730000000000000F058F90544761C30780028AD
:102740007FF4ECAD19B02846BDE8F08F620700D4E5
:10275000062709F1070222F0070CFCE80223E146F4
:1027600003F000485FEA080C02D00FF2702C0DE075
:102770005FEA045C02D50FF2682C07E05FEAC47CD4
:1027800002D00FF2602C01E0AFF2700C4FF0FF3876
:1027900023F00043CDF850C065280CD006DC452856
:1027A00009D046281DD047283DD13DE0662818D0E5
:1027B00067287ED138E00021112F01DB112000E0D5
:1027C000781CCDE9000106A90EA8FFF7DDFCDDE9C4
:1027D0000F010E9A03910021009207F1010A049162
:1027E0004DE04FF000400097CDE9011006A90EA87A
:1027F000FFF7CAFCDDE90F0203920E9B119900223C
:10280000DDF80CA00093049211B9791C00EB010AC9
:10281000B7EB0A0004D4C0F1FF3007F1010A0490BD
:10282000AAEB0700019044E0012F00DA0127002104
:10283000112F01DD112000E03846CDE9000106A985
:102840000EA8FFF7A1FCDDE90F010E9A039100210C
:1028500004910092BA4621070CD40399514500DA3D
:102860008A46BAF1010F05DD009AAAF10101515C17
:10287000302908D0B84202DA10F1040F06DA01213B
:10288000CDE9011015E0AAF10101E9E7002805DC16
:10289000049901440491AAEB000102E0411C514556
:1028A00000DD8A460499401A401C01904FF0004018
:1028B0000290200704D40198504501DBCDF8048034
:1028C00000208DF84F0002980DF14F07B0F1004F36
:1028D00025D02B200E9002984FF0020800280CDA29
:1028E000404202902D200E9007E00A210298FDF749
:1028F0002DFF3031029007F8011DB8F10001A8F159
:102900000108F2DC02980028EFD1791E0E980870B9
:10291000307800F0200040F0450007F8020D12A8C2
:10292000C01B00F107081498007800B1012000EBEB
:102930000A01019801EBE07105984144401A401EDC
:102940000590E00306D45B462146179A059800F0EF
:102950005DF805441498007818B15A4617999047C5
:102960006D1CE00324D55B462146179A059800F0BC
:102970004DF805441CE00498002807DBDDE903015D
:10298000884203DD0098405C179901E017993020D8
:102990005A469047049805F10105401C049001989F
:1029A000401E019004D12E205A46179990476D1C65
:1029B000BAF10001AAF1010ADDDC05E017F8010B0C
:1029C0005A46179990476D1CB8F10001A8F101080B
:1029D000F4DC5B462146179A0598ABE62D00000013
:1029E0002B000000200000002DE9F04104460025E6
:1029F0001E461746880404D405E039462020B04717
:102A00006D1C641EF9D52846BDE8F0812DE9F04122
:102A1000044600251E469046C80301D5302700E035
:102A20002027880404D505E041463846B0476D1C90
:102A3000641EF9D52846BDE8F08100002DE9F84F65
:102A400004460D4621F0004000917349814211DC9B
:102A50007249884201DC06D12CB120462946BDE8E6
:102A6000F84FFFF76EBB6E48002DCCBF6D496E4925
:102A7000BDE8F88F6D49814211DD6D498142D8BFB3
:102A80004FF0FF366DDD20462946FFF7F1FA0428A6
:102A900008BFFFF75BFB20462946BDE8F88F654974
:102AA000654F25F00045814233DD6449814219DDDF
:102AB000002632464FF0804320462946FDF71CFC95
:102AC00080468A46012220462946FDF73BFF002228
:102AD0003B46FDF7B2FC42465346FDF726FD044651
:102AE0000D463EE001260022BA463B4620462946D6
:102AF000FDF702FC80460F46002253462046294639
:102B0000FDF79BFC42463B46FDF70FFD04460D4694
:102B100027E04B4981421BDDDFF828A10226002275
:102B2000534620462946FDF78EFC00223B46FDF722
:102B3000E3FB80460F460022534620462946FDF718
:102B40007CFC42463B46FDF7F0FC04460D4608E09F
:102B5000032622462B4600203B49FDF7E6FC0446AF
:102B60000D4622462B4610461946FDF76CFC8B4657
:102B7000824602460B46FDF766FC0746024633488E
:102B800088460B4606217844FFF786FA52465B4694
:102B9000FDF759FC82462E488B463A4643460521AE
:102BA0007844FFF779FA3A464346FDF74CFC024673
:102BB0000B46002E504659460CDAFDF79DFB224687
:102BC0002B46FDF740FC01B022462B46BDE8F04FF6
:102BD000FDF736BCFDF790FB22462B46FDF733FC94
:102BE0001C4A7A4402EBC603D3E90023FDF725FC17
:102BF00022462B46FDF721FC174A7A4402EBC60316
:102C0000D3E90023FDF71CFC009A002AB8BF81F02D
:102C10000041BDE8F88F0000000010440000F07F84
:102C2000182D4454FB21F93FFB21F9BF0000DC3F84
:102C30000000203E0000F33F0000F03F0000E63FB0
:102C4000008003400000F83F0000F0BFD6130000F2
:102C50009413000032130000FA1200002DE9F04D29
:102C60009446CCF1000423F000464CEA0404524F91
:102C700046EAD4749A46884621F00042BC4206D8FF
:102C8000454240EA050442EAD474BC4204D9BDE896
:102C9000F04D6246FFF758BAAAF14055A5F17F659D
:102CA00055EA0C040BD0022404EAAA74434DDFF861
:102CB00010E144EAD87452EA000B04D00CE0BDE8FD
:102CC000F04DFFF7BBBE002C14BF012CBDE8F08D0A
:102CD000022C30D0032C32D056EA0C0B0AD0BE4264
:102CE00020D1BA4209D126F0804622F080423346F4
:102CF000114617E000291ADB25E0DFF8C8B0FB44D5
:102D0000002C04BFDBE90001BDE8F08D012C02BFFF
:102D1000DBE9000181F00041BDE8F08D022C0AD012
:102D2000032C0CD0BA4212D1B8F1000F0BDA2348B1
:102D30002549BDE8F08D28462449BDE8F08D284698
:102D40007146BDE8F08D1D482149BDE8F08D921B0C
:102D500012153C2AC4BF19481D490EDCBAF1000FF8
:102D6000BEBF12F13C0F0020014606DB6246FDF7B4
:102D7000DCFB21F00041FFF761FE002C08BFBDE83D
:102D8000F08D012C04BF81F00041BDE8F08D114AA7
:102D9000114B022C07D0FDF750FB2A46BDE8F04D41
:102DA0000A4BFDF74ABBFDF748FB2A46BDE8F04D4C
:102DB000064BFDF745BB00000000F07F182D445482
:102DC000FB2109C08E120000FB21F9BFFB21094045
:102DD000FB21F93F075C143326A6A13C08B501216D
:102DE0000420FEF777FD0120ADF8000004208DF8E7
:102DF000030069460948FEF748F801211020FEF754
:102E000069FD4FF40050ADF8000004208DF8030078
:102E100069460348FEF739F808BD00000008014084
:102E20000010014070B504460F48008800FB04F50F
:102E3000B5F1807F01D36FF07F452846FEF7A0FEF5
:102E40000020FEF757FE0120FEF754FE00BF1020C1
:102E5000FEF76BFE05490870084600780128F6D198
:102E6000C01EFEF747FE70BDBA000020BC00002067
:102E700070B504460D460F4890F90000401C08B993
:102E8000204670BD00BF0C490A4A92F9002051F853
:102E900022004021FFF75CF80028F4D0E1B2064A96
:102EA000044B93F9003052F82300FFF7CBF820468B
:102EB000E7E7000000010020C40000202DE9FC47E6
:102EC0004FF0000A00BF2CE0184931F81A00FDF756
:102ED000A9FB06460022164BFDF727FB04460022FD
:102EE000144BFDF7B0FA80460022134BFDF7A5FA0C
:102EF000CDE90001FDF7FAFB104941F82A0051F82D
:102F00002A000F49FDF718FC01D20D4802E00B48DA
:102F100050F82A00094941F82A000AF1010000F09E
:102F2000FF0ABAF1020FCFDBBDE8FC872C000020BE
:102F300000E06F4000005940008040403000002019
:102F40000000F0412DE9F04F91B09B4801689B488B
:102F50000068FDF761F906469948016899480068DC
:102F6000FDF75AF907463146FDF750F905464FF08F
:102F70008041FDF751F90446914801688E48006888
:102F8000FDF74AF906468F4801688C480068FDF74E
:102F900043F907463146FDF7E7F805464FF0804113
:102FA000FDF73AF98146864801680068FDF734F973
:102FB0000746814801680068FDF72EF98046814880
:102FC00001680068FDF728F983467C4801680068BD
:102FD000FDF722F959460F90FDF718F906464146CC
:102FE000FDF714F905463946FDF7BEF8824651460D
:102FF0005046FDF711F9214601902046FDF70CF9E6
:1030000000900199FDF7B0F88346FDF72CFBCDE960
:10301000020100F06DFECDE904014846FDF723FBF7
:103020000746DDE90423FDF780FACDE90601FFF745
:1030300005FD05460022644BFDF705FA634A644B23
:10304000CDE90801FDF771FA624A634BCDE90A0147
:10305000FDF7F3F94FF03332604BCDE90C01FDF78A
:10306000ECF9CDE90E01FDF741FB5D4908605146E1
:103070005046FDF7D1F8494601904846FDF7CCF897
:1030800000900199FDF770F88346FDF7ECFA0546CC
:1030900000F02EFECDE904012046FDF7E4FACDE96B
:1030A0000201DDE90423FDF740FACDE90601FFF74F
:1030B000C5FC81F0004107460022434BFDF7C3F9F0
:1030C000424A434BCDE90801FDF72FFA454A464BEA
:1030D000CDE90A01FDF7B1F94FF03332434BCDE9A9
:1030E0000C01FDF709F9CDE90E01FDF7FFFA3C49A6
:1030F0004860344801684FF08040FDF78DF8834602
:10310000304801685846FDF787F807462B480168A4
:103110004FF08040FDF780F8834628480168584604
:10312000FDF77AF880463946FDF71EF806464FF05F
:103130007E51FDF76BF80546FDF795FACDE90801DC
:103140001E4801684FF08040FDF766F880461C4835
:1031500001684046FDF760F806461A4801684FF0DE
:103160008040FDF759F88046134801684046FDF756
:1031700053F807463146FDF749F80546FDF773FA5F
:10318000CDE90601DDE90823FFF768FD00220E4BBB
:10319000CDE90A01FDF757F90C4A0D4BCDE90C01B9
:1031A000FDF7C3F9CDE90E01FDF7A0FA0C498860DF
:1031B00011B0BDE8F08F00001001002008010020D0
:1031C000140100200C01002000806640EA2E4454C7
:1031D000FB2109404772F90FE93701C03333104032
:1031E00048010020E9482EFF217D07C0333301400C
:1031F00010B51148B0F90000FDF706FA04460F4972
:10320000FDF73CF80E4908600E48B0F90000FDF7E4
:10321000FBF904460C49FDF731F80C4908600C48ED
:10322000B0F90000FDF7F0F904460A49FDF726F869
:103230000949086010BD00003E000020004480469F
:103240006400002040000020002680466800002026
:103250004200002000B081466C00002010B51449E7
:10326000B1F90010A1F13700FDF7CEF9044611497C
:10327000FDF704F8104908601049B1F90010A1F1F8
:103280000800FDF7C1F904460A49FCF7F7FF0C49AD
:1032900008600C49B1F9001001F10D00FDF7B4F917
:1032A00004460449FCF7EAFF0749086010BD000026
:1032B0003800002000000343500000203A000020A6
:1032C000540000203C0000205800002001480088E5
:1032D00070470000BE0000202DE9F04704464FF083
:1032E0007C512046FCF798FF814625462E460C4827
:1032F000A0EB6606354629464846FCF78DFF824618
:103300002946FCF789FF80464FF07F51FCF781FF8B
:1033100007462946FCF780FF05462846BDE8F087AA
:10332000DF59375F00B587B001211020FEF7D2FAD0
:103330003020ADF8180000208DF81B0003208DF818
:103340001A0006A92C48FDF7A0FD01211020FEF768
:10335000C1FA0420ADF818008DF81B0003208DF889
:103360001A0006A92448FDF790FD06A92248FDF79A
:103370008CFD01214802FEF7ADFA002001900120EA
:103380008DF808008DF809004FF4602003900020AC
:10339000049002208DF8140001A91848FDF79EFB47
:1033A0004FF40040FEF76AFA062301220E2113486B
:1033B000FDF7BCFB062302220F211048FDF7B6FBE8
:1033C00001210E48FDF760FB0C48FDF70BFC00BF28
:1033D0000A48FDF779FB0028FAD10848FDF712FCEE
:1033E00000BF0648FDF766FB0028FAD1012103481B
:1033F000FDF7FDFB07B000BD0010014000240140B7
:1034000086B0FDF7FDFEFDF705FCFDF701FE00F0BF
:1034100091FB4FF4E131002000F0D0FCFFF782FF78
:10342000FDF7FAFC00F0CCFB00F088FCFFF7D6FCBF
:103430000220FDF709FFF1A0FEF70AFEDDE1FFF72C
:1034400045FFF0490988471A002F01DB384600E0A4
:10345000784284B20A2C00DCCFE1FFF737FFE9495C
:10346000088000F025FAFFF7F9FEFFF7C1FEFFF72D
:1034700025FDE5480068FDF7F6F8E44AE44BCDE9A0
:103480000001FCF7E0FF07460022E24BFDF74DF894
:103490008246FDF72BF90590DF480068FDF7E3F859
:1034A000DA4ADB4BCDE90001FCF7CDFF8246002272
:1034B000D84BFDF73AF80746FDF718F90490D748BE
:1034C0000068FDF7D0F88246D04AD14BFCF7BBFF2D
:1034D0000022D04BCDE90001FDF727F80746FDF7A4
:1034E00005F90390CE480168CE480068CDE9000197
:1034F000CD48036803A807C8FDF7ACFEFFF722FD1F
:103500002146CAA0FEF7A4FDCB498868CB49FCF749
:103510007DFE0190FDF7A7F807460022BD4BFDF7A1
:1035200004F80022C64BCDE90201FCF78CFF002213
:10353000C44BCDE90401FCF7DFFE8246FDF7D6F867
:103540000546BD494868BD49FCF760FE0190FDF79E
:103550008AF80022AF4BCDE90201FCF7E6FF824674
:103560000022B74BFCF76FFF07460022B54BFCF774
:10357000C3FECDE90401FDF7B9F80646AE49086877
:10358000AE49FCF743FE0190FDF76DF80022A14B18
:10359000CDE90201FCF7C9FF0022A94BCDE90401E6
:1035A000FCF751FF07460022A64BFCF7A5FE82461A
:1035B000FDF79CF88146A0498868FDF754F8074656
:1035C00088469D494868FDF74EF882468B469A49E1
:1035D0000868FDF748F802460B46CDE900ABCDE997
:1035E0000278CDE9040198A0FEF732FD4846FDF7C8
:1035F0003AF8CDE904013046FDF735F8074688462C
:103600002846FDF730F882460B46DDE904015246B4
:10361000CDE90078CDE9020190A0FEF719FD95A053
:10362000FEF716FD3046FDF70AF887B2394601204D
:1036300000F02EFB85F000484046FDF700F887B209
:103640003946002000F024FB04218B48FDF7A8FC3C
:10365000F0B900BF04218848FDF7A2FC0028F9D08A
:1036600086480188002000F013FB8448418801202F
:1036700000F00EFB81488188022000F009FB202029
:10368000FDF7E2FD0120FDF7D9FD0220FDF7DCFD8D
:1036900001217B48FDF784FCF0B100BF012178488F
:1036A000FDF77EFC0028F9D176480188002000F063
:1036B000EFFA74484188012000F0EAFA71488188E5
:1036C000022000F0E5FA2020FDF7BEFD0120FDF705
:1036D000B5FD0220FDF7B2FD4FF400516648FDF73D
:1036E0005FFC00287ED000BF4FF400516248FDF718
:1036F00057FC0028F8D10120FDF7A6FD2020FDF79A
:103700009DFD0220FDF79AFD75E05F490868FCF712
:10371000AAFF074600225D4BFCF7D0FF09D35A49A8
:103720000868FCF7A0FF07460022594BFCF7AEFFE4
:1037300024D258490888FCF770FF83465248016834
:103740005846FCF711FD8246FCF78DFF07463A46C6
:103750000B4651A0FEF77CFC4E490888FCF75DFF44
:103760008246494801685046FCF7FEFC8046FCF75B
:1037700066FF87B23946002000F08AFA424948685D
:10378000FCF771FF07460022404BFCF797FF09D377
:103790003D494868FCF767FF074600223C4BFCF7B1
:1037A00075FF28D23B49091D0888FCF736FF834680
:1037B000354841685846FCF7D7FC8246FCF753FF72
:1037C00007463A460B4637A0FEF742FC3149091D31
:1037D0000888FCF722FF82462B4841685046FCF7D8
:1037E000C3FC00E008E08046FCF729FF87B23946B9
:1037F000012000F04DFA88E700BF20E668616C6F99
:10380000000000002800002058000020EA2E445448
:10381000FB21094000806640540000205000002039
:103820006C00002068000020640000207469636B55
:10383000733A2025750D0A00480100200000B442AB
:1038400000409F400088A340523A256620503A2508
:103850006620593A25660D0A00000000414E474C8B
:103860004520523A256620503A256620593A256669
:103870000D0A00000A00000000100140F23E00089E
:1038800000080140E63E000830000020000024400F
:10389000000024C0380C00406D6F7665205820254C
:1038A000660D0A006D6F766520592025660D0A00A9
:1038B0002DE9F0470E222B493B2000F069F82948FA
:1038C00040782849097840EA012000B2264908805A
:1038D0002448C0782349897840EA012000B223496E
:1038E0000880204840791F49097940EA012000B248
:1038F0001F4908801B49C9791A4A927941EA022175
:1039000008B2FCF781FE81461A49FCF7B7FC044671
:10391000FCF7A9FE0746184A184BFCF7EDFC0546D4
:10392000FCF7E4FE164908600E48407A0D49097A12
:1039300040EA012000B2134908800A48C07A0949C8
:10394000897A40EA012000B20F4908800548407B8F
:103950000449097B40EA012000B20C490880BDE817
:10396000F0870000340100203E00002040000020CD
:10397000420000200000AA43A4703D0AD743424001
:1039800074000020380000203A0000203C00002095
:103990002DE9F04106460F46144600BF4FF40031B2
:1039A0003648FDF789FB0028F8D101213348FDF79F
:1039B0006BFB00BF32493148FDF709FB0028F9D005
:1039C0000022D0212D48FDF70FFC00BF2D492B48C8
:1039D000FDF7FDFA0028F9D031462848FDF70DFC27
:1039E00000BF2849891C2548FDF7F1FA0028F8D0C6
:1039F00001212248FDF754FB00BF23491F48FDF772
:103A00005BFB0028F9D101211C48FDF73DFB00BFFD
:103A10001B491A48FDF7DBFA0028F9D00122D12111
:103A20001648FDF7E1FB00BF1549491C1348FDF797
:103A3000CEFA0028F8D0002518E0012C07D100218B
:103A40000E48FDF7B8FA01210C48FDF729FB0C4997
:103A50003F310A48FDF7BBFA40B10848FDF7C0FB0B
:103A60000A494855681CC5B2601EC4B2002CE4D196
:103A700001210248FDF79FFABDE8F081005800409F
:103A80000100030082000700100000103401002034
:103A90002DE9F04105460E46174601212248FDF763
:103AA000F3FA00BF21492048FDF706FB0028F9D0B2
:103AB0000022D0211C48FDF797FB00BF1C491A4883
:103AC000FDF785FA0028F9D029461748FDF795FB40
:103AD00000BF1749891C1448FDF779FA0028F8D06F
:103AE000002410E0315D1048FDF787FB00BF10494E
:103AF000891C0D48FDF76BFA0028F8D00120FFF76C
:103B000091F9601CC4B2BC42ECDB01210648FDF710
:103B1000C7FA00BF05490F310348FDF7CDFA002869
:103B2000F8D1BDE8F081000000580040010000100D
:103B30008200070010B50A20FFF774F980201E49A3
:103B4000087001226B20FFF7A3FF0A20FFF76AF934
:103B500000201949087001226B20FFF799FF0A2005
:103B6000FFF760F900201449087001226A20FFF76E
:103B70008FFF0A20FFF756F902200F490870012233
:103B80003720FFF785FF0A20FFF74CF907200A4985
:103B90000870002048708870C87004221920FFF750
:103BA00077FF0A20FFF73EF90448006840F0010063
:103BB0000249086010BD0000200100200C0C0140EB
:103BC00000B589B001210420FDF784FE0121082001
:103BD000FDF770FE0E20ADF8040018208DF80700E8
:103BE00003208DF8060001A92648FDF74EF944F69A
:103BF0001F60ADF81C004820ADF818000020ADF89B
:103C00001E00ADF81A0006A91F48FEF743F9602010
:103C1000ADF808000120ADF80A0040F2DC50ADF824
:103C20000E000020ADF8100002A91748FEF72CF88E
:103C300002A91548FEF788F802A91348FEF7DEF836
:103C400001211148FEF772F801210F48FEF7CCF868
:103C500001210D48FEF710F901210B48FDF7EEFF99
:103C60000A480188002000F013F808484188012024
:103C700000F00EF805488188022000F009F809B02C
:103C800000BD000000080140000C0040F23E0008AA
:103C9000144A32F810208A4203DA124A32F810200D
:103CA00000E00A461146104A32F810208A4203DD2D
:103CB0000D4A32F8102000E00A46114620B10128D2
:103CC00005D002280BD106E0084A118008E0074A17
:103CD000121D118004E0054A0832118000E000BF87
:103CE00000BF7047E63E0008EC3E0008380C00407C
:103CF0002DE9F04106460F46FCF73BFE041E0D463B
:103D000018BF0120284320F00040C0F17F6000F17F
:103D1000E040C00F0ED0301C18BF0120384320F007
:103D20000040C0F17F6000F1E040C00F04BF0120FF
:103D3000FEF724FA20462946BDE8F0811FB501218F
:103D40000846FDF7B7FD4FF47A70ADF80400174848
:103D500000681749B0FBF1F0401E80B2ADF80000DA
:103D600069464FF08040FEF795F801218807FDF77E
:103D700062FF012211469007FDF77DFF01218807B0
:103D8000FDF75CFF00208DF80D008DF80E0001207E
:103D90008DF80F001C208DF80C0003A8FDF734FDF2
:103DA000002004490880044908801FBD000000204D
:103DB00040420F00C0000020BE00002030B585B09A
:103DC00004460D46294951F82410294A52F8242066
:103DD000114341F001000121FDF77CFD34B9254973
:103DE00051F824000121FDF775FD05E0214951F846
:103DF00024000121FDF75EFD18208DF813001E48F8
:103E000030F81400ADF8100003208DF812001B49A3
:103E100051F8240004A9FDF738F804208DF81300A8
:103E2000174830F81400ADF81000164951F8240076
:103E300004A9FDF72AF800950020ADF80400ADF8BC
:103E40000600ADF80800ADF80C000C20ADF80A0033
:103E50000D4951F824006946FEF788F80A4951F8DF
:103E600024000121FEF768F805B030BDA03E00082F
:103E7000B43E00088C3E0008C83E0008D800002070
:103E8000D23E0008EC000020C400002000400000EA
:103E9000000002000000040000000000000000001C
:103EA0000400000004000000080000000000000002
:103EB00000000000040000000400000008000000F2
:103EC00000000000000000000002040000040000E8
:103ED0000000000408000008000000002500260083
:103EE00027000000000060092E096009A802C60230
:103EF0005802DC05FA05DC054FBB610567ACDD3F08
:103F0000182D4454FB21E93F9BF681D20B73EF3F00
:103F1000182D4454FB21F93FE2652F227F2B7A3C78
:103F2000075C143326A6813CBDCBF07A8807703C31
:103F3000075C143326A6913CC4EB98999999C9BFA4
:103F4000711623FEC671BCBF6D9A74AFF2B0B3BFD9
:103F50009AFDDE522DDEADBF2F6C6A2C44B4A2BF99
:103F60000D5555555555D53FFF8300922449C23F05
:103F70006E204CC5CD45B73F513DD0A0660DB13F39
:103F8000EB0D76244B7BA93F11DA22E33AAD903F4B
:103F90000000000000000000B83F00080000002002
:103FA000200100005C210008D8400008200100200A
:103FB000400400006C21000800A24A040000000038
:103FC00000000000010203040607080900000000C9
:103FD000010203040102030406070809020406089B
:103FE00000000000000000000000000000000000D1
:103FF00000000000000000000000000000000000C1
:1040000000000000000000000000000000000000B0
:1040100000000000000000000000000000000000A0
:104020000000000000000000000000000000000090
:104030000000000000000000000000000000000080
:104040000000000000000000000000000000000070
:104050000000000000000000000000000000000060
:104060000000000000000000000000000000000050
:1040700000000000000000000000000000380140C7
:104080000044004000480040000000000000000024
:104090000008014000080140000C01400000000041
:1040A000000000000008014000080140000C014031
:1040B000000000000000000000000000CDCCCC3D5E
:1040C0000000803F00000000000000000000000031
:0840D0000000000000000000E8
:0400000508000131BD
:00000001FF
