:020000040800F2
:1000000060050020450100089D1700084B0F0008FF
:1000100099170008A70B0008E51F00080000000062
:100020000000000000000000000000007919000836
:10003000210E00080000000011180008F11A000845
:100040005F0100085F0100085F0100085F01000810
:100050005F0100085F0100085F0100085F01000800
:100060005F0100085F0100085F0100085F010008F0
:100070005F0100085F0100085F0100085F010008E0
:100080005F0100085F0100085F0100085F010008D0
:100090005F0100085F0100085F0100085F010008C0
:1000A0005F0100085F0100085F0100085F010008B0
:1000B000811B00085F0100085F0100085F01000864
:1000C0005F0100085F0100085F0100085F01000890
:1000D0005F0100085F0100085F0100085F01000880
:1000E0005F0100085F0100085F0100085F01000870
:1000F0005F0100085F0100085F0100085F01000860
:100100005F0100085F0100085F0100085F0100084F
:100110005F0100085F0100085F0100085F0100083F
:100120005F0100085F0100085F0100085F0100082F
:10013000DFF80CD000F052FC004800475D330008A7
:10014000600500200648804706480047FEE7FEE7B6
:10015000FEE7FEE7FEE7FEE7FEE7FEE7FEE7FEE777
:10016000211B000831010008F0B480EA0102D40F1D
:100170004200B2EB410F02D20246084611464A0045
:1001800042D0C30DDDB2C1F3C752AD1A202D35DA0E
:10019000C1F3160141F4000204B15242C5F1200638
:1001A00002FA06F12A411044B3EBD05F23D0C4B168
:1001B000012DA0EBC35009DCF0BC4FF0004202EA75
:1001C000C352DBB200F5000000F0E5BA400000F1D8
:1001D000807000EBC350A0F1807040EAD1704900FC
:1001E00009E0490841EAC071A0EBC35000F50000E6
:1001F000400800EBC350F0BC00F0C4BA61420122D9
:1002000002EB4101001BF6E7F0BC704781F00041B2
:10021000AAE780F00040A7E780EA010210B502F0EB
:100220000043400022D04A001FD0010E01EB1261B2
:10023000C0F35600C2F3560240F4000042F400023C
:10024000A0FB022000047F39140400D0401C50EAB7
:10025000124001D44000491EC2B20C0604EBD0107B
:10026000401C4008802A02D003E0002010BD20F08E
:100270000100002900DA0020184310BD30B480EAE4
:10028000010202F0004530F0004221F0004013D09E
:1002900090B1C30DD40DC2F31601C0F31600E41AD9
:1002A00041F4000140F400027D34914201D3641C0A
:1002B00000E04900002C02DA30BC002070474FF407
:1002C00000000023914201D3891A034340084FEAFA
:1002D0004101F7D151B1914202D14FF0004105E007
:1002E00002D24FF0010101E06FF0010103EBC450B5
:1002F000284430BC00F046BA2DE9FE4F804681EA22
:100300000300C00F0C46009021F0004123F000458F
:10031000B8EB0200A94105D24046214690461C4652
:100320000B46024623F00040104347D0270DC7F389
:100330000A00C3F30A510290401A019040286BDA78
:10034000C3F3130040F4801B0098924620B10023B1
:10035000D2EB030A63EB0B0B01985946C0F1400244
:10036000504600F0EEF906460D4650465946019AB1
:1003700000F0F6F910EB08006141002487EA115201
:1003800084EAE7731A4340D0009A62B3019A012AC3
:100390004FEA075215DC001B61EB02014FF00042EF
:1003A00002EA0752CDE90042001C41F580113246B5
:1003B0002B4600F02DFA03B0BDE8F08F40462146F1
:1003C000F9E7001B61EB0201001C41F580130018E6
:1003D0005B412018A2F5001747EB030140EAD570F6
:1003E000B6196D4111E06D084FEA360645EAC07551
:1003F0004FEA0752001B61EB0201001C41F580111E
:1004000049084FEA30000019514132462B4603B0EB
:10041000BDE8F04F00F0EDB9009801224000002344
:10042000D0EB020263EBE073009821464FEAE074E0
:10043000B8EB000061EB0401E9E783F000435BE700
:1004400081F0004158E72DE9FE4F81EA030404F0F2
:10045000004421F0004100944FF0000B23F00043D2
:1004600050EA01045ED052EA03045BD0C3F30A549D
:10047000C1F30A552C44A4F2F3340194A0FB0254B6
:10048000C1F3130141F48011C3F3130343F4801348
:1004900001FB024400FB034E840A970A44EA81549C
:1004A00047EA8357A4FB076802958D0A05FB078579
:1004B0004FEA932C04FB0C542705029D4FEA065883
:1004C00047EA1637B5EB08056EEB070C870E920E60
:1004D00047EA811742EA8312A7FB0201B6EB0B0140
:1004E00064EB00042B0D43EA0C335E1844EB1C5004
:1004F000DA465146E7FB0201C5F313044FEA0B331A
:1005000043EA14534FEA0432019C43EA0603A4F180
:100510000C040294009CCDE900B400F079F903B01A
:10052000BDE8F08F00200146F9E72DE9F04D81EAA2
:10053000030404F0004B21F0004514464FF0000A7C
:1005400023F0004150EA050220D054EA01021DD0F8
:10055000C5F30A570246C5F31303C1F31300C1F3F1
:100560000A5640F4801543F48013A7EB0608101BCD
:10057000D64608F2FD3873EB050002D308F10108F6
:1005800001E092185B41B8F1000F03DA0020014648
:10059000BDE8F08D00204FF48011064684460EE041
:1005A000171B73EB050705D3121B63EB050306430B
:1005B0004CEA010C49084FEA300092185B4150EABE
:1005C0000107EDD152EA030012D082EA040083EA67
:1005D0000501084305D0101BAB4106D201220023C0
:1005E00006E000224FF0004302E06FF001025310DA
:1005F0001AEB06004CEB085110EB0A0041EB0B0123
:10060000BDE8F04D00F0F5B8C10F80EAE070084495
:10061000CA079623002100F0BEB820F00040C10DAB
:10062000C0F3160040F400007F2901DA0020704773
:10063000962903DCC1F19601C8407047963988407D
:10064000704700F0004230F000400AD0C10D01F5C3
:100650006071C0F3160042EA0151C208400711431D
:10066000704700200146704701F0004330B421F08C
:10067000004150EA010206D00A0DA2F56072C1F3F2
:100680001301002A02DC30BC00207047440F44EA0A
:10069000C104C100E01830BC00EBC25000F072B8D9
:1006A000002801DBC0F10040002901DBC1F100415D
:1006B0008142704730B50B460146002020220124BC
:1006C00009E021FA02F59D4205D303FA02F5491B20
:1006D00004FA02F52844151EA2F10102F1DC30BD36
:1006E0002DE9F05F0546002092469B468846064667
:1006F000814640241BE0284641464746224600F0FA
:100700007FF953465A46C01A914110D311461846F4
:10071000224600F016F82D1A67EB01084F462246D4
:100720000120002100F00DF817EB00094E41201EBA
:10073000A4F10104DFDC484631462A464346BDE8C1
:10074000F09F202A04DB203A00FA02F100207047D3
:100750009140C2F1200320FA03F3194390407047FF
:10076000202A06DBCB17203A41FA02F043EAE07375
:1007700006E041FA02F3D040C2F120029140084362
:10078000194670470029A8BF7047401C490008BFA0
:1007900020F00100704710B4B0FA80FC00FA0CF0B1
:1007A00050EA010404BF10BC704749B1CCF12004E9
:1007B00021FA04F411FA0CF118BF01212143084376
:1007C000A3EB0C01CB1D4FEA00614FEA102042BFA2
:1007D000002010BC704700EBC35010440029A4BF98
:1007E00010BC7047401C490008BF20F0010010BC3D
:1007F000704710B5141E73F1000408DA401C41F173
:10080000000192185B411A4301D120F0010010BD94
:100810002DE9F04D92469B4611B1B1FA81F202E00A
:10082000B0FA80F220329046FFF78BFF04460F4665
:1008300040EA0A0041EA0B0153465A46084313D0E6
:10084000114653EA010019D0C8F14002504600F0A9
:10085000D7F805460E46504659464246FFF771FF07
:10086000084305D0012004E020463946BDE8F08D5C
:100870000020054346EAE0762C4337430A98630597
:10088000E40AA0EB08000022FD0A44EA47540A30BB
:1008900002D500200146E9E7010510196941DDE9AB
:1008A000084500196941BDE8F04DA2E770B521F097
:1008B000004303430CD0C1F30A550024D5EB0405D3
:1008C00064EB0403D617AD1AB34102DB00200146E6
:1008D00070BD201841EB025170BD2DE9F04D002391
:1008E0001A461B1A8A4103DB00200146BDE8F08D41
:1008F000C1F30A52C1F3130141F480154FF0000B0C
:10090000D10702D100186D41521E0027044640F263
:10091000FF11384601EB620A3E468046024600203F
:100920004FF4801100F06CF8C2197141BB1846EB0E
:100930000100B4EB030C75EB000C04D3E41A65EB77
:10094000000517460E46241908F101006D41804646
:100950003428E3DDF91946EB0600091BA84103D250
:100960004FF0FF32134601E0002213461BEB070055
:1009700046EB0A51BDE8F04DFFF73BBFC1F30A5209
:10098000C1F3130140F2FF3341F480119A4202DABD
:1009900000200146704740F233439A42A2F23342AC
:1009A00002DC524200F02CB8FFF7CBBE30B5041E7B
:1009B00071F1000404DB4FF00044404264EB01019C
:1009C000141E73F1000405DB1C464FF00043524235
:1009D00063EB0403994208BF904230BD064C074DBB
:1009E00006E0E06840F0010394E8070098471034FF
:1009F000AC42F6D3FFF7A0FBB03D0008D03D0008A5
:100A0000202A04DB203A21FA02F00021704721FA63
:100A100002F3D040C2F120029140084319467047CA
:100A200021B1826842F00102826003E0826822F014
:100A300001028260704721B1826842F48072826054
:100A400003E0826822F480728260704701460020D1
:100A50008A6802F004020AB1012000E00020704719
:100A6000014600208A6802F008020AB1012000E075
:100A70000020704730B502460020002350680F4C1C
:100A800020400D790C6844EA0524204350609068AA
:100A90000B4C2040D1E902542C434D7944EA4504E3
:100AA00020439060D06A20F470000C7C641EE4B295
:100AB000234340EA0350D06230BD0000FFFEF0FF48
:100AC000FDF7F1FFF0B504460D4600200021092D89
:100AD00011DDE068A5F10A0606EB4607072606FACF
:100AE00007F18843A5F10A0606EB460603FA06F16C
:100AF0000843E0600CE0206905EB4507072606FA8D
:100B000007F1884305EB450603FA06F10843206127
:100B1000072A0FDA606B561E06EB86071F2606FAB9
:100B200007F18843561E06EB860605FA06F10843D0
:100B3000606322E00D2A0FDA206BD61F06EB8607D2
:100B40001F2606FA07F18843D61F06EB860605FA2C
:100B500006F10843206310E0E06AA2F10D0606EBFF
:100B600086071F2606FA07F18843A2F10D0606EB59
:100B7000860605FA06F10843E062F0BD816841F09F
:100B800008018160704721B1826842F4A00282604E
:100B900003E0826822F4A00282607047816841F01D
:100BA00004018160704700BFFEE7000000B585B01A
:100BB000684600F06BFE002000F0D2FE6FF00400EB
:100BC00000F050FF002000F094FF09490198B0FBAD
:100BD000F1F0084908704FF4FA510198B0FBF1F0B8
:100BE00005490880142002F0E9F805B000BD0000B6
:100BF00000127A00B4000020B600002021B1026883
:100C000042F00102026004E002684FF6FE731A40EF
:100C10000260704701684FF6FE72114001600021CA
:100C2000016041608160C1604B49884208D14A49F6
:100C30000839496841F00F01474A083A51608AE093
:100C400045491431884208D143490839496841F07F
:100C5000F001414A083A51607DE03F49283188421D
:100C600008D13D490839496841F470613A4A083A67
:100C7000516070E038493C31884208D13649083922
:100C8000496841F47041344A083A516063E032499E
:100C90005031884208D130490839496841F47021FF
:100CA0002D4A083A516056E02B496431884208D1F8
:100CB00029490839496841F47001274A083A5160C6
:100CC00049E025497831884208D1234908394968E3
:100CD00041F07061204A083A51603CE01F49884267
:100CE00006D1011F096841F00F01021F116032E0B7
:100CF0001A491431884208D11849091F096841F07E
:100D0000F001164A121F116025E01449283188426B
:100D100008D11249091F096841F470610F4A121F76
:100D2000116018E00D493C31884208D10B49091F78
:100D3000096841F47041094A121F11600BE007492C
:100D40005031884207D10549091F096841F47021D3
:100D5000024A121F11607047080002400804024056
:100D60001AB103680B43036002E003688B4303601E
:100D7000704710B50022026847F6F0739A430C6A78
:100D80008B6823430C6923434C6923438C692343B9
:100D9000CC6923434C6A23438C6A23431A43026081
:100DA000CB6843600B6883604B68C36010BD000074
:100DB00000B58BB00121084600F038FD1548FFF75B
:100DC00029FF15480090154801900220039000204B
:100DD0000290049080200590C0000690079020208B
:100DE00008900002099000200A9069460948FFF720
:100DF000C0FF012202210748FFF7B2FF0121064888
:100E00004C38FFF718FE01210248FFF7F7FE0BB040
:100E100000BD0000080002404C2401402A000020D0
:100E200070472DE9F04102460025002600200023EE
:100E30000024002791F803C00CF00F0591F803C0BF
:100E40000CF0100CBCF1000F03D091F802C04CEA7A
:100E5000050591F800C0BCF1000F31D014680020E6
:100E60002BE04FF0010C0CFA00F3B1F800C00CEAD3
:100E700003069E4220D183004FF00F0C0CFA03F7BB
:100E8000BC4305FA03FC4CEA040491F803C0BCF12E
:100E9000280F06D14FF0010C0CFA00FCC2F814C068
:100EA0000AE091F803C0BCF1480F05D14FF0010CE6
:100EB0000CFA00FCC2F810C0401C0828D1D3146002
:100EC000B1F800C0BCF1FF0F34DD546800202EE003
:100ED00000F1080C4FF0010808FA0CF3B1F800C05B
:100EE0000CEA03069E4221D183004FF00F0C0CFA4E
:100EF00003F7BC4305FA03FC4CEA040491F803C071
:100F0000BCF1280F05D100F1080C08FA0CF8C2F862
:100F1000148091F803C0BCF1480F07D100F1080C10
:100F20004FF0010808FA0CF8C2F81080401C08289D
:100F3000CED35460BDE8F0810246002093680B4098
:100F40000BB1012000E00020704700BFFEE721B197
:100F5000028842F48062028004E002884FF6FF3388
:100F60001A400280704770B5024600240025002315
:100F70000020958A138B1B0445EA030626F07F4464
:100F800004EA01068E4201D1012000E0002070BD7C
:100F900021B1028842F00102028004E002884FF68B
:100FA000FE731A400280704700B585B001218805A4
:100FB00000F04CFC0121082000F058FC4FF4406088
:100FC000ADF8100001208DF812001C208DF81300E0
:100FD00004A91048FFF725FF4FF48060ADF80A0020
:100FE0000001ADF80C000C4800904BF6FF70ADF816
:100FF00006000020ADF804000120ADF808006946A5
:10100000064800F043F801210448FFF7C1FF05B08E
:1010100000BD0000000C0140A08601000058004007
:1010200021B1028842F48072028004E002884FF607
:10103000FF631A400280704721B1028842F40072B7
:10104000028004E002884FF6FF531A400280704786
:101050000CB50246002000230193009300920B0F71
:10106000019321F07F41019B1BB1009B143300933E
:1010700003E0090C009B18330093009B1B680B4096
:101080000BB1012000E000200CBD00002DE9F04371
:1010900085B004460D460026B1460427DFF8CC8013
:1010A000A6884FF6C0700640684600F0EFFBDDF8FA
:1010B00008802F48B8FBF0F01FFA80F946EA0906CD
:1010C000A68020884FF6FE7108402080002629491E
:1010D000286888420CD828684000B8FBF0F087B236
:1010E000042F00DA04273E4309F10100208427E0A1
:1010F000E8884BF6FF71884206D1286800EB400073
:10110000B8FBF0F087B209E0286800EBC00101EB02
:101110000010B8FBF0F087B247F48047C7F30B002C
:1011200008B947F0010747F4004006434FF49670B2
:1011300009FB00F04FF47A7190FBF1F0401C208421
:10114000A683208840F00100208026884FF6F530E5
:101150000640A8886989084306432680A88929890A
:101160000843208105B0BDE8F083000000127A003A
:1011700040420F00A08601000146088AC0B27047B5
:1011800012B141F0010102E04FF6FE7319400182F5
:10119000704701827047000008B50121082000F067
:1011A00065FB2320ADF8000010208DF8030003201C
:1011B0008DF8020069460648FFF733FE202000F054
:1011C00009F8012000F006F8022000F003F808BD3D
:1011D000000C01400149086070470000100C0140FC
:1011E0000149086070470000140C01400FB5A5B01C
:1011F000FE4827990068FFF70FF80D90FC482699E4
:101200000068FFF709F80B90FA48006880F000408A
:1012100009902599FFF700F80A900B99FEF7F6FF61
:101220000C900D99FEF7F2FF4FF07C510E90FEF7F7
:10123000F3FF1F90ED4826990068FEF7EDFF0D9033
:10124000EB4827990068FEF7E7FF0B90EA48016832
:101250002598FEF7E1FF0A900B99FEF785FF0C90A9
:101260000D99FEF7D3FF4FF07C510E90FEF7D4FF9F
:101270001E90DE4801682598FEF7CEFF0D90DD48F0
:1012800027990068FEF7C8FF0B90DB482699006895
:10129000FEF7C2FF0A900B99FEF7B8FF0C900D996C
:1012A000FEF762FF4FF07C510E90FEF7B5FF1D90E8
:1012B000CF4801682598FEF7AFFF0D90CD482699DD
:1012C0000068FEF7A9FF0B90CB4827990068FEF74E
:1012D000A3FF0A900B99FEF747FF0C900D99FEF7BC
:1012E00095FF4FF07C510E90FEF796FF1C90002169
:1012F0002898FFF7D5F909D100212A98FFF7D0F9EE
:1013000004D100212B98FFF7CBF97DD02B9908460B
:10131000FEF782FF0D902A990846FEF77DFF0B909D
:1013200028990846FEF778FF0A900B99FEF71CFFF4
:101330000C900D99FEF718FF0E9001F07BFF2490A2
:1013400024992898FEF768FF289024992A98FEF798
:1013500063FF2A9024992B98FEF75EFF2B90A648F6
:1013600001684FF08040FEF757FF1B90A1480168CD
:101370004FF08040FEF750FF1A909D4801684FF0F3
:101380008040FEF749FF1990984801684FF080406F
:10139000FEF742FF1890984801684FF08140FEF731
:1013A0003BFF1790934801684FF08140FEF734FFF0
:1013B00016908F4801684FF08140FEF72DFF159081
:1013C0008C4801684FF08240FEF726FF1490884851
:1013D00001684FF08240FEF71FFF139086480168B6
:1013E0000068FEF719FF1290824801680068FEF756
:1013F00013FF11907E4801680068FEF70DFF109002
:101400007A480168006800E044E1FEF705FF0F90AC
:101410002A991A98FEF700FF0E9011991798FEF777
:10142000FBFE0C9028991998FEF7F6FE0A90109989
:101430001798FEF7F1FE09900A99FEF795FE0B90BA
:101440000C99FEF791FE0D900E99FEF7DFFE2390AA
:101450002B991698FEF7E0FE0E9010991498FEF75F
:10146000DBFE0C9011991498FEF7D6FE0A902A998B
:101470001B98FEF7D1FE07904FF081401299FEF7BE
:10148000CBFE03905B4801680398FEF7C5FE05900C
:1014900028991898FEF7C0FE03900F991698FEF74A
:1014A000BBFE02900399FEF7B1FE04900599FEF78A
:1014B0005BFE06900799FEF7A9FE08901699FEF7C5
:1014C000A5FE09900A99FEF74FFE0B900C99FEF7C6
:1014D0004BFE0D900E99FEF747FE22902B99159822
:1014E000FEF79AFE0E9010991398FEF795FE0C9059
:1014F00011991398FEF790FE0A902A991898FEF712
:101500008BFE07900F991598FEF786FE0590289997
:101510001B98FEF781FE03904FF081401299FEF771
:101520007BFE0190324801680198FEF775FE02903B
:101530000399FEF719FE04900599FEF715FE069033
:101540000799FEF763FE08901599FEF75FFE099074
:101550000A99FEF709FE0B900C99FEF705FE0D9017
:101560000E99FEF701FE21902A991998FEF754FE74
:101570000E904FF081401099FEF74EFE0A901B48E6
:1015800001680A98FEF748FE0C9028991A98FEF711
:1015900043FE0A904FF081401199FEF73DFE0890FE
:1015A000124801680898FEF737FE09900A99FEF77D
:1015B0002DFE0B900C99FEF7D7FD0D900E99FEF7BE
:1015C00025FE209020990846FEF726FE0D902199D1
:1015D0000846FEF721FE0B9022990846FEF71CFEF6
:1015E000099023990846FEF717FE07E01001002036
:1015F0000C01002008010020040100200890099936
:10160000FEF7B2FD0A900B99FEF7AEFD0C900D9916
:10161000FEF7AAFD0E9001F00DFE2490DDE92301F6
:10162000FEF7FAFD239024992298FEF7F5FD22900B
:1016300024992198FEF7F0FD219024992098FEF737
:10164000EBFD20904E4823990068FEF7E5FD0E90D3
:101650001F99FEF7DEFD1F90494822990068FEF7AA
:10166000DBFD0E901E99FEF7D4FD1E904448219993
:101670000068FEF7D1FD0E901D99FEF7CAFD1D9082
:101680003F4820990068FEF7C7FD0E901C99FEF7B1
:10169000C0FD1C903B491F98FEF7BEFD0E903A48D6
:1016A00001680E98FEF760FD3749086035491E98BD
:1016B000FEF7B2FD0E90354801680E98FEF754FD16
:1016C000324908602F491D98FEF7A6FD0E9030485C
:1016D00001680E98FEF748FD2D49086029491C98BD
:1016E000FEF79AFD0E902B4801680E98FEF73CFD20
:1016F00028490860084601680068FEF78DFD0D90D6
:10170000234801680068FEF787FD0B901F480168B9
:101710000068FEF781FD09901B4801680068FEF72C
:101720007BFD08900999FEF71FFD0A900B99FEF7C3
:101730001BFD0C900D99FEF717FD0E9001F07AFD40
:101740002490114824990068FEF766FD0E49086050
:101750000E4824990068FEF75FFD0C4908600C48AC
:1017600024990068FEF758FD094908600948249942
:101770000068FEF751FD0749086029B000BD000070
:10178000000100200AD7233C0401002008010020AA
:101790000C0100201001002000BFFEE77047000090
:1017A00070B5002100230F22C47804B3154C2468BF
:1017B00004F4E064C4F5E064210AC1F10403CA4002
:1017C000447804FA03F184781440214309010E4C53
:1017D0000678A155047804F01F050124AC40057873
:1017E0006D11AD0005F1E025C5F8004109E0047870
:1017F00004F01F050124AC40044D0678761145F82D
:10180000264070BD0CED00E000E400E080E100E067
:101810007047000001460020034A506820F4404011
:1018200008435060704700000010024029B1064A8A
:1018300052690243044B5A6104E0034A52698243ED
:10184000014B5A61704700000010024029B1064A5E
:10185000D2690243044BDA6104E0034AD26982434D
:10186000014BDA61704700000010024029B1064ABE
:1018700092690243044B9A6104E0034A92698243ED
:10188000014B9A61704700000010024030B5002102
:101890000022002400232D4D6D6805F00C0121B1BC
:1018A000042905D0082923D105E0294D056022E04F
:1018B000274D05601FE0254D6D6805F47012234D1E
:1018C0006D6805F48034022505EB92421CB9214D68
:1018D000554305600BE01D4D6D6805F400351DB1E5
:1018E0001C4D5543056002E0194D5543056002E06B
:1018F000174D056000BF00BF144D6D6805F0F00185
:101900000909154D6B5C0568DD4045600F4D6D683C
:1019100005F4E061090A104D6B5C4568DD408560A7
:101920000A4D6D6805F46051C90A0B4D6B5C456842
:10193000DD40C560054D6D6805F44041890B074DDC
:101940006B5CC568B5FBF3F5056130BD0010024066
:1019500000127A0000093D0014000020240000203D
:1019600001460020034A506820F0F0000843506010
:101970007047000000100240704710B500F002F8F8
:1019800010BD00000CB500200190009033480068A5
:1019900040F480303149086000BF3048006800F4EE
:1019A000003000900198401C0190009818B90198EF
:1019B000B0F5A06FF1D12948006800F4003010B1F3
:1019C0000120009001E0002000900098012843D100
:1019D0002348006840F0100021490860084600686C
:1019E00020F0030008600846006840F0020008602C
:1019F0001A484068194948600846406848600846E7
:101A0000406840F4806048600846406820F47C10DC
:101A100048600846406840F4E8104860084600689E
:101A200040F08070086000BF0C48006800F0007053
:101A30000028F9D00948406820F0030007494860B1
:101A40000846406840F00200486000BF0348406814
:101A500000F00C000828F9D10CBD00000010024075
:101A600000200240042808D14FF0E021096941F02C
:101A700004014FF0E022116107E04FF0E021096915
:101A800021F004014FF0E02211617047012808D1D4
:101A90004FF0E021096941F001014FF0E0221161AE
:101AA0000EE0811C41B94FF0E021096921F00101EC
:101AB0004FF0E022116103E000214FF0E02291613C
:101AC000704710B50146002200230020CB10022BE6
:101AD00003D14FF0E024226902E04FF0E024E269F4
:101AE00001248C4014400CB1012000E0002010BD06
:101AF000704740B14FF0E021096941F002014FF019
:101B0000E022116107E04FF0E021096921F00201B4
:101B10004FF0E022116170474FF0E02148617047BB
:101B200010B51348006840F00100114908600846EC
:101B30004068104908400E494860084600680E4950
:101B400008400B4908600846006820F480200860BF
:101B50000846406820F4FE0048604FF41F0088608B
:101B6000FFF70BFF4FF000600449086010BD000054
:101B7000001002400000FFF8FFFFF6FE08ED00E055
:101B800010B50121880700F031F8B8B101218807AC
:101B900000F01AF80A48008840F2E731884208DB72
:101BA00000200749088007480088401C0549088034
:101BB00004E003480088401C0149088010BD000073
:101BC000BA000020BC000020CA4302827047CA430A
:101BD0000282704721B1028842F00102028004E0D3
:101BE00002884FF6FE731A400280704730B50246F5
:101BF000002000230024158A05EA0103958905EADF
:101C0000010413B10CB1012000E0002030BD1AB175
:101C100083890B43838102E083898B4383817047EF
:101C200070B5002400220023058C4FF6EF76354076
:101C30000584028C8388048B48F6FF752C404FF690
:101C4000FF452C400D884FF6FF7606EA05252C430C
:101C50004FF6DF752A400D8906EA05152A434D889F
:101C600006EA05152A43154DA84202D0144DA84294
:101C70001DD14FF67F752A404D894FF6FF7606EA53
:101C800005152A434FF6BF752A408D8806EA0515CB
:101C90002A434FF6FF352B404FF2FF752B408D89BD
:101CA00006EA85052B43CD8906EA85052B4383800B
:101CB0000483CD880587028470BD0000002C01409C
:101CC000003401400A460021018B4FF2FF73194096
:101CD0004FF6FF7303EA02231943018370470000A4
:101CE00070B5002400220023058C4FF6FF663540B6
:101CF0000584028C8388848B4FF68F752C404FF6B9
:101D0000FC752C400D882C434FF6FF552A400D8959
:101D10004FF6FF7606EA05252A434D8806EA052593
:101D20002A43154DA84202D0144DA8421DD14FF2AE
:101D3000FF752A404D894FF6FF7606EA05252A43AE
:101D40004FF6FF352A408D8806EA05252A434EF6D0
:101D5000FF752B404DF6FF752B408D8906EA051562
:101D60002B43CD8906EA05152B4383808483CD88D8
:101D70008587028470BD0000002C014000340140C2
:101D80000A460021818B4FF6F77319401143818376
:101D90007047000070B5002200230024058C4EF629
:101DA000FF7635400584038C8488828B48F6FF7566
:101DB0002A404FF6FF452A400D884FF6FF7606EA87
:101DC00005252A434DF6FF752B400D8906EA05359A
:101DD0002B434D8806EA05352B430B4DA84202D014
:101DE0000A4DA84208D14BF6FF752C408D894FF65D
:101DF000FF7606EA85152C4384808283CD88A0F87F
:101E00004050038470BD0000002C014000340140AC
:101E10000A460021818B4FF2FF7319404FF6FF7382
:101E200003EA0223194381837047000000220288DD
:101E30001D4B98420ED01D4B98420BD0B0F1804FF5
:101E400008D01B4B984205D01A4B984202D01A4B2F
:101E5000984204D14FF68F731A404B881A43174BA0
:101E6000984207D0164B984204D04FF6FF431A40D1
:101E7000CB881A4302808B8883850B8803850A4BA5
:101E800098420BD0094B984208D00E4B984205D08F
:101E90000D4B984202D00D4B984201D10B7A03862C
:101EA0000123838270470000002C01400034014070
:101EB0000004004000080040000C004000100040FA
:101EC000001400400040014000440140004801402F
:101ED00021B1828942F40052828104E082894DF668
:101EE000FF731A408281704702460020B1F5007FDF
:101EF00000D100BF13880B400BB1012000E000208F
:101F0000704700002DE9F04786B005460E460024D4
:101F1000A24600BFA1460027B08900B100BF2F46EE
:101F20002C8A4CF6FF700440F08804432C82AC8964
:101F30004EF6F3100440B088318908437189084394
:101F40000443AC81AC8A4FF6FF400440B08904439F
:101F5000AC8201A8FFF79AFC1F48874202D1DDF846
:101F600010A001E0DDF80CA0A88900F4004040B109
:101F70000AEBCA0000EB0A1031684900B0FBF1F827
:101F800007E00AEBCA0000EB0A1031688900B0FBD9
:101F9000F1F86420B8FBF0F004012009642101FB92
:101FA0001089A88900F4004040B1322000EBC9003C
:101FB000B0FBF1F000F00700044308E0322000EB32
:101FC00009106421B0FBF1F000F00F0004432C81F4
:101FD00006B0BDE8F087000000380140C1F30802F8
:101FE0008280704700BFFEE70FB4054B10B503A910
:101FF000044A029800F056F910BC5DF814FB00008A
:10200000092E000818010020490050EAC12018BF1D
:1020100004204A0D18BF40F0010040F2FF72B2EBFD
:10202000515F08BF40F00200012808BF052070473B
:102030002DE9F0414F1E00EBC7010446D1E9000134
:1020400015461E4637F006020DD02A463346FEF7E7
:10205000FAF97F1E04EBC703D3E90023FEF74CF91E
:1020600037F00602F1D1022F25D0042F13D0062F0E
:1020700018BFBDE8F0812A463346FEF7E4F9D4E9FB
:102080000A23FEF739F92A463346FEF7DCF9D4E98C
:102090000823FEF731F92A463346FEF7D4F9D4E98E
:1020A0000623FEF729F92A463346FEF7CCF9D4E990
:1020B0000423FEF721F92A463346FEF7C4F9D4E992
:1020C0000223FEF719F92A463346FEF7BCF9D4E994
:1020D0000023BDE8F041FEF70FB90122FEF7E6BB91
:1020E000FEF70AB9024A00201107FEF7DFBB000025
:1020F00001FDFFFF02E008C8121F08C1002AFAD143
:1021000070477047002001E001C1121F002AFBD177
:102110007047000001490860704700001C01002062
:102120002DE9FF5F82B00021DDE90430020DDDF80A
:1021300040B0034318D044F61050A2F2FF3242439D
:102140001514119801281FD0A5EB0B00401C5FEA65
:10215000000A4FF000064E4FDFF83891B046504667
:1021600015D5CAF1000413E0119801244AA30128EF
:1021700001D16FEA0B010298119AC0E90031C0E960
:10218000024206B0BDE8F09FCBF10000DFE7044655
:102190000021404A491842EB0450CDE9001012E0FA
:1021A000E00707D032463B4640464946FEF74BF92A
:1021B0008046894632463B4610461946FEF743F9AB
:1021C00006460F466410002CEAD1DDE90401DDE982
:1021D0000023BAF1000F06DAFEF735F942464B4606
:1021E000FEF731F905E0FEF7A0F942464B46FEF74F
:1021F0009CF904460E460022284BFEF7D7FB03D875
:102200004FF0FF30014607E00022254B20463146C3
:10221000FEF772F8FEF7B2FB102409E0002C0ADB8F
:102220000A220023FEF75CFA039B30321A55641E23
:1022300050EA0102F2D1641C039AC4F11103144460
:10224000119A012A03D0012208430DD10AE0084364
:1022500004D000204FF0110B119072E7A3EB0B0597
:102260006D1E0DE05B4504DD4FF0000205F1010538
:1022700004E003DA4FF00002A5F10105002AECD0DA
:1022800002981199C0E90231C0E9004579E70000E0
:10229000000014400000F03F300000000000F04358
:1022A0000000E03F2DE9FF4F95B09B46894606466A
:1022B00000250FE2252877D100242746F84A01217E
:1022C000059400E0044316F8013F203B01FA03F0B7
:1022D0001042F7D130782A2811D06FF02F033078D0
:1022E000A0F13002092A16D8059A44F0020402EB44
:1022F000820203EB42021044761C0590EFE759F886
:10230000042B0592002A03DA504244F4005405904D
:1023100044F00204761C30782E2816D116F8010FEE
:1023200044F004042A280DD06FF02F023078A0F179
:102330003003092B09D807EB870302EB4303C718C7
:10234000761CF3E759F8047B761C30786C280FD0A4
:1023500006DC4C2817D068280DD06A2814D104E078
:10236000742810D07A280FD10DE044F400140AE04C
:1023700044F4801401E044F440147278824202D1A3
:1023800004F58014761C761C307866280BD013DC9C
:10239000582877D009DC002875D04528F6D0462883
:1023A000F4D047281AD19DE118E0632835D064287D
:1023B00079D0652812D195E1702873D008DC6728A0
:1023C000F1D069286FD06E280DD06F2806D1B5E006
:1023D00073282CD0752875D0782874D05A46179950
:1023E00090476D1C75E1C4F30250022809D0032800
:1023F0000DD0D9F8001004280DD00D6009F10409A2
:1024000067E1D9F80010EA17C1E90052F6E7D9F8F8
:1024100000100D80F2E70D70F0E719F8041B8DF83D
:10242000001000208DF80100EA46012003E059F871
:1024300004AB4FF0FF3061074FF0000102D40DE014
:1024400008F101018846B9420FDA8045F8DB1AF835
:1024500008100029F4D108E008F101018846814202
:10246000FADB1AF808100029F6D105985B46A0EBB4
:10247000080721463846179A00F094FA284400EBE2
:10248000080507E04DE029E10DE01AF8010B5A4676
:1024900017999047B8F10108F7D25B4621463846B4
:1024A000179A13E142E00A220092C4F302524FF05D
:1024B000000A022A08D059F804CB032A4FEAEC712B
:1024C0000AD00DE029E02AE009F1070121F0070216
:1024D000F2E802C1914609E00FFA8CFC4FEAEC7178
:1024E000042A03D14FFA8CFC4FEAEC71002907DA79
:1024F0000A460021DCF1000C61EB02012D2202E012
:10250000220504D52B228DF80420012203E0E207E6
:1025100001D02022F7E7904659E00A2102E010227C
:102520000DE010214FF0000A00910BE010224FF057
:10253000000A44F004040827009203E008224FF048
:10254000000A0092C4F30252022A05D059F804CBC3
:102550000021032A08D009E009F1070121F0070250
:10256000F2E802C1914605E01FFA8CFC042A01D171
:102570000CF0FF0C4FF00008220728D5702806D079
:10258000009B83F0100353EA0A0305D00EE04022BB
:102590008DF80420012208E05CEA010206D0302216
:1025A0008DF804208DF8050002229046009B83F0F0
:1025B000080353EA0A030AD15CEA010201D1620767
:1025C00005D530228DF804204FF001087F1E5828D1
:1025D00004D034A003900EA802900DE036A0F9E7D5
:1025E00053466046009AFEF77BF884460398825C67
:1025F0000298401E029002705CEA0100F0D102983D
:1026000006A9081A00F1200A600702D524F48034D4
:1026100000E00127574502DDA7EB0A0000E000209B
:1026200000EB0A01009005984144401A0590E00330
:1026300006D45B462146179A059800F0B3F9054485
:10264000002706E001A85A46C05D179990476D1C07
:102650007F1C4745F6DBE0030CD55B462146179A05
:10266000059800F09FF9054404E030205A46179978
:1026700090476D1C0099481E00900029F5DC08E089
:10268000029802995A460078491C0291179990477E
:102690006D1CBAF10001AAF1010AF1DC65E100004C
:1026A0000928010030313233343536373839616228
:1026B00063646566000000003031323334353637EC
:1026C00038394142434445460000000000F058F9C3
:1026D0000544761C307800287FF4ECAD19B028460C
:1026E000BDE8F08F620700D4062709F1070222F047
:1026F000070CFCE80223E14603F000485FEA080CFF
:1027000002D00FF2702C0DE05FEA045C02D50FF2EC
:10271000682C07E05FEAC47C02D00FF2602C01E075
:10272000AFF2700C4FF0FF3823F00043CDF850C0EB
:1027300065280CD006DC452809D046281DD047283E
:102740003DD13DE0662818D067287ED138E00021D1
:10275000112F01DB112000E0781CCDE9000106A952
:102760000EA8FFF7DDFCDDE90F010E9A03910021B1
:10277000009207F1010A04914DE04FF000400097EC
:10278000CDE9011006A90EA8FFF7CAFCDDE90F028A
:1027900003920E9B11990022DDF80CA00093049285
:1027A00011B9791C00EB010AB7EB0A0004D4C0F19F
:1027B000FF3007F1010A0490AAEB0700019044E002
:1027C000012F00DA01270021112F01DD112000E087
:1027D0003846CDE9000106A90EA8FFF7A1FCDDE906
:1027E0000F010E9A0391002104910092BA4621072D
:1027F0000CD40399514500DA8A46BAF1010F05DD80
:10280000009AAAF10101515C302908D0B84202DADD
:1028100010F1040F06DA0121CDE9011015E0AAF14B
:102820000101E9E7002805DC049901440491AAEBC1
:10283000000102E0411C514500DD8A460499401A1E
:10284000401C01904FF000400290200704D40198F2
:10285000504501DBCDF8048000208DF84F00029830
:102860000DF14F07B0F1004F25D02B200E900298AC
:102870004FF0020800280CDA404202902D200E9002
:1028800007E00A210298FDF715FF3031029007F8A2
:10289000011DB8F10001A8F10108F2DC029800283E
:1028A000EFD1791E0E980870307800F0200040F0CB
:1028B000450007F8020D12A8C01B00F10708149884
:1028C000007800B1012000EB0A01019801EBE071F2
:1028D00005984144401A401E0590E00306D45B462B
:1028E0002146179A059800F05DF805441498007881
:1028F00018B15A46179990476D1CE00324D55B46E2
:102900002146179A059800F04DF805441CE00498FC
:10291000002807DBDDE90301884203DD0098405C05
:10292000179901E0179930205A469047049805F10D
:102930000105401C04900198401E019004D12E20F6
:102940005A46179990476D1CBAF10001AAF1010A85
:10295000DDDC05E017F8010B5A46179990476D1C0E
:10296000B8F10001A8F10108F4DC5B462146179A92
:102970000598ABE62D0000002B00000020000000B1
:102980002DE9F041044600251E461746880404D46C
:1029900005E039462020B0476D1C641EF9D5284655
:1029A000BDE8F0812DE9F041044600251E46904621
:1029B000C80301D5302700E02027880404D505E0AE
:1029C00041463846B0476D1C641EF9D52846BDE81F
:1029D000F08100002DE9F84F04460D4621F000403B
:1029E00000917349814211DC7249884201DC06D1B1
:1029F0002CB120462946BDE8F84FFFF76EBB6E4864
:102A0000002DCCBF6D496E49BDE8F88F6D498142FC
:102A100011DD6D498142D8BF4FF0FF366DDD204694
:102A20002946FFF7F1FA042808BFFFF75BFB2046B1
:102A30002946BDE8F88F6549654F25F0004581427C
:102A400033DD6449814219DD002632464FF0804370
:102A500020462946FDF750FC80468A460122204642
:102A60002946FDF723FF00223B46FDF7E6FC4246E0
:102A70005346FDF75AFD04460D463EE0012600226E
:102A8000BA463B4620462946FDF736FC80460F46AF
:102A90000022534620462946FDF7CFFC42463B46DE
:102AA000FDF743FD04460D4627E04B4981421BDDFF
:102AB000DFF828A102260022534620462946FDF7CA
:102AC000C2FC00223B46FDF717FC80460F46002261
:102AD000534620462946FDF7B0FC42463B46FDF7EB
:102AE00024FD04460D4608E0032622462B4600201E
:102AF0003B49FDF71AFD04460D4622462B4610467B
:102B00001946FDF7A0FC8B46824602460B46FDF7B0
:102B10009AFC07460246334888460B46062178440D
:102B2000FFF786FA52465B46FDF78DFC82462E483B
:102B30008B463A46434605217844FFF779FA3A46F0
:102B40004346FDF780FC02460B46002E5046594690
:102B50000CDAFDF7D1FB22462B46FDF774FC01B0E1
:102B600022462B46BDE8F04FFDF76ABCFDF7C4FBDB
:102B700022462B46FDF767FC1C4A7A4402EBC6034B
:102B8000D3E90023FDF759FC22462B46FDF755FCFF
:102B9000174A7A4402EBC603D3E90023FDF750FC41
:102BA000009A002AB8BF81F00041BDE8F88F00000C
:102BB000000010440000F07F182D4454FB21F93F21
:102BC000FB21F9BF0000DC3F0000203E0000F33F86
:102BD0000000F03F0000E63F008003400000F83FA7
:102BE0000000F0BF5612000014120000B2110000E5
:102BF0007A1100002DE9F04D9446CCF1000423F049
:102C000000464CEA0404524F46EAD4749A46884679
:102C100021F00042BC4206D8454240EA050442EA9F
:102C2000D474BC4204D9BDE8F04D6246FFF758BAEF
:102C3000AAF14055A5F17F6555EA0C040BD002249A
:102C400004EAAA74434DDFF810E144EAD87452EA6A
:102C5000000B04D00CE0BDE8F04DFFF7BBBE002C2C
:102C600014BF012CBDE8F08D022C30D0032C32D0E3
:102C700056EA0C0B0AD0BE4220D1BA4209D126F046
:102C8000804622F080423346114617E000291ADBC5
:102C900025E0DFF8C8B0FB44002C04BFDBE90001ED
:102CA000BDE8F08D012C02BFDBE9000181F000419D
:102CB000BDE8F08D022C0AD0032C0CD0BA4212D100
:102CC000B8F1000F0BDA23482549BDE8F08D2846FE
:102CD0002449BDE8F08D28467146BDE8F08D1D48B9
:102CE0002149BDE8F08D921B12153C2AC4BF19483A
:102CF0001D490EDCBAF1000FBEBF12F13C0F0020DF
:102D0000014606DB6246FDF710FC21F00041FFF7AB
:102D100061FE002C08BFBDE8F08D012C04BF81F0DE
:102D20000041BDE8F08D114A114B022C07D0FDF790
:102D300084FB2A46BDE8F04D0A4BFDF77EBBFDF74C
:102D40007CFB2A46BDE8F04D064BFDF779BB000041
:102D50000000F07F182D4454FB2109C00E11000023
:102D6000FB21F9BFFB210940FB21F93F075C14332C
:102D700026A6A13C08B501210420FEF777FD01201D
:102D8000ADF8000004208DF8030069460948FEF7FD
:102D900048F801211020FEF769FD4FF40050ADF80E
:102DA000000004208DF8030069460348FEF739F857
:102DB00008BD0000000801400010014070B5044645
:102DC0000F48008800FB04F5B5F1807F01D36FF058
:102DD0007F452846FEF7A0FE0020FEF757FE0120A3
:102DE000FEF754FE00BF1020FEF76BFE0549087089
:102DF000084600780128F6D1C01EFEF747FE70BDD8
:102E0000B6000020B800002070B504460D460F48FB
:102E100090F90000401C08B9204670BD00BF0C4965
:102E20000A4A92F9002051F822004021FFF75CF88D
:102E30000028F4D0E1B2064A044B93F9003052F86E
:102E40002300FFF7CBF82046E7E70000FC00002056
:102E5000C0000020002000BF1BE00F4931F8101017
:102E60000A2291FBF2F1113909B20C4A22F8101032
:102E7000114631F9101011F1080F02DA6FF0070155
:102E800002E0064931F91010044A22F81010411CE2
:102E9000C8B20228E1DB70472A0000202E00002083
:102EA0002DE9F04F91B09B4801689B480068FDF701
:102EB000B3F906469948016899480068FDF7ACF9EE
:102EC00007463146FDF7A2F905464FF08041FDF770
:102ED000A3F90446914801688E480068FDF79CF903
:102EE00006468F4801688C480068FDF795F907464B
:102EF0003146FDF739F905464FF08041FDF78CF971
:102F00008146864801680068FDF786F907468148D2
:102F100001680068FDF780F9804681480168006813
:102F2000FDF77AF983467C4801680068FDF774F97B
:102F300059460F90FDF76AF906464146FDF766F9D6
:102F400005463946FDF710F9824651465046FDF7D1
:102F500063F9214601902046FDF75EF90090019942
:102F6000FDF702F98346FDF76CFBCDE9020100F0A5
:102F7000CBFDCDE904014846FDF763FB0746DDE9DB
:102F80000423FDF7D2FACDE90601FFF723FD05463C
:102F90000022644BFDF757FA634A644BCDE9080100
:102FA000FDF7C3FA624A634BCDE90A01FDF745FA22
:102FB0004FF03332604BCDE90C01FDF73EFACDE91D
:102FC0000E01FDF751FB5D49886051465046FDF703
:102FD00023F9494601904846FDF71EF900900199F2
:102FE000FDF7C2F88346FDF72CFB054600F08CFD8B
:102FF000CDE904012046FDF724FBCDE90201DDE91E
:103000000423FDF792FACDE90601FFF7E3FC81F016
:10301000004107460022434BFDF715FA424A434B55
:10302000CDE90801FDF781FA454A464BCDE90A0191
:10303000FDF703FA4FF03332434BCDE90C01FDF7B6
:103040005BF9CDE90E01FDF70FFB3C4948603448C0
:1030500001684FF08040FDF7DFF883463048016893
:103060005846FDF7D9F807462B4801684FF08040D5
:10307000FDF7D2F88346284801685846FDF7CCF89A
:1030800080463946FDF770F806464FF07E51FDF751
:10309000BDF80546FDF7D5FACDE908011E480168DF
:1030A0004FF08040FDF7B8F880461C480168404664
:1030B000FDF7B2F806461A4801684FF08040FDF768
:1030C000ABF88046134801684046FDF7A5F807466F
:1030D0003146FDF79BF80546FDF7B3FACDE9060149
:1030E000DDE90823FFF786FD00220E4BCDE90A013A
:1030F000FDF7A9F90C4A0D4BCDE90C01FDF715FAC6
:10310000CDE90E01FDF7B0FA0C49086011B0BDE839
:10311000F08F00000C0100200401002010010020AD
:103120000801002000806640EA2E4454FB2109403B
:103130004772F90FE93701C03333104048010020CE
:10314000E9482EFF217D07C03333014010B51148F7
:10315000B0F90000FDF758FA04460F49FDF78EF864
:103160000E4908600E48B0F90000FDF74DFA04461C
:103170000C49FDF783F80C4908600C48B0F90000D1
:10318000FDF742FA04460A49FDF778F80949086054
:1031900010BD00003A00002000448046600000207E
:1031A0003C00002000268046640000203E000020F5
:1031B00000B081466800002010B51449B1F9001034
:1031C000A1F13700FDF720FA04461149FDF756F842
:1031D000104908601049B1F90010A1F10800FDF78D
:1031E00013FA04460A49FDF749F80C4908600C49EE
:1031F000B1F9001001F10D00FDF706FA044604498B
:10320000FDF73CF80749086010BD000034000020BD
:10321000000003434C000020360000205000002036
:10322000380000205400002001480088704700004A
:10323000BA0000202DE9F04704464FF07C512046AB
:10324000FCF7EAFF814625462E460C48A0EB6606B1
:10325000354629464846FCF7DFFF82462946FCF7FB
:10326000DBFF80464FF07F51FCF7D3FF074629462E
:10327000FCF7D2FF05462846BDE8F087DF59375FE7
:1032800000B587B001211020FEF7F0FA3020ADF82C
:10329000180000208DF81B0003208DF81A0006A9E5
:1032A0002C48FDF7BEFD01211020FEF7DFFA0420B7
:1032B000ADF818008DF81B0003208DF81A0006A940
:1032C0002448FDF7AEFD06A92248FDF7AAFD01211D
:1032D0004802FEF7CBFA0020019001208DF808008B
:1032E0008DF809004FF46020039000200490022024
:1032F0008DF8140001A91848FDF7BCFB4FF40040FD
:10330000FEF788FA062301220E211348FDF7DAFBA7
:10331000062302220F211048FDF7D4FB01210E489D
:10332000FDF77EFB0C48FDF729FC00BF0A48FDF7BE
:1033300097FB0028FAD10848FDF730FC00BF06488B
:10334000FDF784FB0028FAD101210348FDF71BFC9F
:1033500007B000BD001001400024014086B0FDF719
:103360001BFFFDF723FCFDF71FFE00F0E7FA4FF40B
:10337000E131002000F02EFCFFF782FFFDF718FD81
:1033800000F022FB00F0E6FBFFF7F4FC0220FDF763
:1033900027FFACA0FEF728FE52E1FFF745FFAB493F
:1033A0000988471A002F01DB384600E0784284B2D2
:1033B0000A2C00DC44E1FFF737FFA449088000F045
:1033C0007BF9FFF7F9FEFFF7C1FEFFF743FDA048C9
:1033D0000068FDF736F907469E4A9F4BFDF733F824
:1033E00000229E4BCDE90001FDF79FF88246FDF7D4
:1033F0003BF905909A480068FDF723F90746954A7E
:10340000954BFDF720F80022944BCDE90001FDF724
:103410008CF88246FDF728F9049092480068FDF781
:1034200010F982468B4A8C4BFDF70DF807460022B7
:103430008A4BFDF77AF8CDE90001FDF715F9039005
:103440008948006889490968CDE9001088480368FF
:1034500003A807C8FDF7CAFEFFF722FD214685A095
:10346000FEF7C2FD864988688649FCF77DFE059017
:10347000FDF7E7F882460022784BFDF756F807463D
:10348000FDF7F2F805467E4948687E49FCF76CFE78
:103490000590FDF7D6F807460022704BFDF745F87A
:1034A0008246FDF7E1F80646754908687549FCF75C
:1034B0005BFE0590FDF7C5F882460022674BFDF7DD
:1034C00034F80746FDF7D0F881466D490868FDF7E6
:1034D000B8F8074688466A494868FDF7B2F8824658
:1034E0008B4667498868FDF7ACF802460B46CDE984
:1034F00000ABCDE90278CDE9040163A0FEF774FDCD
:103500004846FDF79EF8CDE904013046FDF799F8ED
:1035100082468B462846FDF794F807460B46DDE9C0
:1035200004013A46CDE900ABCDE9020156A0FEF711
:103530005BFD3046FDF771F887B23946012000F097
:10354000ABFA4846FDF769F887B23946022000F029
:10355000A3FA5249B1F90200002801DB014600E05C
:10356000414201290ADD4E4800884C4A528802EB4C
:103570008202104481B2002000F08EFA04214948F2
:10358000FDF7DAFCF0B900BF04214648FDF7D4FC92
:103590000028F9D044480188002000F07DFA424814
:1035A0004188012000F078FA3F488188022000F02D
:1035B00073FA2020FDF714FE0120FDF70BFE022018
:1035C000FDF70EFE01213948FDF7B6FCF0B100BF52
:1035D00001213648FDF7B0FC0028F9D134480188B4
:1035E000002000F059FA32484188012000F054FAD6
:1035F0002F488188022000F04FFA2020FDF7F0FDCF
:103600000120FDF7E7FD0220FDF7E4FD4FF4005136
:103610002448FDF791FC90B100BF4FF400512148C0
:10362000FDF78AFC0028F8D1012022490870FDF737
:10363000D7FD2020FDF7CEFD0220FDF7CBFD00BF1A
:10364000ABE6000068616C6F0000000028000020FD
:1036500054000020EA2E4454FB21094000806640BB
:10366000500000204C000020680000206400002072
:10367000600000207469636B733A2025750D0A00A1
:10368000480100200000B442523A256620503A25F5
:103690006620593A25660D0A000000002E00002021
:1036A000380C0040001001400A3D000800080140AD
:1036B000FE3C0008140100202DE9F0470E222B49A2
:1036C0003B2000F069F8294840782849097840EA09
:1036D000012000B2264908802448C078234989780F
:1036E00040EA012000B223490880204840791F4960
:1036F000097940EA012000B21F4908801B49C979B5
:103700001A4A927941EA022108B2FCF77DFF81460C
:103710001A49FCF7B3FD0446FCF793FF0746184A25
:10372000184BFCF7E9FD0546FCF79EFF16490860BB
:103730000E48407A0D49097A40EA012000B2134947
:1037400008800A48C07A0949897A40EA012000B213
:103750000F4908800548407B0449097B40EA012065
:1037600000B20C490880BDE8F08700003401002059
:103770003A0000203C0000203E0000200000AA4348
:10378000A4703D0AD743424070000020340000205E
:1037900036000020380000202DE9F04106460F4693
:1037A000144600BF4FF400313648FDF751FC0028A5
:1037B000F8D101213348FDF733FC00BF32493148CD
:1037C000FDF7D1FB0028F9D00022D0212D48FDF7CC
:1037D000D7FC00BF2D492B48FDF7C5FB0028F9D0C9
:1037E00031462848FDF7D5FC00BF2849891C2548EB
:1037F000FDF7B9FB0028F8D001212248FDF71CFC99
:1038000000BF23491F48FDF723FC0028F9D10121FF
:103810001C48FDF705FC00BF1B491A48FDF7A3FB38
:103820000028F9D00122D1211648FDF7A9FC00BFDC
:103830001549491C1348FDF796FB0028F8D00025D0
:1038400018E0012C07D100210E48FDF780FB012173
:103850000C48FDF7F1FB0C493F310A48FDF783FBAB
:1038600040B10848FDF788FC0A494855681CC5B2B4
:10387000601EC4B2002CE4D101210248FDF767FBB1
:10388000BDE8F081005800400100030082000700FD
:1038900010000010340100202DE9F04105460E46CD
:1038A000174601212248FDF7BBFB00BF21492048F4
:1038B000FDF7CEFB0028F9D00022D0211C48FDF7EF
:1038C0005FFC00BF1C491A48FDF74DFB0028F9D0EA
:1038D00029461748FDF75DFC00BF1749891C1448AD
:1038E000FDF741FB0028F8D0002410E0315D1048BE
:1038F000FDF74FFC00BF1049891C0D48FDF733FB55
:103900000028F8D00120FFF759FA601CC4B2BC426D
:10391000ECDB01210648FDF78FFB00BF05490F31A5
:103920000348FDF795FB0028F8D1BDE8F0810000C1
:1039300000580040010000108200070010B50A2066
:10394000FFF73CFA80201E49087001226B20FFF728
:10395000A3FF0A20FFF732FA00201949087001225C
:103960006B20FFF799FF0A20FFF728FA002014497F
:10397000087001226A20FFF78FFF0A20FFF71EFA66
:1039800002200F49087001223720FFF785FF0A2027
:10399000FFF714FA07200A49087000204870887061
:1039A000C87004221920FFF777FF0A20FFF706FAF4
:1039B0000448006840F001000249086010BD0000A2
:1039C000200100200C0C014000B589B00121042029
:1039D000FDF74CFF01210820FDF738FF0E20ADF860
:1039E000040018208DF8070003208DF8060001A9B7
:1039F0002648FDF716FA44F61F60ADF81C00482073
:103A0000ADF818000020ADF81E00ADF81A0006A9A8
:103A10001F48FEF70BFA6020ADF808000120ADF852
:103A20000A0040F2DC50ADF80E000020ADF81000A6
:103A300002A91748FEF7F4F802A91548FEF750F955
:103A400002A91348FEF7A6F901211148FEF73AF939
:103A500001210F48FEF794F901210D48FEF7D8F92E
:103A600001210B48FEF7B6F80A480188002000F053
:103A700013F808484188012000F00EF805488188B5
:103A8000022000F009F809B000BD00000008014064
:103A9000000C00400A3D0008174A32F810208A4204
:103AA00003DA154A32F8102000E00A461146134A9C
:103AB00032F810208A4203DD104A32F8102000E06C
:103AC0000A4611460E4A127802B9704720B1012801
:103AD00005D002280BD106E00A4A118008E0094A05
:103AE000121D118004E0074A0832118000E000BF77
:103AF00000BF00BFE9E70000FE3C0008043D0008ED
:103B000014010020380C00402DE9F04106460F4614
:103B1000FCF7E3FE041E0D4618BF0120284320F0E9
:103B20000040C0F17F6000F1E040C00F0ED0301CBB
:103B300018BF0120384320F00040C0F17F6000F141
:103B4000E040C00F04BF0120FEF7E4FA20462946FA
:103B5000BDE8F0811FB501210846FDF777FE4FF45F
:103B60007A70ADF80400174800681749B0FBF1F00F
:103B7000401E80B2ADF8000069464FF08040FEF76D
:103B800055F901218807FEF722F801221146900716
:103B9000FEF73DF801218807FEF71CF800208DF89C
:103BA0000D008DF80E0001208DF80F001C208DF8FF
:103BB0000C0003A8FDF7F4FD002004490880044927
:103BC00008801FBD0000002040420F00BC00002004
:103BD000BA00002030B585B004460D46294951F899
:103BE0002410294A52F82420114341F001000121F8
:103BF000FDF73CFE34B9254951F824000121FDF7B9
:103C000035FE05E0214951F824000121FDF71EFE93
:103C100018208DF813001E4830F81400ADF810007D
:103C200003208DF812001B4951F8240004A9FDF768
:103C3000F8F804208DF81300174830F81400ADF898
:103C40001000164951F8240004A9FDF7EAF8009580
:103C50000020ADF80400ADF80600ADF80800ADF89E
:103C60000C000C20ADF80A000D4951F824006946FB
:103C7000FEF748F90A4951F824000121FEF728F916
:103C800005B030BDB83C0008CC3C0008A43C00089E
:103C9000E03C0008D4000020EA3C0008E8000020D6
:103CA000C0000020004000000000020000000400EE
:103CB00000000000000000000400000004000000FC
:103CC00008000000000000000000000004000000E8
:103CD00004000000080000000000000000000000D8
:103CE00000020400000400000000000408000008B6
:103CF00000000000250026002700000000006009E9
:103D00002E096009A802C6025802DC05FA05DC0586
:103D10004FBB610567ACDD3F182D4454FB21E93FE3
:103D20009BF681D20B73EF3F182D4454FB21F93FD2
:103D3000E2652F227F2B7A3C075C143326A6813C58
:103D4000BDCBF07A8807703C075C143326A6913C03
:103D5000C4EB98999999C9BF711623FEC671BCBF6F
:103D60006D9A74AFF2B0B3BF9AFDDE522DDEADBFD7
:103D70002F6C6A2C44B4A2BF0D5555555555D53FEF
:103D8000FF8300922449C23F6E204CC5CD45B73F0A
:103D9000513DD0A0660DB13FEB0D76244B7BA93F82
:103DA00011DA22E33AAD903F00000000000000006D
:103DB000D03D00080000002020010000F420000891
:103DC000F03E00082001002040040000042100080B
:103DD00000A24A04000000000000000001020304E9
:103DE00006070809000000000102030401020304A1
:103DF0000607080902040608000000000000000091
:103E000000000000000000000000000000000000B2
:103E100000000000000000000000000000000000A2
:103E20000000000000000000000000000000000092
:103E30000000000000000000000000000000000082
:103E40000000000000000000000000000000000072
:103E50000000000000000000000000000000000062
:103E60000000000000000000000000000000000052
:103E70000000000000000000000000000000000042
:103E80000000000000000000000000000000000032
:103E9000003801400044004000480040000000009D
:103EA000000000000008014000080140000C014033
:103EB0000000000000000000000801400008014070
:103EC000000C0140000000000000000000000000A5
:103ED000CDCCCC3D0000803F000000000000000081
:103EE00000000000000000000000000000000000D2
:0400000508000131BD
:00000001FF
